S015000066656E6963652D626D732D6C762E62696E009B
S3250800400000000220E9C400080D7300080F73000811730008137300081573000800000000FF
S325080040200000000000000000000000001773000819730008000000001B7300081D7300081E
S3250800404039C5000839C5000839C5000839C5000839C5000839C5000839C5000839C5000822
S3250800406039C5000839C5000839C5000839C5000839C5000839C5000839C5000839C5000802
S3250800408039C5000839C500082573000839C500083D7300084D7300085D73000839C5000802
S325080040A039C500086D73000839C5000839C500088573000839C500089573000839C50008DC
S325080040C039C5000839C5000839C5000839C5000839C50008A573000839C5000839C5000888
S325080040E039C5000839C5000839C50008B573000839C5000839C5000839C5000839C5000858
S3250800410039C5000839C50008C573000839C5000839C5000839C50008D5730008E573000883
S3250800412039C5000839C50008F573000839C5000805740008000000000000000039C5000868
S3250800414015740008257400083574000839C5000839C5000839C5000839C5000839C5000850
S3250800416039C5000839C5000839C5000839C5000839C5000839C5000839C500080000000007
S325080041800000000039C50008000000000000000039C50008000000000000000039C50008FF
S325080041A000000000000000000000000039C5000839C5000839C5000839C5000839C50008D3
S325080041C039C5000800000000000000000000000010F8012B11F8013B012A28BF9A42F7D09D
S325080041E0D01A7047034613F8012B002AFBD1181A0138704700000000000000000000000078
S3250800420001F0FF01102A2BDB10F0070F08D010F8013B013A8B422DD010F0070F42B3F6D156
S32508004220F0B441EA012141EA014122F007047FF000070023F0E80256083C85EA010586EA03
S32508004240010685FA47F5A3FA87F586FA47F6A5FA87F68EB9EED1F0BC01F0FF0102F00702FE
S3250800426032B110F8013B013A83EA010313B1F8D10020704701387047002D06BF3546033861
S32508004280073815F0010F07D1013015F4807F02BF013015F4C03F0130F0BC0138704700BF25
S325080042A081F0004102E000BF83F0004330B54FEA41044FEA430594EA050F08BF90EA020F1F
S325080042C01FBF54EA000C55EA020C7FEA645C7FEA655C00F0E2804FEA5454D4EB5555B8BFF5
S325080042E06D420CDD2C4480EA020281EA030382EA000083EA010180EA020281EA0303362DAC
S3250800430088BF30BD11F0004F4FEA01314FF4801C4CEA113102D0404261EB410113F0004F15
S325080043204FEA03334CEA133302D0524263EB430394EA050F00F0A780A4F10104D5F1200E53
S325080043400DDB02FA0EFC22FA05F2801841F1000103FA0EF2801843FA05F359410EE0A5F19B
S3250800436020050EF1200E012A03FA0EFC28BF4CF0020C43FA05F3C01851EBE37101F00045A7
S3250800438007D54FF0000EDCF1000C7EEB00006EEB0101B1F5801F1BD3B1F5001F0CD3490821
S325080043A05FEA30004FEA3C0C04F101044FEA445212F5800F80F09A80BCF1004F08BF5FEA00
S325080043C0500C50F1000041EB045141EA050130BD5FEA4C0C404141EB0101013C28BFB1F579
S325080043E0801FE9D291F0000F04BF01460020B1FA81F308BF2033A3F10B03B3F120020CDA14
S325080044000C3208DD02F1140CC2F10C0201FA0CF021FA02F10CE002F11402D8BFC2F1200C27
S3250800442001FA02F120FA0CFCDCBF41EA0C019040E41AA2BF01EB0451294330BD6FEA040461
S325080044401F3C1CDA0C340EDC04F11404C4F1200220FA04F001FA02F340EA030021FA04F3B2
S3250800446045EA030130BDC4F10C04C4F1200220FA02F001FA04F340EA0300294630BD21FAD0
S3250800448004F0294630BD94F0000F83F4801306BF81F480110134013D4EE77FEA645C18BFAE
S325080044A07FEA655C29D094EA050F08BF90EA020F05D054EA000C04BF1946104630BD91EAE8
S325080044C0030F1EBF0021002030BD5FEA545C05D14000494128BF41F0004130BD14F5800445
S325080044E03CBF01F5801130BD01F0004545F0FE4141F470014FF0000030BD7FEA645C1ABFC1
S32508004500194610467FEA655C1CBF0B46024650EA013406BF52EA033591EA030F41F40021AF
S3250800452030BD00BF90F0000F04BF0021704730B54FF4806404F132044FF000054FF00001DC
S3250800454050E700BF90F0000F04BF0021704730B54FF4806404F1320410F0004548BF404228
S325080045604FF000013EE700BF42004FEAE2014FEA31014FEA02701FBF12F07F4393F07F4FA2
S3250800458081F06051704732F07F4208BF704793F07F4F04BF41F40021704730B54FF46074B6
S325080045A001F0004521F000411CE700BF50EA010208BF704730B54FF000050AE050EA010298
S325080045C008BF704730B511F0004502D5404261EB41014FF4806404F132045FEA915C3FF482
S325080045E0D8AE4FF003025FEADC0C18BF03325FEADC0C18BF033202EBDC02C2F1200300FACE
S3250800460003FC20FA02F001FA03FE40EA0E0021FA02F11444BDE600BF70B54FF0FF0C4CF4D6
S32508004620E06C1CEA11541DBF1CEA135594EA0C0F95EA0C0F00F0DEF82C4481EA030621EA83
S325080046404C5123EA4C5350EA013518BF52EA033541F4801143F4801338D0A0FB02CE4FF006
S325080046600005E1FB02E506F00042E0FB03E54FF00006E1FB03569CF0000F18BF4EF0010E30
S32508004680A4F1FF04B6F5007F64F5407404D25FEA4E0E6D4146EB060642EAC62141EA5551F3
S325080046A04FEAC52040EA5E504FEACE2EB4F1FD0C88BFBCF5E06F1ED8BEF1004F08BF5FEAC8
S325080046C0500E50F1000041EB045170BD06F0004646EA010140EA020081EA0301B4EB5C0477
S325080046E0C2BFD4EB0C0541EA045170BD41F480114FF0000E013C00F3AB8014F1360FDEBF59
S32508004700002001F0004170BDC4F10004203C35DA0C341BDC04F11404C4F1200500FA05F3D8
S3250800472020FA04F001FA05F240EA020001F0004221F0004110EBD37021FA04F642EB060133
S325080047405EEA430E08BF20EAD37070BDC4F10C04C4F1200500FA04F320FA05F001FA04F2E1
S3250800476040EA020001F0004110EBD37041F100015EEA430E08BF20EAD37070BDC4F12005A8
S3250800478000FA05F24EEA020E20FA04F301FA05F243EA020321FA04F001F0004121FA04F24B
S325080047A020EA020000EBD3705EEA430E08BF20EAD37070BD94F0000F0FD101F000464000ED
S325080047C041EB010111F4801F08BF013CF7D041EA060195F0000F18BF704703F0004652004F
S325080047E043EB030313F4801F08BF013DF7D043EA0603704794EA0C0F0CEA135518BF95EACB
S325080048000C0F0CD050EA410618BF52EA4306D1D181EA030101F000414FF0000070BD50EACD
S32508004820410606BF1046194652EA430619D094EA0C0F02D150EA013613D195EA0C0F05D10A
S3250800484052EA03361CBF104619460AD181EA030101F0004141F0FE4141F470014FF0000074
S3250800486070BD41F0FE4141F4780170BD70B54FF0FF0C4CF4E06C1CEA11541DBF1CEA135502
S3250800488094EA0C0F95EA0C0F00F0A7F8A4EB050481EA030E52EA03354FEA013100F088805D
S325080048A04FEA03334FF0805545EA131343EA12634FEA022245EA111545EA10654FEA0026BB
S325080048C00EF000419D4208BF964244F1FD0404F5407402D25B084FEA3202B61A65EB03055E
S325080048E05B084FEA32024FF480104FF4002CB6EB020E75EB030E22BFB61A754640EA0C00D4
S325080049005B084FEA3202B6EB020E75EB030E22BFB61A754640EA5C005B084FEA3202B6EB34
S32508004920020E75EB030E22BFB61A754640EA9C005B084FEA3202B6EB020E75EB030E22BFE3
S32508004940B61A754640EADC0055EA060E18D04FEA051545EA16754FEA06164FEAC30343EAEF
S3250800496052734FEAC2025FEA1C1CC0D111F4801F0BD141EA00014FF000004FF0004CB6E742
S3250800498011F4801F04BF01430020B4F1FD0C88BFBCF5E06F3FF6AFAEB5EB030C04BFB6EBA4
S325080049A0020C5FEA500C50F1000041EB045170BD0EF0004E4EEA113114EB5C04C2BFD4EBE2
S325080049C00C0541EA045170BD41F480114FF0000E013C90E645EA060E8DE60CEA135594EAB3
S325080049E00C0F08BF95EA0C0F3FF43BAF94EA0C0F0AD150EA01347FF434AF95EA0C0F7FF4CA
S32508004A0025AF104619462CE795EA0C0F06D152EA03353FF4FDAE1046194622E750EA4106EA
S32508004A2018BF52EA43067FF4C5AE50EA41047FF40DAF52EA43057FF4EBAE12E74FF0FF3C75
S32508004A4006E000BF4FF0010C02E000BF4FF0010C4DF804CD4FEA410C7FEA6C5C4FEA430C15
S32508004A6018BF7FEA6C5C1BD001B050EA410C0CBF52EA430C91EA030F02BF90EA020F0020AE
S32508004A80704710F1000F91EA030F58BF994208BF90422CBFD8176FEAE37040F001007047BB
S32508004AA04FEA410C7FEA6C5C02D150EA013C07D14FEA430C7FEA6C5CD6D152EA033CD3D091
S32508004AC05DF8040B704700BF8446104662468C461946634600E000BF01B5FFF7B7FF002823
S32508004AE048BF10F1000F01BD4DF808EDFFF7F4FF0CBF012000205DF808FB00BF4DF808ED53
S32508004B00FFF7EAFF34BF012000205DF808FB00BF4DF808EDFFF7E0FF94BF012000205DF865
S32508004B2008FB00BF4DF808EDFFF7CEFF94BF012000205DF808FB00BF4DF808EDFFF7C4FF0A
S32508004B4034BF012000205DF808FB00BF4FEA410C7FEA6C5C02D150EA013C0AD14FEA430C98
S32508004B607FEA6C5C02D152EA033C02D14FF0000070474FF0010070474FEA410212F5001253
S32508004B8015D211D56FF47873B3EB625212D94FEAC12343F0004343EA505311F0004F23FADF
S32508004BA002F018BF404270474FF00000704750EA013005D111F0004008BF6FF00040704750
S32508004BC04FF00000704700BF4A0011D212F5001211D20DD56FF47873B3EB62520ED44FEA4C
S32508004BE0C12343F0004343EA505323FA02F070474FF00000704750EA013002D14FF0FF3015
S32508004C0070474FF0000070474FEA4102B2F1E04324BFB3F5001CDCF1FE5C0DD901F0004CA6
S32508004C204FEAC0024CEA5070B2F1004F40EB830008BF20F00100704711F0804F21D113F180
S32508004C403872BCBF01F00040704741F480114FEA5252C2F11802C2F1200C10FA0CF320FAC7
S32508004C6002F018BF40F001004FEAC1234FEAD32303FA0CFC40EA0C0023FA02F34FEA430314
S32508004C80CCE77FEA625307D150EA01331EBF4FF0FE4040F44000704701F0004040F0FE40CB
S32508004CA040F40000704700BF53B94AB9002908BF00281CBF4FF0FF314FF0FF3000F0E2B8D3
S32508004CC0ADF1080C6DE904CE0FF0F8FEDDF804E0DDE9022304B0704700F1340191E8380011
S32508004CE09C46A6464CF8045D90E8FF0FE54600BD90EC210B704700BF80EC210B704700BF99
S32508004D0090EC200B704700BF80EC200B704700BFD0EC200B704700BFC0EC200B704700BFB1
S32508004D20F0EC0201F0EC0211F0EC0221F0EC0231F0EC0241F0EC0251F0EC0261F0EC0271AD
S32508004D40F0EC0281F0EC0291F0EC02A1F0EC02B1F0EC02C1F0EC02D1F0EC02E1F0EC02F18D
S32508004D60704700BFE0EC0201E0EC0211E0EC0221E0EC0231E0EC0241E0EC0251E0EC0261B6
S32508004D80E0EC0271E0EC0281E0EC0291E0EC02A1E0EC02B1E0EC02C1E0EC02D1E0EC02E14D
S32508004DA0E0EC02F1704700BFB0FC0181B0FC0191B0FC01A1B0FC01B1704700BFA0FC018104
S32508004DC0A0FC0191A0FC01A1A0FC01B1704700BFEC4600B52DE900502DE9FF1F4FF00003D2
S32508004DE02DE90C0001A910F023F9DDF840E012B0704700BFEC4600B52DE900502DE9FF1F0F
S32508004E004FF000032DE90C0001A910F04DF9DDF840E012B0704700BFEC4600B52DE90050B6
S32508004E202DE9FF1F4FF000032DE90C0001A910F05DF9DDF840E012B0704700BFEC4600B5B8
S32508004E402DE900502DE9FF1F4FF000032DE90C0001AB10F021F9DDF840E012B0704700BF53
S32508004E60EC4600B52DE900502DE9FF1F4FF000032DE90C0001AA10F08DF9DDF840E012B057
S32508004E80704700BF704700BF10B5054C237833B9044B13B10448AFF300800123237010BD76
S32508004EA01805002000000000401A010808B5034B1BB103490348AFF3008008BD00000000EF
S32508004EC01C050020401A010810B582B09DF800306FF300038DF80030BDF804306FF30B03F1
S32508004EE0ADF804309DF805306FF307138DF805309DF8003043F004038DF80030DBB243F057
S32508004F00F8038DF800300F4C0F4B23604FF48063238103F1804303F50033636002AB13E983
S32508004F2003002061A182204603F00EFE204603F076FE08B902B010BD0021092002F0D6FE3A
S32508004F40F8E700BFD8070020481400200023184601E00133DBB2052B0FD8084A02EB83012D
S32508004F6091ED007A02EB8002D2ED007AB4EEE77AF1EE10FAEDD51846EBE77047F8070020CF
S32508004F8030B583B000223B4B1A703B4B0021196005230193394B0093394B0221394804F0AA
S32508004FA02BF8012805D00021092002F0ADFE002423E0304B03221A700021092002F096FEBA
S32508004FC02C4B187803B030BD2A4B01221A702146002002F08BFE294B03EB8503D3ED006AE4
S32508004FE0DFED297A86EEA77A234BD3ED007A77EE877AC3ED007A0134E4B2052C2CD82546FC
S325080050001E4B03EB8403D3ED006A9FED1F7AC6EE877A9FED1E7AF4EEC77AF1EE10FAD3D9C4
S325080050209FED1B7AF4EEC77AF1EE10FA0CDA194B1B78002BCFD12146002002F065FE21464A
S32508005040012002F061FEC6E70A4B02221A702146012002F04BFEBEE7074B93ED007ADFEDA0
S325080050600E7AB4EEE77AF1EE10FAA9D5014B01221A70A5E7F4070020F0070020F80700205A
S32508005080D4070020D807002000007A4433335340666686405012002066669E4130B583B07A
S325080050A00022684B1A70684BFF211970674B0021196005230193664B0093664B0221664859
S325080050C003F09AFF01280FD00021092002F01CFEFFF73CFF5C4B18704FF4FA7200215F4801
S325080050E00BF09AFA002442E003215D4806F098FE544B03221A700021092002F0F7FDEBE728
S325080051009FED587AF4EEC77AF1EE10FA46D89FED567AF4EEC77AF1EE10FA3FDB17EE900AD8
S32508005120FFF722FACDE90001224650494B480CF039F916E017EE900AFFF716FACDE9000184
S325080051402A464B4945480CF02DF92146012002F0CDFD3C4B02221A703D4B03EB8505454B85
S325080051602B6001213D4806F05BFE0134E4B2052C52D82546364B03EB8403D3ED006A9FED63
S325080051803E7AC6EE877A314B93ED007A37EE277A83ED007A2C4B1B78A342B1D09FED317AC7
S325080051A0F4EEC77AF1EE10FAC4DA9FED2F7AF4EEC77AF1EE10FA17D817EE900AFFF7D4F9A5
S325080051C0CDE900012A462D4924480CF0EBF82146002002F08BFD1B4B01221A701C4B03EB70
S325080051E0850500232B60BCE717EE900AFFF7BCF9CDE900012A46224918480CF0D3F8214B57
S325080052001B78002BADD12146002002F07DFD2146012002F079FDA4E70C4B93ED007ADFEDB9
S325080052201A7AB4EEE77AF1EE10FA03D4054B187803B030BD0321154806F0F2FD014B0122B4
S325080052401A70F3E7F4070020F5070020F0070020F8070020D4070020D8070020340500201C
S32508005260781A01086666864033335340841A0108981A010800007F4300007A44D01A010825
S32508005280081B01085012002066669E41181B010870B52DED028B82B005460024654B1C70C2
S325080052A0654EFF233370654B00221A60FFF74EFE30704FF4FA72214661480BF0ADF949E0B1
S325080052C0604B03EB8403D3ED006A9FED5F7AC6EE877A9FED5E7AF4EEC77AF1EE10FA3FD8D5
S325080052E09FED5B7AF4EEC77AF1EE10FA38DB17EE900AFFF739F9CDE9000122465549504804
S325080053000CF050F80DE017EE900AFFF72DF9CDE90001224650494A480CF044F8454B02225D
S325080053201A702846FEF75EFF454928440CF05AF8444B03EB8403D3ED006ADFED437A86EEA2
S32508005340A77A3E4BD3ED007A77EE877AC3ED007A0134E4B2052C45D8374B1B78A342AFD039
S32508005360384B03EB8403D3ED006A9FED377AC6EE877A9FED367AF4EEC77AF1EE10FAC2DA27
S325080053809FED337AF4EEC77AF1EE10FA12D817EE900AFFF7E9F8CDE9000122462F49284853
S325080053A00CF000F82146002002F0A0FC214B01221A70B6E717EE900AFFF7D6F8CDE9000106
S325080053C0224627491E480BF0EDFF264B1B78002BA7D12146002002F097FC2146012002F06D
S325080053E093FC9EE7154B93ED008ADFED1F7AB4EEE78AF1EE10FA08D50E4B01221A70114B81
S3250800540000221A605A609A60DA602846FEF7EAFE044618EE100AFFF7A7F802460B461349B5
S3250800542028190BF0BFFF034B187802B0BDEC028B70BD00BFF4070020F5070020F007002064
S3250800544034050020F807002000007A446666864033335340281B01083C1B0108741B010839
S32508005460AC1B01085012002066669E41C01B010830B585B000230293ADF80C30314B1B787B
S32508005480FF2B23D12F4B00221A702E4B1A78130103F01003910001F008010B4302F00401C5
S325080054A00B43921002F00202134343F00103264C227C63F3C7022274204603F045FB0122EA
S325080054C00221204603F015FD05B030BD012211461D4803F00EFD06F041FD04461A4803F0DE
S325080054E01DFD20B106F03AFD001B0128F6D906F035FD041B019402AA0021134803F06CFC14
S32508005500124C22780F4D2B78BDF808C002EB420103EB81010E4820F811C001330D4981FB24
S32508005520030101F07E0000EB6101A3EB81032B700132094B83FB02135B1003EB8303D31A0A
S325080055402370A2E700000020D8070020280700205C070020ABAAAA2A67666666000000006E
S32508005560D0B52DED048B00247CE003EB430204EB8202514931F8122007EE902AF8EEE77ADE
S3250800558037EE277A0133042BEFDDF1EE047AC7EE276AB2EE047AC6EE877A67EEA78A27EEF7
S325080055A0A88A27EE889A17EE900AFEF7DDFF38A3D3E90023FFF730F837A3D3E90023FEF77E
S325080055C075FE06460F4618EE900AFEF7CDFF34A3D3E90023FFF720F802460B4630463946F6
S325080055E0FEF764FE06460F4618EE100AFEF7BCFF2DA3D3E90023FFF70FF802460B4630461A
S325080056003946FEF753FE06460F4619EE100AFEF7ABFF27A3D3E90023FEF7FEFF02460B4622
S3250800562030463946FEF742FEFFF7EEFA07EE900A224B03EB840318609FED217AF4EEC77A21
S32508005640F1EE10FA14DCF5EEC07AF1EE10FA14D4E6B23146072002F057FB3146062002F06C
S3250800566053FB01340B2C0DDC00239FED167A8AE7E1B2072002F03AFBF3E7E1B2062002F063
S3250800568035FBEEE7BDEC048BD0BD00BFAFF3008018435F4335DEB1BFF939A76F48C15F40E1
S325080056A092F841EE600CF63EB6A1C75622622CBE2DE6C499B712433D5C0700202C07002012
S325080056C0000070420000000070B582B006464FF4FA7200210F480AF09FFF002416E00E4B35
S325080056E003EB84030B4D1868FEF73EFFCDE9000122460A4928460BF055FE3046FEF772FD15
S32508005700294630440BF06EFE0134E4B20B2CE6D902B070BD340500202C070020E41B0108DD
S325080057200B7833B1037803F00903092B02D001234B70704700234B7070470000024B0022DA
S325080057405A609A60DA6070474408002030B58BB00024069401944FF6E0730093029403945F
S32508005760049405940794012308930E2309930E4D6946284607F012F848F20201284607F0A8
S3250800578013FA284607F0A6F8FFF7D8FF074B1C705C709C70DC705C6040F6B8329A601C73B7
S325080057A05C730BB030BD00BF881100201008002010B58AB00023069301934FF6E07200923C
S325080057C002930393012104910E220592079308910992084C6946204606F0E0FF48F21001BB
S325080057E0204607F0E1F9204607F074F8FFF7A6FF0AB010BDB0110020F8B504460E461746F0
S3250800580006F0ACFB0546204607F010F940B906F0A5FB05F10A039842F5D903252846F8BDA7
S32508005820002332463946204607F082F8054690B12368124A1268934208D0114A1268934225
S32508005840ECD10121032002F051FAE7E70021032002F04CFAE2E72368084A1268934208D0E4
S32508005860074A12689342D9D10121032002F04CFAD4E70021032002F047FACFE788110020B2
S32508005880B011002000B58FB003468C46A74A92E803000EAA02E90300A54A136008201061FB
S325080058A040F26642934231D0B3F5017F4ED0B3F5A27F58D0B3F5597F62D0B3F5617F00F0C9
S325080058C09780B3F5517F00F0A480B3F5697F00F0AD80B3F5717F00F0DB80B3F5827F00F0EE
S325080058E0F880B3F5927F00F0FE8040F24272934224D1904B5B7B8DF80C30012203A90CA856
S3250800590001F008F98A4B01221A6117E001238DF80C3033238DF80D3071238DF80E306FF06A
S325080059206C038DF80F3064238DF81030052203A90CA800F0CAFA7E4B05221A617C4A0CA9B9
S325080059407D48FFF759FF0FB05DF804FB7B4903A800F0D6FE052203A90CA800F0BBFD744BF2
S3250800596005221A61EAE7764903A801F073F8072203A90CA800F087FF6D4B07221A61DDE7C1
S325080059808DF80CC06F4B03EB8C0292ED007ADFED6E7A87EE277A17EE102ACDF80D200CF181
S325080059A0010203EB820292ED007A87EE277A17EE102ACDF811200CF1020103EB810393ED2E
S325080059C0007AC7EE277A17EE903ACDF8153003A901A800F0C5FB01A903A800F0A3FB0722FF
S325080059E001A90CA800F018FB514B07221A61A5E7564B1B68039303A901A800F0FFFB04224D
S32508005A000DEB02010CA800F0C9FB494B04221A6194E703A901A800F0E9FA062201A90CA8B7
S32508005A2000F082FA424B06221A6187E78DF804C0474B03EB8C02D2ED007AFCEEE77A17EE6E
S32508005A40902AADF805200CF1010203EB8202D2ED007AFCEEE77A17EE902AADF807200CF136
S32508005A60020103EB8101D1ED007AFCEEE77A17EE903AADF8093003A901A800F037FC0722D4
S32508005A8001A90CA800F0C3FB294B07221A6155E7304B1B680393304B1B68BBB107EE903ADB
S32508005AA0F8EE677A9FED2D7A67EE877ACDED047A03A901A800F07CFC04220DEB02010CA8BE
S32508005AC000F032FC1A4B04221A6137E7DFED247AECE7244B1B788DF80C30012203A90CA8F3
S32508005AE000F0E8FC2AE7204B1B78C3F300128DF81020C3F380028DF80E20C3F3C0028DF850
S32508005B000F20C3F300028DF80C20C3F340028DF80D20C3F340138DF81130012203A90CA8E3
S32508005B2000F079FE024B01221A6107E7581A0108440800201008002088110020BC0A002059
S32508005B4074110020F807002000007A44F00700202C070020300B0020C4080020000080394B
S32508005B600000000040120020FC0A002010B584B000210291039102AB384A394806F06FFF2A
S32508005B80B0B10021032002F0B1F8344B1B68B3F5407F12D0B3F5487F2DD0B3F5807F48D041
S32508005BA040F22272934251D0102B53D004B010BD0021032002F0A8F8E7E7022202A901A820
S32508005BC000F006FC274C01A9204600F029FCD4ED007AF5EEC07AF1EE10FA03DB224B00227F
S32508005BE09A72E3E7F5EEC07AF1EE10FADED51E4B01229A72DAE7022202A901A800F019FC32
S32508005C001A4C01A9204600F03DFCD4ED007AF5EEC07AF1EE10FA03DB154B00225A73C5E7BD
S32508005C20F5EEC07AF1EE10FAC0D5114B01225A73BCE7012202A901A800F02DFC9DF8043073
S32508005C400C4C237006F08AF96060AFE70A4B01221A70ABE707F042F9A8E700BF2808002018
S32508005C608811002024080020300B002020080020C4080020401200201008002000B583B0F0
S32508005C800023009301936B46084A0121084806F0E6FE30B10121032002F028F803B05DF81D
S32508005CA004FB0121032002F02FF8F7E728080020B011002038B5734B93ED017ADFED727A0C
S32508005CC0B4EEE77AF1EE10FACCBF012100216F4C227861F30002227093ED027AB4EEE77AC0
S32508005CE0F1EE10FACCBF01210021D2B261F34102227093ED037AB4EEE77AF1EE10FACCBFBE
S32508005D0001210021D2B261F38202227093ED047AB4EEE77AF1EE10FACCBF01210021D2B208
S32508005D2061F3C302227093ED067AB4EEE77AF1EE10FACCBF01210021D2B261F30412227070
S32508005D4093ED087AB4EEE77AF1EE10FACCBF01210021D2B261F34512227093ED097AB4EE13
S32508005D60E77AF1EE10FACCBF01210021D2B261F38612227093ED0A7AB4EEE77AF1EE10FA0B
S32508005D80CCBF01210021D2B261F3C712227093ED0B7AB4EEE77AF1EE10FACCBF0121002125
S32508005DA0627861F30002627093ED0C7AB4EEE77AF1EE10FACCBF01210021D2B261F34102F8
S32508005DC0627093ED0D7AB4EEE77AF1EE10FACCBF01210021D2B261F38202627093ED0E7AEC
S32508005DE0B4EEE77AF1EE10FACCBF01210021D2B261F3C3026270DA6BC4F803201B68C4F809
S32508005E000730234D00221146284602F055FB637860F30413637001220021284602F04CFBA1
S32508005E20637860F34513637002220021284602F043FB637860F386136370032200212846CA
S32508005E4002F03AFB637860F3C713637004220021284602F031FBA37860F30003A3700522B4
S32508005E600021284602F028FBA37860F34103A37006220021284602F01FFBA37860F38203F5
S32508005E80A37038BDB40F00200000C84474110020000B00208840104070478840104070478F
S32508005EA0884010407047084110407047C840104070471040884080B2704710400841C0B29A
S32508005EC070471040084180B27047042A29D970B504460D46002606600671FF22314628784E
S32508005EE0FFF7D8FF2070FF223146D5F80100FFF7D7FF6070FF220821D5F80100FFF7D6FF52
S32508005F00A070FF221021D5F80100FFF7CFFFE070FF221821D5F80100FFF7C8FF2071052094
S32508005F2070BD6FF015007047052A2BD970B504460D46002606608680FF2231462888FFF736
S32508005F40ACFF2070FF2208212888FFF7ACFF6070FF2231466888FFF7A0FFA070FF22082116
S32508005F606888FFF7A0FFE070FF223146A888FFF794FF2071FF220821A888FFF794FF607188
S32508005F80062070BD6FF0150070470000F2EE047A30EE270A9FED047AC0EE077AFCEEE77A44
S32508005FA017EE903A98B27047F000703AF2EE047A30EE270A9FED047AC0EE077AFCEEE77A38
S32508005FC017EE903A98B27047F000703AF3EE0E7A30EE270A9FED047AC0EE077AFCEEE77A0D
S32508005FE017EE903A98B27047F000703A38B504460D460B6800EE103AFFF7C8FF20806B68C4
S3250800600000EE103AFFF7D2FF6080AB6800EE103AFFF7DCFFA08038BD062A38D970B50446B2
S325080060200D4600260660C0F80360FF2231462878FFF730FF2070FF223146B5F80100FFF72F
S325080060402CFF6070FF220821B5F80100FFF72BFFA070FF223146B5F80300FFF71EFFE07064
S32508006060FF220821B5F80300FFF71DFF2071FF223146B5F80500FFF710FF6071FF2208210B
S32508006080B5F80500FFF70FFFA071072070BD6FF0150070479FED047AC0EE077AFCEEE77A28
S325080060A017EE903A98B27047A000A03807EE900AF8EE677A9FED020A27EE800A704700BF87
S325080060C0A000A0389FED047AC0EE077AFCEEE77A17EE903A98B27047A000A03807EE900ADF
S325080060E0F8EE677A9FED020A27EE800A704700BFA000A0389FED047AC0EE077AFCEEE77A22
S3250800610017EE903A98B27047A000A03807EE900AF8EE677A9FED020A27EE800A704700BF26
S32508006120A000A03838B504460D460B780370B1F80100FFF7BBFF10EE103AC4F80130B5F81D
S325080061400300FFF7CBFF10EE103AC4F80530B5F80500FFF7DBFF10EE103AC4F8093038BD81
S3250800616038B504460D460B780370D1F8013000EE103AFFF78FFFA4F80100D5F8053000EE4E
S32508006180103AFFF79FFFA4F80300D5F8093000EE103AFFF7AFFFA4F8050038BD032A1DD9D9
S325080061A038B504460D4600210160FF222868FFF777FE2070FF2208212868FFF777FE607004
S325080061C0FF2210212868FFF771FEA070FF2218212868FFF76BFEE070042038BD6FF0150034
S325080061E0704700009FED047AC0EE077AFCEEE77A17EE900A704700BF3400D03810B50446F6
S325080062000B6800EE103AFFF7EDFF206010BD062A38D970B504460D4600260660C0F80360EC
S32508006220FF2231462878FFF735FE2070FF223146B5F80100FFF731FE6070FF220821B5F82D
S325080062400100FFF730FEA070FF223146B5F80300FFF723FEE070FF220821B5F80300FFF75C
S3250800626022FE2071FF223146B5F80500FFF715FE6071FF220821B5F80500FFF714FEA07126
S32508006280072070BD6FF0150070470000F3EE047A30EE270A9FED047AC0EE077AFCEEE77A3F
S325080062A017EE903A98B270472003C83BF3EE047A30EE270A9FED047AC0EE077AFCEEE77AA8
S325080062C017EE903A98B270472003C83BF3EE047A30EE270A9FED047AC0EE077AFCEEE77A88
S325080062E017EE903A98B270472003C83B38B504460D460B780370D1F8013000EE103AFFF7F2
S32508006300C5FFA4F80100D5F8053000EE103AFFF7CDFFA4F80300D5F8093000EE103AFFF73F
S32508006320D5FFA4F8050038BD032A1ED970B504460D4600260660FF2231462888FFF7ADFD8B
S325080063402070FF2208212888FFF7ADFD6070FF2231466888FFF7A1FDA070FF2208216888CF
S32508006360FFF7A1FDE070042070BD6FF015007047F7EE007A30EE270A9FED047AC0EE077AC8
S32508006380FCEEE77A17EE903A98B2704780000038F7EE007A30EE270A9FED047AC0EE077A35
S325080063A0FCEEE77A17EE903A98B270478000003838B504460D460B6800EE103AFFF7D8FFFA
S325080063C020806B6800EE103AFFF7E2FF608038BD012A12D970B505460E46FF220021307894
S325080063E0FFF76FFD04462880FF2208217078FFF760FD04432C80002070BD6FF0150070474B
S3250800640007EE900AF8EE677A9FED040A67EE807AB7EE000A37EEC00A704700BF8000003863
S3250800642010B504460888FFF7EBFF10EE103A236010BD012A12D970B505460E46FF2200211B
S325080064403078FFF73EFD04462880FF2208217078FFF72FFD04432C80002070BD6FF015005B
S325080064607047000007EE900AF8EE677A9FED040A67EE807AB7EE000A37EEC00A704700BF04
S325080064808000003810B504460888FFF7EBFF10EE103A236010BD52B110B504460B46012299
S325080064A000211878FFF709FD2070002010BD6FF0150070475AB110B504460B46002101707C
S325080064C001221878FFF7E6FC2070012010BD6FF015007047042A40F21081F8B504460D463F
S325080064E0002707600771012239462878FFF7D2FC06462070022201216878FFF7CBFC06437A
S32508006500F6B2267004220221A878FFF7C3FC0643F6B2267008220321E878FFF7BBFC0643E6
S32508006520F6B22670102204212879FFF7B3FC0643F6B22670202205216879FFF7ABFC0643BC
S32508006540F6B2267040220621A879FFF7A3FC0643F6B2267080220721E879FFF79BFC064328
S32508006560267001223946287AFFF794FC0646607002220121687AFFF78DFC0643F6B2667023
S3250800658004220221A87AFFF785FC0643F6B2667008220321E87AFFF77DFC0643F6B266705E
S325080065A010220421287BFFF775FC0643F6B2667020220521687BFFF76DFC0643F6B2667034
S325080065C040220621A87BFFF765FC0643F6B2667080220721E87BFFF75DFC06436670012225
S325080065E03946287CFFF756FC0646A07002220121687CFFF74FFC0643F6B2A670042202210B
S32508006600A87CFFF747FC0643F6B2A67008220321E87CFFF73FFC0643F6B2A67010220421C7
S32508006620287DFFF737FC0643F6B2A67020220521687DFFF72FFC0643F6B2A6704022062179
S32508006640A87DFFF727FC0643F6B2A67080220721E87DFFF71FFC0643A67001223946287E00
S32508006660FFF718FC0646E07002220121687EFFF711FC0643F6B2E67004220221A87EFFF78B
S3250800668009FC0643F6B2E67008220321E87EFFF701FC0643F6B2E67010220421287FFFF7BE
S325080066A0F9FB0643F6B2E67020220521687FFFF7F1FB0643F6B2E67040220621A87FFFF773
S325080066C0E9FB0643F6B2E67080220721E87FFFF7E1FB0643E6700122394695F82000FFF79A
S325080066E0D9FB064620710222012195F82100FFF7D1FB064326710520F8BD6FF01500704740
S325080067000B78C3F3000303700B78C3F3400343700B78C3F3800383700B78C3F3C003C370AF
S325080067200B78C3F3001303710B78C3F3401343710B78C3F3801383710B78C3F3C013C3714B
S325080067404B78C3F3000303724B78C3F3400343724B78C3F3800383724B78C3F3C003C37267
S325080067604B78C3F3001303734B78C3F3401343734B78C3F3801383734B78C3F3C013C37303
S325080067808B78C3F3000303748B78C3F3400343748B78C3F3800383748B78C3F3C003C3741F
S325080067A08B78C3F3001303758B78C3F3401343758B78C3F3801383758B78C3F3C013C375BB
S325080067C0CB78C3F300030376CB78C3F340034376CB78C3F380038376CB78C3F3C003C376D7
S325080067E0CB78C3F300130377CB78C3F340134377CB78C3F380138377CB78C3F3C013C37773
S325080068000B79C3F3000380F820300B79C3F3400380F8213070479AB370B505460E46002136
S32508006820017001223078FFF735FB04462870022201217078FFF72EFB0443E4B22C7004221A
S325080068400221B078FFF726FB0443E4B22C7008220321F078FFF71EFB0443E4B22C701022DF
S3250800686004213079FFF716FB0443E4B22C70202205217079FFF70EFB04432C70012070BD3B
S325080068806FF015007047062A40F2C980F8B505460E4600270760C0F80370012239463078C5
S325080068A0FFF7F8FA04462870022201217078FFF7F1FA0443E4B22C7004220221B078FFF711
S325080068C0E9FA0443E4B22C7008220321F078FFF7E1FA0443E4B22C70102204213079FFF758
S325080068E0D9FA0443E4B22C70202205217079FFF7D1FA0443E4B22C7040220621B079FFF70B
S32508006900C9FA0443E4B22C7080220721F079FFF7C1FA04432C7001223946307AFFF7BAFA70
S325080069200446687002220121707AFFF7B3FA0443E4B26C7004220221B07AFFF7ABFA044346
S32508006940E4B26C7008220321F07AFFF7A3FA0443E4B26C7010220421307BFFF79BFA0443DF
S32508006960E4B26C7020220521707BFFF793FA0443E4B26C7040220621B07BFFF78BFA044392
S32508006980E4B26C7080220721F07BFFF783FA04436C7001223946307CFFF77CFA0446A87090
S325080069A002220121707CFFF775FA0443E4B2AC7004220221B07CFFF76DFA0443E4B2AC706E
S325080069C0F8220321B6F81300FFF767FA0443AC70FF220521B6F81300FFF765FAE870072212
S325080069E00D21B6F81300FFF75EFA04462871F8220321B6F81500FFF750FA04432C71FF2223
S32508006A000521B6F81500FFF74EFA687107220D21B6F81500FFF747FAA8710720F8BD6FF0C3
S32508006A20150070479FED047AC0EE077AFCEEE77A17EE903A98B270470318C03B9FED047A08
S32508006A40C0EE077AFCEEE77A17EE903A98B270470318C03B38B504460D460B78C3F3000302
S32508006A6003700B78C3F3400343700B78C3F3800383700B78C3F3C003C3700B78C3F300133C
S32508006A8003710B78C3F3401343710B78C3F3801383710B78C3F3C013C3714B78C3F30003B8
S32508006AA003724B78C3F3400343724B78C3F3800383724B78C3F3C003C3724B78C3F30013F4
S32508006AC003734B78C3F3401343734B78C3F3801383734B78C3F3C013C3738B78C3F3000370
S32508006AE003748B78C3F3400343748B78C3F380038374D1F8033000EE103AFFF793FFA4F8D3
S32508006B001300D5F8073000EE103AFFF797FFA4F8150038BD5AB110B504460B4600210170E9
S32508006B2003221878FFF7B6F92070012010BD6FF0150070470000000070B594B01046002362
S32508006B4013701D4B1B78C3F34002C3F38001C3F3C004C3F30015C3F3401612969FED0E7B6C
S32508006B608DED107B0E959FED0E7B8DED0C7B0A949FED0D7B8DED087B06919FED0D7B8DED75
S32508006B80047B02928DED007B03F001020B490AF009FC14B070BD00BF000000000040AF40B7
S32508006BA0000000000088A340000000000056D3400000000000409F40FC0A0020FC1B01088E
S32508006BC010B494460B4C0FCCCCF80000CCF80410CCF80820CCF80C3003CCCCF81000CCF8E8
S32508006BE014102288A378ACF818208CF81A305DF8044B7047181D01082DE9F04F2DED0A8B57
S32508006C0093B01546544C2068FDF7AEFC06460F466068FDF7A9FC8046894694F809A094F8AA
S32508006C2008B0A37A002B00F085804C4C4C4B93ED007ADFED4C7A67EE277A17EE900AFDF70D
S32508006C4093FC41EC180B484B93ED00AA1AEE103A002B71D0F8EE4A7A9FED447A67EE877A82
S32508006C6017EE900AFDF780FC41EC190BF8EE4A7A17EE900AFDF778FC33A3D3E90023FDF74C
S32508006C80CBFC00223A4BFDF7C7FC0022394BFDF7C3FCFDF7B9FFFDF767FC41EC1A0B324B96
S32508006CA093ED02CA1CEE103A002B48D0F8EE4C7A9FED2E7A67EE877A17EE900AFDF754FCCA
S32508006CC041EC1B0BF8EE4C7A17EE900AFDF74CFC1DA3D3E90023FDF79FFC0022244BFDF719
S32508006CE09BFC0022234BFDF797FCFDF78DFFFDF73BFC1D4B5B7B2BB3184B1093CDE90E0146
S32508006D008DED0CBB8DED0AAB8DED089B8DED068B0494CDF80CB0CDF808A0CDE90089324690
S32508006D203B46154928460AF03DFB13B0BDEC0A8BBDE8F08F114C79E79FED059B96E79FEDAF
S32508006D4004BBBFE70D4BD8E76666666666660A400000000000000000300B00203C1D01083E
S32508006D60340300200000C842C4080020000080390000F83F0000303F441D0108341D010895
S32508006D8038B515460B4C0FCC28606960AA60EB6000240CE02846FDF725FA074BDB6D53F84F
S32508006DA02420064928440AF0FDFA0134E4B20E2CF0D938BD4C1E01085C0800205C1E010898
S32508006DC038B50D461446002313701046FEF760FA09496868FDF7FCF900B138BD2046FDF7B5
S32508006DE001FA064B1A78064B53F82220054920440AF0D8FAF1E700BF641E0108F40700200E
S32508006E007C0000206C1E01082DE9F04F2DED089BA1B01546012833D94C6881492046FDF76A
S32508006E20D7F9002851D07F492046FDF7D1F900287AD07D492046FDF7CBF9002840D17B4BEA
S32508006E405C6ED3F86880D3F86C90186EFDF78CFB06460F464846FDF787FBCDE904014046F9
S32508006E60FDF782FBCDE902012046FDF77DFBCDE9000132463B466E4928460AF093FA1FE0AD
S32508006E806C4C944604F1200526460FCECCF80000CCF80410CCF80820CCF80C3034460CF1F0
S32508006EA0100CAE42F0D107CCCCF80000CCF80410CCF808202288A378ACF80C208CF80E3045
S32508006EC021B0BDEC089BBDE8F08F584B9C6CD3F85080D3F84490D3F84CA0D3F854B0186C74
S32508006EE0FDF742FB06460F465846FDF73DFBCDE908015046FDF738FBCDE906014846FDF72D
S32508006F0033FBCDE904014046FDF72EFBCDE902012046FDF729FBCDE9000132463B46464961
S32508006F2028460AF03FFACBE7404B5C68D3F80880D3F80C90D3F810A0D3F814B09E69DF698E
S32508006F4093ED089AD3ED099A93ED0AAAD3ED0BAA93ED0CBAD3ED0DBA93ED0ECAD3ED0FCA37
S32508006F601868FDF701FBCDE91E011CEE900AFDF7FBFACDE91C011CEE100AFDF7F5FACDE9A1
S32508006F801A011BEE900AFDF7EFFACDE918011BEE100AFDF7E9FACDE916011AEE900AFDF71C
S32508006FA0E3FACDE914011AEE100AFDF7DDFACDE9120119EE900AFDF7D7FACDE9100119EE31
S32508006FC0100AFDF7D1FACDE90E013846FDF7CCFACDE90C013046FDF7C7FACDE90A01584680
S32508006FE0FDF7C2FACDE908015046FDF7BDFACDE906014846FDF7B8FACDE904014046FDF7AD
S32508007000B3FACDE902012046FDF7AEFACDE90001DDE91E23094928460AF0C4F950E700BFCF
S32508007020B41E0108C81F01080C210108B40F002010210108841E0108BC1E0108CC1F0108A2
S32508007040704700002DE9F04F89B01446012854D90D46886809F090FA51EC100B0022704B32
S32508007060FDF756FD002800F0D0806E686D493046FDF7AEF8002848D06B493046FDF7A8F8B9
S3250800708000285FD069493046FDF7A2F8002876D067493046FDF79CF8002840F08B80654DA4
S325080070A02868FDF761FA06460F466868FDF75CFA8046894695F809A095F808B0AB7A002BC8
S325080070C076D05D4D5D4B93ED007ADFED5D7A67EE277A17EE900AFDF747FACDE9060104954D
S325080070E0CDF80CB0CDF808A0CDE9008932463B46544920460AF056F904E04A2252492046BF
S3250800710009F07CFA09B0BDE8F08FA86809F034FA51EC100BFDF778FD00EE100A00214B4861
S3250800712002F0AAFFA86809F027FA51EC100B0022474BFDF771FA02460B46464920460AF089
S3250800714031F9DFE7A86809F017FA51EC100BFDF75BFD00EE100A04213C4802F08DFFA86834
S3250800716009F00AFA51EC100B0022394BFDF754FA02460B46384920460AF014F9C2E7A86884
S3250800718009F0FAF951EC100BFDF73EFD2B4B1860A86809F0F1F951EC100B00222C4BFDF7A8
S325080071A03BFA02460B462D4920460AF0FBF8A9E72B4D87E7A86809F0DFF951EC100BFDF787
S325080071C023FD224E00EE100A0421304602F054FFA86809F0D1F951EC100BFDF715FD00EE0A
S325080071E0100A0021304602F047FFA86809F0C4F951EC100B0022164BFDF70EFA02460B4662
S32508007200184920460AF0CEF87CE7174D0FCD20606160A260E36028682061AB88A38271E7EF
S325080072200000F03FB0210108D4210108F821010820220108300B00203C1D010834030020B8
S325080072400000C84228220108642101087815002000005940B4210108D821010804220108E0
S32508007260341D0108D0220108F0220108000000002DE9F04F2DED028B89B01646012875D988
S325080072800C464D68A2492846FCF7A2FF00287DD1A04B1F68002F6FD007EE907AF8EE677AD0
S325080072A09FED9D7A67EE877A17EE900AFDF75CF904460D4607EE907AF8EE677A17EE900ADD
S325080072C0FDF752F98EA3D3E90023FDF7A5F90022924BFDF7A1F90022914BFDF79DF9FDF7B6
S325080072E093FCFDF741F9804689468A4B9F68002F45D007EE907AF8EE677A9FED877A67EE66
S32508007300877A17EE900AFDF72FF982468B4607EE907AF8EE677A17EE900AFDF725F978A378
S32508007320D3E90023FDF778F900227C4BFDF774F900227B4BFDF770F9FDF766FCFDF714F915
S32508007340744B5B7B03B3774B0693CDE90401CDE902ABCDE9008922462B46734930460AF017
S3250800736021F809B0BDEC028BBDE8F08F51226F49304609F043F9F4E7002400259AE74FF019
S32508007380000A4FF0000BC2E7694BDDE769492846FCF71EFF002835D067492846FCF718FFE5
S325080073A0002840F09580A06809F0E6F851EC100B55A3D3E90023FDF7ABFB002871D0A06839
S325080073C009F0DAF859EC108BA06809F0D5F851EC100BFDF719FC08EE100A40464946FDF7AC
S325080073E013FCF0EE480A00EE100A4A4800F034FAA06809F0C1F853EC102B5049304609F04C
S32508007400D1FFAEE7A06809F0B7F851EC100B00224B4BFDF77DFBD0B94A4CB44604F1200699
S3250800742025460FCDCCF80000CCF80410CCF80820CCF80C302C460CF1100CB542F0D107CC59
S32508007440CCF80000CCF80410CCF8082089E7A06809F092F859EC108BA06809F08DF851ECF8
S32508007460100BFDF7D1FB08EE100A40464946FDF7CBFBF0EE480A00EE100A264800F06CFA48
S32508007480A06809F079F851EC100B1FA3D3E90023FDF7C2F802460B462849304609F082FFCB
S325080074A05FE7294DB44605F120062C460FCCCCF80000CCF80410CCF80820CCF80C302546AC
S325080074C00CF1100CB442F0D12068CCF8000048E71E4DB44605F120062C460FCCCCF80000C1
S325080074E0CCF80410CCF80820CCF80C3025460CF1100CB442F0D123788CF8003031E700BF59
S325080075006666666666660A40CCCCCCCCCCCC134020220108C4080020000080390000F83F6D
S325080075200000303F3C1D01085C23010808230108341D0108E8260108EC230108A823010853
S325080075400000F03FC0230108F02301081424010808B5104600231370FEF7B6F808BD000084
S3250800756038B5144600231370064D284600F06AFF2146284600F08EFD2146284600F022FEC1
S3250800758038BD00BF000B002008B505F0A7FC08BD10B594460A4C0FCCCCF80000CCF8041078
S325080075A0CCF80820CCF80C3003CCCCF81000CCF814102388ACF81830024802F0B3FC10BDF7
S325080075C0382401089816002038B5012820D94C682B492046FCF7FCFD002838D029492046D9
S325080075E0FCF7F6FD00283BD027492046FCF7F0FDD8B326492046FCF7EBFDD8B32449204615
S32508007600FCF7E6FD10BB00213E20FEF73BF91DE0204C944604F13005A646BEE80F00CCF841
S325080076200000CCF80410CCF80820CCF80C3074460CF1100CAE45EFD107CCCCF80000CCF897
S325080076400410CCF808202388ACF80C3038BD00213C20FEF717F901213C20FEF713F9F5E7BF
S3250800766000213F20FEF70EF9F0E700213D20FEF709F9EBE700213B20FEF704F9E6E700BF68
S32508007680942401089C240108A4240108AC240108B424010854240108F0B5A9B016460024C8
S325080076A0279427A905A800F03DFB04F057FC0746279A1749304609F075FE0BE015490391E8
S325080076C0CDF808E0CDF804C00095134909F06AFE0134A4B2279B9C4217D23046FCF782FD18
S325080076E0304428AB03EBC40111F88C2C0B4B53F8223051F8885CA7EB050C11F88BEC11F875
S325080077008A1C0029DAD10649D9E729B0F0BD00BFCC240108BC240108D82401088C000020FA
S32508007720C424010830B599B0194D1A4B2B601A4BAB651A4BEB650F2385F86030EC46184CC7
S325080077400FCCACE80F000FCCACE80F000FCCACE80F0094E80700ACE80300ACF80020684615
S32508007760FCF740FD18AB18440E4B1A889B7820F8602C00F85E3C284601F01CFD6846FCF74F
S3250800778031FD02466946284601F07AFD19B030BD5C080020E4160020400000200400002008
S325080077A0302501086C25010808B50146074802F039FEDFED077A70EE677A9FED067A87EE3A
S325080077C0870ADFED057A20EE270A08BD6C10002000A0CD443333134100007A4408B5FFF743
S325080077E0E3FFDFED067AB4EEE70AF1EE10FACCBF01220022024B1A7008BD00BF00504347CC
S32508007800C008002010B5BCEEC00A80ED000AFCEEE00AC0ED020A0023037103730121417352
S325080078209FED091A094C0A46DFED092AB0EE412AF7EE001AF0EE610AB0EE610A204602F035
S325080078404CFA044B636310BD00000000D408002066669E4000002042F8B5044610EE106A7B
S3250800786010EE905A10EE100AFCF77EFE36A3D3E90023FDF74DF9002851D0DFED357A07EEE0
S32508007880106A67EE277A17EE900AFCF76DFE2EA3D3E90023FCF7EAFFFDF796F907462846A3
S325080078A0FCF762FE28A3D3E90023FDF731F9C8B3DFED277A07EE105A67EE277A17EE900AC3
S325080078C0FCF752FE20A3D3E90023FCF7CFFFFDF77BF906461F4D1021284605F037FB0021ED
S325080078E0284605F033FB3B4600221021284605F061FB0546C8B100210E2000F0F7F9FF253F
S32508007900334600221146134805F054FBA8B901212173A6600E2000F0F7F92846F8BD4FF437
S325080079208057BCE74FF48056D4E701232371276000210E2000F0E8F9E2E701210E2000F083
S32508007940D5F9FF25E9E700BFCCCCCCCCCCCC134000008045D8110020F8B52DED028B044611
S32508007960B0EE608AF7EE007AB4EEE70AF1EE10FA2AD810EE100AFCF7F7FD4FA3D3E90023C4
S32508007980FCF74AFE00224E4BFCF746FEFDF73CF908EE900AFCF7E8FD45A3D3E90023FDF760
S325080079A0B7F8002844D0DFED477A68EEA77A17EE900AFCF7D9FD3EA3D3E90023FCF756FF5A
S325080079C0FDF702F9074601E040F6FF77F7EE007AB4EEE78AF1EE10FA2DD818EE100AFCF75D
S325080079E0C3FD35A3D3E90023FCF716FE0022344BFCF712FEFDF708F908EE100AFCF7B4FDAE
S32508007A002BA3D3E90023FDF783F800283CD0DFED2D7A68EE277A17EE900AFCF7A5FD24A3A3
S32508007A20D3E90023FCF722FFFDF7CEF8064604E04FF48057CAE740F6FF76234D10212846D6
S32508007A4005F084FA0021284605F080FA3B4600221021284605F0AEFA0546C0B100210E20BD
S32508007A6000F044F9FF25334600221146164805F0A1FAA0B901212173A6600E2000F044F957
S32508007A802846BDEC028BF8BD4FF48056D5E701232371276000210E2000F036F9E3E7012111
S32508007AA00E2000F023F9FF25EAE700BFAFF30080CCCCCCCCCCCC13406666666666660A40DF
S32508007AC00000F83F00008045D8110020044B054A1A60054ADA6111229A61044A9A607047C4
S32508007AE0580A002008160020D0000020C93C000810286FD8DFE800F0090F151B21272D3395
S32508007B00393F454B51575D636900334B1A7861F300021A707047304B1A7861F341021A70A9
S32508007B2070472D4B1A7861F382021A7070472A4B1A7861F3C3021A707047274B1A7861F3A4
S32508007B4004121A707047244B1A7861F345121A707047214B1A7861F386121A7070471E4B3F
S32508007B601A7861F3C7121A7070471B4B5A7861F300025A707047184B5A7861F341025A7052
S32508007B807047154B5A7861F382025A707047124B5A7861F3C3025A7070470F4B5A7861F34C
S32508007BA004125A7070470C4B5A7861F345125A707047094B5A7861F386125A707047064BE7
S32508007BC05A7861F3C7125A707047034B9A7861F300029A70704700BFBC0A002010286FD87C
S32508007BE0DFE800F0090F151B21272D33393F454B51575D636900334B9A7861F341029A70C6
S32508007C007047304B9A7861F382029A7070472D4B9A7861F3C3029A7070472A4B9A7861F33A
S32508007C2004129A707047274B9A7861F345129A707047244B9A7861F386129A707047214BD5
S32508007C409A7861F3C7129A7070471E4BDA7861F30002DA7070471B4BDA7861F34102DA706B
S32508007C607047184BDA7861F38202DA707047154BDA7861F3C302DA707047124BDA7861F3E2
S32508007C800412DA7070470F4BDA7861F34512DA7070470C4BDA7861F38612DA707047094B7D
S32508007CA0DA7861F3C712DA707047064B1A7961F300021A717047034B1A7961F341021A71B7
S32508007CC0704700BFBC0A002038B505460C460121FFF784FF0134034B5C55034B01221A70E6
S32508007CE038BD00BF800A00205012002038B504460D460121FFF7FCFE2A462146014801F0E9
S32508007D000BFE38BD580A002038B504460D460021FFF7EEFE2A462146014801F052FE38BDF2
S32508007D20580A00202DE9F04782B081468A460026374631E0224B9B5D013BA34218D1002357
S32508007D40009301938DF800605368AA689B1A01931B4B9B5D13B101238DF8023009EBC70338
S32508007D6002AA12E9030083E8030001374FF001080134144801F065FE68B1EB68A3420AD944
S32508007D802B6903EBC40213F83430002BD2D0B8F1000FD4D0CEE701360A4801F052FE50B175
S32508007DA0102E08D8074BDD6906EB860305EB83050024A046DDE7CAF8007002B0BDE8F0873F
S32508007DC0800A0020580A002003786FF345130370DBB26FF304130370DBB26FF3C303037020
S32508007DE0DBB26FF382030370DBB26FF341030370DBB26FF300030370DBB26FF38713037087
S32508007E007047000000230D2B07D80178054AD25C914204D00133DBB2F5E701207047002031
S32508007E20704700BF24020020B5EEC00AF1EE10FA04D4037843F020030370704703786FF372
S32508007E404513037070470000DFED087AB4EEE70AF1EE10FA04D503786FF3041303707047D1
S32508007E60037843F010030370704700BF00401C45DFED087AB4EEE70AF1EE10FA04D503788B
S32508007E806FF3C30303707047037843F008030370704700BF00007A45DFED087AB4EEE70A40
S32508007EA0F1EE10FA04D503786FF3820303707047037843F004030370704700BF00B09A4638
S32508007EC070EE600AF5EEC00AF1EE10FA0BD4DFED0A7AF4EEE70AF1EE10FA07DD03786FF38A
S32508007EE0410303707047F1EE600AF0E7037843F002030370704700BF0000FA4470EEC00AE4
S32508007F00F5EEC00AF1EE10FA0BD4DFED0A7AF4EEE70AF1EE10FA07D503786FF300030370A3
S32508007F207047F1EE600AF0E7037843F001030370704700BF0000FA4438B505460C46D1ED3B
S32508007F40190A91ED1A0AFFF7D9FFD4ED1B0A94ED190A2846FFF7B4FF94ED1B0A2846FFF7D5
S32508007F609BFF94ED150A2846FFF782FF94ED130A2846FFF769FF94ED130A2846FFF754FF15
S32508007F802846FFF73FFF014B187038BD50120020016052008280704700B585B00A230293CE
S32508007FA00123019300920A468188006805F0B2FF05B05DF804FB00B585B00A230293012329
S32508007FC0019300920A468188006805F0F1FE05B05DF804FB00B583B08DF8042001AAFFF78D
S32508007FE0EAFF03B05DF804FB00B583B08DF8042001AA41F00201FFF7DEFF03B05DF804FB39
S3250800800000B583B08DF8042001AA41F00C01FFF7D2FF03B05DF804FB30B583B004460D4655
S3250800802001AA41F01201FFF7B7FF18B99DF804302C44A37103B030BD08B541F01201FFF7E2
S32508008040BAFF08BDF0B583B005460E4614461F46FFF7E2FFAB1999798DF8071087B904F0E1
S325080080600704012202FA04F421EA04018DF807100DF1070231462846FFF7DEFF03B0F0BD05
S3250800808004F00704012202FA04F421438DF80710EEE7000070B588B006460D46002415E0D2
S325080080A0B2790123A3401A40234622413C49684609F078F9002D6CD02846FCF793F86A46B8
S325080080C03849284409F06EF90134E4B2062C65D8062C53D801A353F824F000BFA140000803
S325080080E0F94000080F410008254100083B4100085141000867410008B2790123A3401A4011
S32508008100234622412849684609F04CF9D2E7B2790123A3401A40234622412449684609F003
S3250800812041F9C7E7B2790123A3401A40234622411F49684609F036F9BCE7B2790123A340DE
S325080081401A40234622411B49684609F02BF9B1E7B2790123A3401A402346224116496846BF
S3250800816009F020F9A6E7B2790123A3401A40234622411249684609F015F99BE7B279012319
S32508008180A3401A40234622410D49684609F00AF990E70121684603F043FE95E708B070BDEC
S325080081A0202701087C1E01083C2701085027010868270108802701089C270108B0270108DE
S325080081C0CC27010870B588B006460D46002415E0F2790123A3401A402346224143496846AE
S325080081E009F0E0F8002D79D02846FBF7FBFF6A463F49284409F0D6F80134E4B2072C72D81D
S32508008200072C60D801A353F824F000BFD14100082D42000843420008594200086F420008A9
S32508008220854200089B420008B1420008F2790123A3401A40234622412E49684609F0B2F821
S32508008240D0E7F2790123A3401A40234622412A49684609F0A7F8C5E7F2790123A3401A4090
S32508008260234622412549684609F09CF8BAE7F2790123A3401A40234622412149684609F031
S3250800828091F8AFE7F2790123A3401A40234622411C49684609F086F8A4E7F2790123A34092
S325080082A01A40234622411849684609F07BF899E7F2790123A3401A402346224113496846ED
S325080082C009F070F88EE7F2790123A3401A40234622410F49684609F065F883E7012168468C
S325080082E003F09EFD88E708B070BD00BFE42701087C1E0108F82701080C2801082028010862
S32508008300342801084828010860280108782801089028010838B504462022FFF739FE0021AF
S325080083200B20FFF7F1FCFF2200212046FFF752FE002832D1C02201212046FFF74BFE002837
S3250800834034D1002211462046FFF75AFE002836D1002201212046FFF753FE002838D100226A
S3250800836011462046FFF740FE00283AD1002201212046FFF739FE00283CD1A51D2A4600216C
S325080083802046FFF759FE00283DD12A4601212046FFF752FE00283FD138BD0321234803F0F9
S325080083A03FFD00210B20FFF7A1FCC3E70321204803F036FD00210B20FFF798FCC1E7032196
S325080083C01C4803F02DFD00210B20FFF78FFCBFE70321194803F024FD00210B20FFF786FC3E
S325080083E0BDE70321154803F01BFD00210B20FFF77DFCBBE70321124803F012FD00210B2016
S32508008400FFF774FCB9E703210C4803F009FD00210B20FFF76BFCB8E70321094803F000FD2A
S3250800842000210B20FFF762FCB6E700BFA8280108BC280108D0280108E4280108F82801082D
S325080084400C29010830B585B00446024652F8060B642302930123019300921222A18805F011
S3250800846059FD054600210B20FFF74EFC75B9224652F8070B64230293012301930092132234
S32508008480A18805F047FD50B905B030BD0321084803F0C6FC00210B20FFF728FCE7E7032140
S325080084A0044803F0BDFC00210B20FFF71FFCEBE7202901083429010802F00702084480798F
S325080084C00123934018401041C0B2704738B52DED028B04464D4D284601F0D8FC2A68936A8B
S325080084E00133B0FBF3F307EE903AF8EE677A9FED487A67EE877A9FED478A87EE887ABCEE01
S32508008500C77A82ED0E7A204601F0C0FC2268936A0133B0FBF3F307EE903AF8EE677A9FEDA4
S325080085203E7A67EE877A87EE887ABCEEC77A82ED0D7A204601F0AAFC2268936A0133B0FB64
S32508008540F3F307EE903AF8EE677A9FED347A67EE877A87EE887ABCEEC77A82ED0E7A204652
S3250800856001F094FC2268936A0133B0FBF3F307EE903AF8EE677A67EE887A87EE887ABCEE22
S32508008580C77A82ED0F7A204601F080FC2268936A0133B0FBF3F307EE903AF8EE677AB1EE50
S325080085A0047A67EE877A87EE887ABCEEC77A82ED107A2A686FF00403136122686FF0020126
S325080085C011612268136123686FF008021A6123686FF010021A610021204607F06FF804212D
S325080085E0204607F06BF80821204607F067F80C21204607F063F80421284607F05FF8084BAF
S3250800860000221A70BDEC028B38BD00BFC01500200000484200007A44000096430000484315
S32508008620080B002008B5234B93ED117ADFED227AB4EEE77AF1EE10FA1DDC204B1B78FBB1CC
S325080086401C4B93ED137ADFED1C7AB4EEE77AF1EE10FA1ADC194B1B78E3B1164B93ED157A59
S32508008660DFED157AB4EEE77AF1EE10FA17DC134B1B78CBB108BD00210520FFF737FBDFE74C
S3250800868000210520FFF740FBDAE701210520FFF72DFBE2E701210520FFF736FBDDE7022111
S325080086A00520FFF723FBE5E702210520FFF72CFBE0E700BFB40F00200060EA4650120020C7
S325080086C010B5654B1B7813F0010F16D1624B1B7813F0100F57D1604B1B7813F0020F5AD183
S325080086E05D4B1B7813F0040F40F083805A4B1B7813F0080F40F0A08010BD0A230022022107
S32508008700564800F0E5FC60B100210220FFF7EEFA534B1B7853B9504A137803F0FE031370D1
S32508008720D4E700210220FFF7EFFAF1E74C4C21464C48FCF7F5FF6378E3B1A3786BB901222B
S325080087404FF48051484805F003F80123A37003F005FC6060022363730FE003F0FFFB404B2A
S325080087605A68801A9B68984207D93D4B01221A735A7302E03A4B00225A73002140F2427072
S32508008780FDF780F8C7E7FCF773FE334A137803F0EF0313709FE701F061FE01F085FE01F0A2
S325080087A0A9FE01F01DFF01F0CBFEFFF73BFF01F043FFFDF77FFA2D492A48FFF7BDFB0021B6
S325080087C04FF45170FDF75EF800214FF4A270FDF759F800214FF40170FDF754F800214FF409
S325080087E08270FDF74FF81C4A137803F0FD03137076E7FCF7C5FB00214FF45970FDF742F86C
S3250800880003214FF45970FDF73DF800214FF46170FDF738F8FCF7A4FE00214FF46970FDF7D2
S3250800882031F801214FF46970FDF72CF80A4A137803F0FB03137059E7002140F26640FDF72B
S3250800884021F800214FF47170FDF71CF8024A137803F0F70313704FE7080B0020D8070020F5
S3250800886010080020FC0A002000040240B40F002038B5044603685D6A5D4A1268934204D030
S325080088805C4A1268934222D038BD037F022BFBD101F0FCFA2268936A0133B0FBF3F307EE4B
S325080088A0903AF8EE677A9FED547A67EE877ADFED536A87EEA67ABCEEC77A17EE103A2B44A2
S325080088C093634F4A137843F001031370DCE7037F013B072BD8D801A252F823F0FD48000806
S325080088E03B4900088948000879490008894800088948000889480008B349000801F0C6FAFB
S325080089002268936A0133B0FBF3F307EE903AF8EE677A9FED3C7A67EE877ADFED386A87EEFC
S32508008920A67ABCEEC77A17EE103A2B445363344A137843F002031370A6E701F0A7FA22683D
S32508008940936A0133B0FBF3F307EE903AF8EE677A9FED2D7A67EE877ADFED286A87EEA67A45
S32508008960BCEEC77A17EE103A2B449363244A137843F00403137087E701F088FA2268936A2C
S325080089800133B0FBF3F307EE903AF8EE677ADFED1B6A67EEA67A87EEA67ABCEEC77A17EE33
S325080089A0103A2B44D363164A137843F0080313706AE701F06BFA2268936A0133B0FBF3F31B
S325080089C007EE903AF8EE677AB1EE047A67EE877ADFED0A6A87EEA67ABCEEC77A17EE103A81
S325080089E02B441364064A137843F0100313704BE7C0150020301500200000484200007A440B
S32508008A00080B002000009643000048434FF0000C10228C4514D210B410F80C3083EAD21323
S32508008A20DBB2094C34F9133083EA022292B20CF1010C8C45F0D3500080B25DF8044B704786
S32508008A40500080B2704700BF4829010838B505460C46FFF7DBFFC0F307232B55013428552D
S32508008A6038BD70B504460D468E1E3146FFF7CEFFA25D2C4414F8013C43EA0223984214BF94
S32508008A800020012070BD08B5034608461A0A0A704B700221FFF7DAFF08BDF0B585B008B361
S32508008AA00546FF238DF80F300026344616B1204605B0F0BD00222989686804F049FE012741
S32508008AC000973B460DF10F021146286806F09FF804463A462989686804F03AFE002CE6D192
S32508008AE03E44E3E70124E2E738B5044603F036FA0546E368C31A042B02D80020E56038BDFE
S32508008B002046FFF7CAFFF9E7F0B583B004460D461646FFF7E9FF074610B1384603B0F0BDA7
S32508008B2000222189606804F013FE0A230093B3B22A462946206806F06AF807460122218990
S32508008B40606804F005FEE8E7002866D0F0B585B0064601A90120FFF796FF0025042435B16C
S32508008B600C2201A93046FFF7CFFF05B0F0BD6A4202EB420106EB410101F1100091F810C009
S32508008B800CF0F8030CF0040E43EA0E035BB20CF0020E43EA0E030CF0010C43EA0C030DF1EA
S32508008BA0100CA4440CF80C3C91F811E0897C01F00F014EEA012C631C04A90B4403F80CEC04
S32508008BC04388C3F30B131901C9B204F1020E04AFBE4441EA1C210EF80C1CE11C1B09394465
S32508008BE001F80C3C8388211D394401F80C3C02EB420206EB4202517D01F0F001C3F303232D
S32508008C00621D0B433A4402F80C3C062101AB1819FFF71CFF08340135A1E701207047F0B52D
S32508008C2085B000287BD00646002305E004AA1A44FF2102F80C1C01330B2BF7D901A90220D6
S32508008C40FFF721FF0C2201A93046FFF75DFF074610B90025042415B1384605B0F0BD08211E
S32508008C6001AB1819FFF7FDFE002854D004AB234413F80C1C05EB450306EB430303F110020E
S32508008C80187C61F300001874C1F3400CC0B26CF341001874C1F3800CC0B26CF38200187495
S32508008CA0C908C0B261F3C7001874631C04A90B4413F80C1CA31C04A8034413F80C3C517048
S32508008CC003F00F00917821F00F0101439170E11C04A8014411F80C1C1B0943EA01135188B8
S32508008CE063F30F115180231D034413F80C1C631D034413F80C3C180200F470600143908811
S32508008D0061F30B0090801B09517963F307115171083401359FE7002FFAD10127F8E7012797
S32508008D209AE70000F0B587B000284ED08E4614460546002A4BD0274A6B4607CA83E807005F
S32508008D40002306E006AAD0184FF0FF0C00F80CCC01330B2BF6D906AB03EB4E0E03A93EF834
S32508008D60180CFFF790FE0C220DEB02012846FFF7CBFE064610B90025042715B1304607B08F
S32508008D80F0BD082103ABD819FFF76BFED8B906B9012608370135F0E707EB420306A91944EB
S32508008DA011F80C1C013306A8034413F80C0C05EB450304EB430341EA002123F812100132FF
S32508008DC0022AE9D9E5E72A46FAE70126D6E70126D4E700BF601A0108F0B587B000284FD04F
S32508008DE08E4614460546002A4CD001AB264A92E8030083E80300002306E006AAD0184FF0BF
S32508008E00FF0C00F80CCC01330B2BF6D906AB03EB4E0E03A93EF8140CFFF735FE0C220DEBE4
S32508008E2002012846FFF770FE064610B90025042715B1304607B0F0BD082103ABD819FFF78C
S32508008E4010FED8B906B9012608370135F0E707EB420306A9194411F80C1C013306A8034496
S32508008E6013F80C0C05EB450304EB430341EA002123F812100132022AE9D9E5E72A46FAE78D
S32508008E800126D6E70126D4E76C1A0108A0B110B582B00446C90141F4187141EA021201A96C
S32508008EA042EA0300FFF7EFFD04220DEB02012046FFF72AFE02B010BD01207047B8B110B569
S32508008EC082B00446D20142F40A7242EA811040EA031301A99DF810001843FFF7D4FD0422EF
S32508008EE00DEB02012046FFF70FFE02B010BD0120704788B110B582B00446C90141F48C6044
S32508008F0001A91043FFF7BFFD04220DEB02012046FFF7FAFD02B010BD01207047F0B110B563
S32508008F2082B00446002305E002AA1A44FF2102F8081C0133042BF7D9694640F21470FFF7C9
S32508008F40A2FD052269462046FFF7DEFD10B99DF804300BB102B010BD0220FBE701207047AE
S32508008F6010B500240CB1002010BD04EB440C4FEA0C1E01EB0C1CDCED007AF5EE407AF1EEDB
S32508008F8010FA30D08644DEED087AF5EE407AF1EE10FA2AD001230AE05A1F032A16D9DFEDB3
S32508008FA0157AB4EEE77AF1EE10FA20D401330B2B17D8022BF0D80CEB830292ED007A0EEB78
S32508008FC08302D2ED007A37EE677AE8E70CEB830292ED007A0EEB8302D2ED007A37EE677ABE
S32508008FE0DDE70134BEE70120BEE70120BCE70120BAE700BF0000C8C32DE9F04182B0089C12
S32508009000099D00285ED00746002C5DD01B78FFF73DFF064618B1304602B0BDE8F08102F096
S325080090209DFF80463846FFF779FF064628B102F095FFA0EB0800A842F4D3002EEBD1354680
S325080090402EE0022D23D0294600EB400202EB030C0DF1080E0EEB4C0C3CF808CC07EE90CA7E
S32508009060F8EE677A04EB021201EB410119449FED177A67EE877A02EB8102C2ED007A01334D
S32508009080022B08D8002DDCD0022DF8D1D9E70121DAE70346F4E701300028FAD00135EDB225
S325080090A0032DB8D800230093ADF804306A4629463846FFF737FE18B1002EEFD10126EDE7D9
S325080090C00020E9E70126A6E70126A4E7CDCCCC3D002866D02DE9F0439DB0884691460746A4
S325080090E06022002104A807F097FA00260125012E4ED8012E01D0002402E00025FBE70134A8
S32508009100012C0BD8002300934B46424629463846FFF7D4FE03460028F1D03EE0002423E036
S3250800912001EB410313441CA800EB430333F8683C07EE903AF8EE677A04EB440010449FED3D
S325080091401A7A67EE877A6B1803EB430300EB83001CAB03EB800040ED187A0132022ADFD9E7
S32508009160013181B10134E4B2032C0ED800230293ADF80C3002AA21463846FFF7D3FD034664
S3250800918058B90021EDE70A46E8E70136F6B2AEE710A904A8FFF7E4FE034618461DB0BDE8D2
S325080091A0F083012318467047CDCCCC3D002303708370704738B504461030FFF7F7FF00218F
S325080091C0084600F0E3FCA060432007F00FFA0546FFF7ECFF2946A06800F0E8FC002384F8EB
S325080091E05430012284F8532002226274E36038BD01460023184606E018B1013880B2002295
S325080092000A5401339BB23F2B10D801EB030CCA5C082AF1D01B2A06D00A549CF800202AB1F3
S32508009220013080B2EDE700230B5470477047000038B50D4600E001300378202BFBD033B133
S325080092400C4A0D4908F042FF286000200BE00B4B1B880380F4E7074A0749002008F036FF43
S3250800926045F824002046441CA4B255F82030002BF1D138BD0C0B0020482B010808260108FA
S3250800928008B58446DCF8000090F83D30DBB2202BF8D14FF4FA7392B206F092FE08BD08B5D3
S325080092A0C3681944806800F094FCB0FA80F0400908BD000070B592B0044690F85230412B61
S325080092C009D04FF0FF3511AA29462046FFF7E7FF18B912B070BD0125F5E7E3682B44E36009
S325080092E0002101913C2202A807F096F901AD2846FAF778FF03462918134A1068E8509388E9
S325080093008B802846FAF76EFF12AB18440F4B1A889B7820F8442C00F8423C119E314611F813
S32508009320022B284608F066F84322314604F1100007F064F92846FAF755FF642382B229461C
S32508009340206806F03DFEC4E74C2B01086C25010808B590F85230442B09D0037C402B05D0B3
S325080093605A1C0274C218927C6AB9037408BD037C002BFBD0013B03740A230522054900687A
S3250800938006F01EFEF2E70A2305220349006806F017FEEBE7542B01085C2B010870B5B2B050
S325080093A004460223437490F85220A2F14103DBB2012B08D9A2F14303DBB2012B06D9332A40
S325080093C007D032B070BDFFF775FFFAE7FFF7C0FFF7E7002502953C22294603A807F01CF97B
S325080093E012957C22294613A807F016F9257C0CE06E1CA3199B7C2544AB7402AD2846FAF76A
S32508009400F1FE0F4B1B882B52F5B204F112063046FAF7E8FE8542EBD9237C02AA00923344F5
S32508009420084A802112A807F089FF12A8FAF7DAFE642382B212A9206806F0C2FDC1E700BF55
S32508009440642B0108682B0108012380F8533070470379002B00F0D580F0B5B3B004467E2B0D
S3250800946026D01B2B22D00D2B24D00A2B39D0082B4DD0032B00F08780427C012A00F08B80ED
S32508009480002502953C22294603A807F0C5F812957C22294613A807F0BFF804F11206304636
S325080094A0FAF7A0FEC2B20132D2B288E00123437433B0F0BD037C5A1E0244927C0A2A09D0B9
S325080094C0012384F854300A2302224E49206806F077FDEDE7013BDBB20374034400229A74F5
S325080094E0EEE7027C531E03449B7C0D2BE0D1013AD2B20274024400239374012380F854308E
S325080095000A2302223F49006806F05AFDD0E7037C002BCDD0002502953C22294603A807F086
S325080095207BF812957C22294613A807F075F8257C013DEDB225740CE06E1CA3199B7C25440E
S32508009540AB7402AD2846FAF74DFE2F4B1B882B52F5B204F112063046FAF744FE8542EBD903
S32508009560237C02AA00923344284A802112A807F0E5FE12A8FAF736FE642382B212A9206805
S3250800958006F01EFD94E7012380F854300374204B1B8843828CE75B2B2BD080F852300023B6
S325080095A0437426E0551E63199B7C2244937402AF3846FAF717FE144B1B883B52EAB2237C6E
S325080095C09342EFD32179E218917402AA00923344104A802112A807F0B1FE237C01332374D3
S325080095E012A8FAF7FFFD642382B212A9206806F0E7FC237C402B7FF45BAF012384F8543034
S3250800960056E77047301D0108642B0108702B0108782B0108682B0108F0B5ADF5885D81B011
S32508009620054690F8533043B96B7C93B195F854409CB90DF5885D01B0F0BD002380F85330C6
S32508009640FFF706FF294651F8040B012206F02FFFEAE72846FFF7A2FEEBE7002785F85470E4
S3250800966005F112063046FFF7C3FD2874409740AA0121A86800F0ADFA40AA0121A86800F070
S32508009680A8FA012806D0409902313046FAF7A0FD00B93C462B7C03B114BB4FF48072002150
S325080096A0684606F0B9FF69463046FFF7C1FD0746254B409340F6FC72002141A806F0ACFF88
S325080096C0002495F86030A34224D9EB6DA60053F824100098FAF77CFDB0B10134A4B2F0E717
S325080096E0A86800F087FA4324224605F1100106F085FF204606F07AFF0446FFF757FD2146BB
S32508009700A86800F053FAC8E7AB6D9B5940AA69463846984705F11000FFF748FD0023EB608E
S3250800972040AC2046FAF75EFD2218084B19889B78215293702046FAF755FD82B221462868F2
S3250800974006F0AAFC75E700BF3F0D0A006C2501082DE9F04780460F4600240646A2460D4641
S32508009760A14602F0FBFB804574EB040302D2013E44F1000A874279EB040302D2013D49F10F
S325080097800009AE427AEB090334BF01200020BDE8F08738B50446054602F0E0FB844200D21A
S325080097A0651E281A38BD000000284AD038B52DED028B0D460446006800F068FB23681B68A5
S325080097C09B6A0133B0FBF3F307EE103AB8EE478A2846FFF7DEFF07EE100AB8EE477A27EE2F
S325080097E0087ADFED196AC7EE267AFCEEE77A17EE903A013B22681268B2F1804F0DD0134930
S325080098008A4207D04FF6FF71994209D20120BDEC028B38BD4FF0FF31F6E74FF0FF31F3E74B
S325080098200025556222681268D3622268D36023681B686FF001021A61206805F0C9FB2846AE
S32508009840E5E70120704700BF00007A44000C00402DE9F04F83B08346002837D08A4609B183
S3250800986000230B60DBF80C604FF000084FF0FF39CDF804801DE0D7F804900197013E01349A
S32508009880AEB1EB68A34212D92B6903EBC40713F83430002BF3D049467868FFF759FF0028A9
S325080098A0ECD0BAF1000FE6D0CAF80050E3E708F1010866B1DBF81830434508D9DBF81C50B6
S325080098C008EB880305EB83050024D9E70190019803B0BDE8F08FD8B130B583B00446002391
S325080098E0019301A9FFF7B4FF054648B141682046FFF75AFF70B9019B2361656103B030BD22
S32508009900002525616561206805F0A6FB2846F5E7012070470120F1E7002847D02DE9F84FF3
S325080099200C461546074683698B4241D9D0F81C8001EB81064FEA860A08EB8606F3689342FD
S3250800994039D9D6F8109009EBC20B19F832300BB100202EE002F002FBB3681844CBF804002E
S325080099607B690BB11A78DAB9DBF804103846FFF71BFF10BB3E61C7F814B0012309F8353028
S32508009980FB680133FB6058F80A3013B12946204698477B689BB1294620469847002008E0DA
S325080099A05968FFF7D5FE0028E7D0DDE7012070470120BDE8F88F0120FBE70120F9E7002023
S325080099C0F7E788B32DE9F8430C461546064683698B422BD9C76901EB81034FEA830907EB02
S325080099E08303DA68AA4224D9D3F8108008EBC50218F83530FBB14369934202D0FFF76BFFBF
S32508009A00D8B9002308F83530F368013BF36057F8093013B129462046984773687BB12946BF
S32508009A2020469847002002E0012070470120BDE8F8830120FBE70020F9E70120F7E7002096
S32508009A40F5E708B1C0687047002070472DE9F04168B3044669B303688B4203D00025284647
S32508009A60BDE8F081076946692FB336B333780BB90025F4E700233370FFF72DFF0546F0B98D
S32508009A80E369A7EB03084FEAA8080E4B03FB08F83B69F61AF6107B6813B131464046984752
S32508009AA0A368002BDBD0314640469847D7E70125D5E70125D3E70025D1E70025CFE701257D
S32508009AC0CDE700BFCDCCCCCC79B138B504460D460C2006F08BFD0346206040B10020186024
S32508009AE02368986023685D6038BD042070470520FAE7E8B130B583B00C4611460546CAB197
S32508009B000023019301A8FFF7DFFF68B92268019B1A60019B23609C60EA68A24206D01A6899
S32508009B2093602B6801332B6003B030BDEB60F8E7042070470420F7E720B3034622B310B476
S32508009B400068B1EB500F0FD8DC68002301E0A4680133984204D98B42F9D11460002000E063
S32508009B6001205DF8044B70471C69431E01E02468013B984204D98B42F9D114600020F0E713
S32508009B800120EEE7042070470420704738B504460D46142006F02AFD034628B18560446085
S32508009BA000220260C2600261184638BD10B5044603684BB90C30FFF787FF48B9E368236135
S32508009BC023680133236003E00A46C168FFF791FF10BD10B582B0144601AAFFF7ADFF10B91F
S32508009BE0019B5B68236002B010BD08B1006870470020704710B5044620B1FFF7F6FF10B1BB
S32508009C00E368586810BD0020FCE7B4EEE00AF1EE10FA07DA80ED0B0AC0ED0C0A90F83930CF
S32508009C20012B00D07047D0ED027AF4EEC07AF1EE10FA07D4F4EEE07AF1EE10FA04DDF0EE66
S32508009C40607A01E0F0EE407AC0ED027AD0ED097AF4EEC07AF1EE10FA06D4F4EEE07AF1EE40
S32508009C6010FA04DDB0EE600A80ED090ADAE7B0EE670AF9E7B5EEC00AF1EE10FA1FD4F5EE87
S32508009C80C00AF1EE10FA1AD4B5EEC01AF1EE10FA15D480ED030AC0ED040A80ED051A80ED98
S32508009CA0060A90ED0A7A67EE200AC0ED070AC1EE077AC0ED087A90F83830012B00D0704746
S32508009CC0B1EE400A80ED060AF1EE600AC0ED070AF1EE677AC0ED087AF1E710B52DED048BD4
S32508009CE00446B0EE408AF0EE608AB0EE419AB0EE420AF0EE620A80F8382080F8391000237B
S32508009D0043620360436083604363F5EEC01AF1EE10FA10DDC0ED0A1A2046FFF776FFB0EE2E
S32508009D20491AF0EE680AB0EE480A2046FFF7A2FFBDEC048B10BD4FF07E538362ECE70000A8
S32508009D4010B52DED028B0446B0EE408A00F09EF82268936A0133B0FBF3F307EE903AF8EE60
S32508009D60677A67EE887ADFED0F8A87EEA87ABCEEC77A82ED0B7A204600F088F823689B6A5C
S32508009D800133B0FBF3F007EE900AF8EE677A27EE880AC0EE287AFCEEE77AC4ED037ABDEC84
S32508009DA0028B10BD00007A44B5EEC00AF1EE10FA22D4F7EE007AB4EEE70AF1EE10FA1BDC5F
S32508009DC059B90368D3ED0B7AF8EE677A27EE800ABCEEC00A83ED0D0A704704290DD0082960
S32508009DE017D00368D3ED0B7AF8EE677A27EE800ABCEEC00A83ED100A70470368D3ED0B7AF3
S32508009E00F8EE677A27EE800ABCEEC00A83ED0E0A70470368D3ED0B7AF8EE677A27EE800A05
S32508009E20BCEEC00A83ED0F0A704700002DE9F04106460D4617469DF818800B4C4FEA480216
S32508009E40194604F10A0006F0D9FB84F80880002323606560A7770123E3772946304605F0E7
S32508009E609BFDBDE8F08100BF100B002008B505F093FD08BD08B5044BDB7F13B1024B00228C
S32508009E80DA7705F02FFE08BD100B002010B586B00446694601A804F0C3FA2268064B9A423C
S32508009EA006D8049C04F09CFA04B1400006B010BD059C04F0A5FAF7E7FFFF004030B585B0AA
S32508009EC0ADF80C00154B1B884EF6602595FBF3F59DF80C30242B19D00C4601220092104A15
S32508009EE002EB4303002211462046FFF79FFF9DF80D0005FB00F002F037F800212046FFF77E
S32508009F00B9FF142002F030F805B030BD9DF80D0005FB00F002F028F8F3E700BF32020020FA
S32508009F20E802002038B50546094B09E01C4614F8022B5878294642EA0020FFF7BFFF234651
S32508009F401A78252AF2D100212846FFF793FF38BD3402002018B9054B01221A72704704283A
S32508009F6000D07047014B01225A72FAE7300B002018B9054B00221A727047042800D070479C
S32508009F80014B00225A72FAE7300B002008B568B90F4A82ED000AB5EE400AF1EE10FA02D1E4
S32508009FA0FFF7E6FF04E0FFF7D5FF01E0042800D008BD074A82ED010AB5EE400AF1EE10FAC7
S32508009FC002D1FFF7D5FFF3E7FFF7C4FFF0E700BF300B002070B506460D461446FFF746FFF9
S32508009FE021463046FFF742FF0F4BD3ED007AF5EE407AF1EE10FA0ED12846FFF7B9FF0A4BD5
S3250800A000D3ED017AF5EE407AF1EE10FA07D12046FFF7AEFF70BD2846FFF79CFFEFE7204628
S3250800A020FFF798FFF6E700BF300B002010B50F4C9FED0F0A2046FFF783FEB7EE000A00211C
S3250800A0402046FFF7B1FEB7EE000A04212046FFF7ABFE042200212046FFF7BCFF054B00223E
S3250800A0601A605A6001229A7210BD00BF781500200AD7233D300B002010B52DED028B0C46DC
S3250800A080B0EE408AF7EE007AB4EEE70AF1EE10FA0CD9B7EE000A2146FFF786FEB0EE480A0A
S3250800A0A02046FFF773FFBDEC028B10BD37EEC80AF1E7000008B5024804F08AFF08BD00BFEA
S3250800A0C0E8140020054B00221A70012159709A72DA705A719A701A71704700BFA80F00206C
S3250800A0E00F281FD8DFE800F02120080A0C0E211012211416181A1C21042070470C20704745
S3250800A100022070470A2070470E20704701207047052070470D207047032070470B2070473E
S3250800A12007207047FF2070470820704738B504460F4D00F001024FF48051284603F008FB80
S3250800A140C4F340024FF40061284603F001FB05F50065C4F380024FF48071284603F0F8FAD8
S3250800A160C4F3C0028021284603F0F2FA38BD00BF0000024008B50020FFF7D8FF08BD000005
S3250800A180454B1B78002B00F0858010B5424B9B7A072B13D840498A78404B03EB0213C87891
S3250800A1A03F4C248823F8104001323E4B83FB0203DB1003EB83039800131A8B70364A92F887
S3250800A1C004C036480CF10A0300EB43135179344CB4F802E023F811E00CF1010C314B83FBFC
S3250800A1E00CE1C91001EB81014FEA810EACEB0E01117192F806C0B4F804E00CF5F07120F8D3
S3250800A20011E00CF1010C83FB0CE1C91001EB81014FEA810EACEB0E01917192F807C0B4F816
S3250800A22006E00CF5FA7120F811E00CF1010C83FB0CE1C91001EB81014FEA810EACEB0E018B
S3250800A240D17192F808C0B4F808E00CF5027120F811E00CF1010C83FB0CE1C91001EB81018F
S3250800A2604FEA810EACEB0E011172517AB4F80AC001F5077420F814C0013183FB0103DB10A2
S3250800A28003EB830398000B1A5372002313700123537010BD704700BFA80F0020480B0020A0
S3250800A2A03C0B00206766666603680E4A1268934204D00D4A1268934210D070470B4A0120F7
S3250800A2C01070917801440A4B83FB01C3DB1003EB8303A1EB8303937050707047054B0022AE
S3250800A2E01A70EAE76C10002024100020A80F0020676666663003002003685B6803F040736E
S3250800A300022B07D0042B07D0012B01D00C2070470A207047082070470620704708B5FFF7F5
S3250800A320EBFF012303FA00F0013808BD08B52DED028B08EE101AFFF7F1FF07EE900AF8EE37
S3250800A340677A9FED057A87EE270AB8EE488A28EE000ABDEC028B08BD00404E4510B5ADF590
S3250800A360FA6D4FF4FA620021684606F055F90021264805F049FA4FF47A726946244801F0B4
S3250800A380CDFE244B1B78002BFBD100211F4805F0BDFA00231846194609E05A003DF82340FC
S3250800A3A0204401323DF81220114401339BB2B3F5FA7FF2D3184BA3FB0121A3FB0030440997
S3250800A3C049091348FFF7B2FF144B5B8D07EE103AB8EE477A07EE904AF8EE677AC7EE276A52
S3250800A3E060EE267AFCEEE77A17EE903A9BB20C4A1380A3F61C439BB2C82B02D80DF5FA6D96
S3250800A40010BD00210F20FDF771FCF7E7A01400202410002030030020D34D6210007AFF1F2D
S3250800A4208011002008B52DED028B08EE101A0A4B1B8808EE903AF8EE688AFFF76FFF07EEF0
S3250800A440900AF8EE677A88EEA70AB8EE488A28EE000ABDEC028B08BD8011002008B5002342
S3250800A460194607E003F5FA700B4A32F8102011440133DBB2132BF5D9084BA3FB0131090920
S3250800A4800748FFF7CFFFF2EE027A20EE270A054B83ED190A08BD00BF480B0020CDCCCCCCF5
S3250800A4A06C100020B40F002008B50023194607E003F502700B4A32F8102011440133DBB2BA
S3250800A4C0132BF5D9084BA3FB013109090748FFF7A9FFF2EE027A20EE270A054B83ED1A0AC1
S3250800A4E008BD00BF480B0020CDCCCCCC6C100020B40F002008B50023194607E003F5F07029
S3250800A5000B4A32F8102011440133DBB2132BF5D9084BA3FB013109090748FFF783FFF2EE80
