:020000040800F2
:1000000000000820A1390008F9380008FB38000872
:10001000FD380008FF380008013900080000000022
:10002000000000000000000000000000033900088C
:1000300005390008000000000739000809390008E8
:10004000F1390008F1390008F1390008F1390008E8
:10005000F1390008F1390008F1390008F1390008D8
:10006000F1390008F1390008F1390008F1390008C8
:10007000F1390008F1390008F1390008F1390008B8
:10008000F1390008F1390008F1390008F1390008A8
:10009000113900082139000831390008F139000808
:1000A000F1390008F1390008F1390008F139000888
:1000B000F1390008F1390008F1390008F139000878
:1000C000F1390008F1390008F1390008F139000868
:1000D000F1390008F1390008F1390008F139000858
:1000E000F1390008F1390008F1390008F139000848
:1000F000F1390008F1390008F1390008F139000838
:10010000F1390008F1390008F1390008F139000827
:10011000F1390008F1390008F1390008F139000817
:1001200041390008F1390008F1390008F1390008B7
:10013000F1390008F1390008F1390008F1390008F7
:10014000F1390008F1390008F1390008F1390008E7
:10015000F1390008F1390008F1390008F1390008D7
:10016000F1390008F1390008F1390008F1390008C7
:10017000F1390008F1390008F139000800000000E9
:10018000F1390008F1390008F1390008F1390008A7
:10019000F1390008F1390008F1390008F139000897
:1001A000F1390008F1390008F1390008F139000887
:1001B000F1390008F1390008F1390008F139000877
:1001C000F1390008F139000800000000F139000899
:1001D000F1390008F1390008F1390008F139000857
:1001E000F1390008F1390008F1390008F139000847
:0801F000F1390008F1390008A3
:1001F800044B05481B1A062B02D9044B03B11847B8
:10020800704700BF3F0400203C04002000000000AD
:1002180005490648091A891001EBD171491002D025
:10022800034B03B1184770473C0400203C040020EE
:100238000000000010B5064C237843B9FFF7D8FF3B
:10024800044B13B10448AFF300800123237010BDA1
:100258003C04002000000000083A000808B5084BDC
:100268001BB108490848AFF300800848036813B970
:10027800BDE80840CCE7064B002BF9D09847F7E7D4
:100288000000000040040020083A00083C04002058
:1002980000000000002301461A46184600F090B8F6
:1002A80038B50A4C0A4D641BA4100AD004F18043E7
:1002B800013B05EB8305013C55F804399847002CB0
:1002C800F9D1BDE8384003F0A1BB00BF5C3A000893
:1002D800583A000870B50F4E0F4D761BB61018BF70
:1002E800002405D0013455F8043B9847A642F9D1BB
:1002F8000A4E0B4D761B03F083FBB61018BF002483
:1003080006D0013455F8043B9847A642F9D170BD90
:1003180070BD00BF503A0008503A0008583A00082B
:10032800503A000870B4860746D0541E002A41D0BF
:10033800CAB2034602E014F1FF343BD303F8012BA1
:100348009D07F8D1032C2ED9CDB245EA05250F2CEF
:1003580045EA054519D903F110022646103E0F2E2D
:1003680042F8105C42F80C5C42F8085C42F8045C05
:1003780002F11002F2D8A4F1100222F00F0204F0E8
:100388000F041032032C13440DD91E462246043A9A
:10039800032A46F8045BFAD8221F22F0030204322B
:1003A800134404F003042CB1C9B21C4403F8011B24
:1003B8009C42FBD170BC704714460346C2E700BF9D
:1003C8002DE9F047254C2568D5F84841064688466A
:1003D80092469946C4B360681F2817DC431C76B15F
:1003E80004EB80050122C5F888A0D4F88811824062
:1003F8001143022EC4F88811C5F808911ED00230A6
:10040800636044F820800020BDE8F087144B03B3F4
:100418004FF4C870AFF300800446D0B1D5F8483126
:10042800002780E88800C5F8484138460123C4F809
:100438008871C4F88C71002EE1D0D1E7D4F88C1102
:100448000A43C4F88C21DAE705F5A674C5F84841D3
:10045800C1E74FF0FF30BDE8F08700BF203A000841
:100468000000000053B94AB9002908BF00281CBF82
:100478004FF0FF314FF0FF3000F07AB9ADF1080CC2
:100488006DE904CE00F006F8DDF804E0DDE90223AA
:1004980004B070472DE9F0478C460D460446089E87
:1004A800002B51D18A4217466DD9B2FA82FEBEF1AD
:1004B800000F0BD0CEF1200C01FA0EF520FA0CFC3F
:1004C80002FA0EF74CEA050C00FA0EF44FEA174A46
:1004D800250CBCFBFAF81FFA87F90AFB18CC45EA89
:1004E8000C4508FB09F3AB420AD9ED1908F1FF32B4
:1004F80080F02381AB4240F22081A8F102083D44FC
:10050800ED1AA4B2B5FBFAF00AFB105544EA05440B
:1005180000FB09F9A14509D9E41900F1FF3380F07E
:100528000A81A14540F2078102383C44A4EB090442
:1005380040EA08400021002E61D024FA0EF400237E
:1005480034607360BDE8F0878B4207D9002E54D021
:10055800002186E821000846BDE8F087B3FA83F158
:10056800002940F08E80AB4202D3824200F2FA802A
:10057800841A65EB03050120AC46002E3FD086E8BF
:100588001010BDE8F08712B90127B7FBF2F7B7FAE8
:1005980087FEBEF1000F34D1EB1B3A0C1FFA87FC23
:1005A8000121B3FBF2F8250C02FB183345EA034599
:1005B8000CFB08F3AB4207D9ED1908F1FF3002D262
:1005C800AB4200F2D1808046ED1AA3B2B5FBF2F03F
:1005D80002FB105543EA05440CFB00FCA44507D96F
:1005E800E41900F1FF3302D2A44500F2B88018469E
:1005F800A4EB0C0440EA08409DE731463046BDE8CC
:10060800F087CEF1200405FA0EF307FA0EF720FA68
:1006180004F83A0C25FA04F448EA0308B4FBF2F1AA
:100628004FEA184502FB11441FFA87FC45EA0445C6
:1006380001FB0CF3AB4200FA0EF409D9ED1901F1F4
:10064800FF3080F08A80AB4240F2878002393D4417
:10065800EB1A1FFA88F5B3FBF2F002FB103345EAF8
:10066800034500FB0CF3AB4207D9ED1900F1FF3845
:100678006FD2AB426DD902383D44EB1A40EA0141D2
:100688008FE7C1F1200722FA07F88B4005FA01F439
:1006980048EA030320FA07FE4FEA134CFD404EEAEE
:1006A800040EB5FBFCF94FEA1E440CFB19551FFA62
:1006B80083F844EA054509FB08F4AC4202FA01F262
:1006C80000FA01FA08D9ED1809F1FF3043D2AC421B
:1006D80041D9A9F102091D442D1B1FFA8EFEB5FB55
:1006E800FCF00CFB10554EEA054400FB08F8A04549
:1006F80007D9E41800F1FF3529D2A04527D90238D7
:100708001C4440EA0940A4EB0804A0FB02894C45BC
:10071800C6464D4615D312D056B1BAEB0E0364EB5C
:10072800050404FA07F7CB401F43CC4037607460D8
:100738000021BDE8F0871846F8E69046E0E6C24595
:10074800EAD2B8EB020E69EB03050138E4E7284664
:10075800D7E7404691E78146BEE7014678E7023889
:100768003C4445E7084608E7A8F102083D442BE762
:10077800704700BF10B504460E4B18784FF47A73D3
:10078800B3FBF0F30C4A1068B0FBF3F000F088FDFF
:1007980068B90F2C01D9012010BD002221464FF065
:1007A800FF3000F03FFD054B1C60002010BD01200C
:1007B80010BD00BF3004002038040020340400209D
:1007C80008B5032000F01CFD0020FFF7D3FF02F05E
:1007D8002FFF002008BD0000034A1168034B1B7857
:1007E8000B441360704700BF5804002030040020F9
:1007F800014B1868704700BF580400204A4B5A68DC
:1008080022F440325A605A6841680A435A600268C2
:10081800536823F48073536002685368016943EA9C
:10082800012353600268536823F0407353600268E1
:10083800536881680B4353600268936823F400632C
:10084800936002689368C1680B439360826A374B70
:100858009A424BD00268936823F0706393600268F1
:100868009368816A0B4393600268936823F040534E
:10087800936002689368C16A0B4393600268936847
:1008880023F00203936002689368816943EA410395
:10089800936090F82030002B33D10268536823F41A
:1008A800006353600268D36A23F47003D36201685B
:1008B800CB6AC269013A43EA0253CB620268936881
:1008C80023F4007393600268936890F8301043EA49
:1008D800412393600268936823F4806393600268FD
:1008E8009368416943EA812393607047026893687B
:1008F80023F0706393600268936823F04053936019
:10090800BCE70268536843F40063536002685368A5
:1009180023F46043536001684B68426A013A43EA32
:1009280042334B60BEE700BF002301400100000FC7
:1009380028B310B50446036C43B1236C13F0100FB1
:100948000BD00120002384F83C3010BD02F088FE53
:100958000023636484F83C30EFE7226C094B1340B2
:1009680043F0020323642046FFF748FF0020606439
:10097800236C23F0030343F001032364E2E701201F
:10098800704700BFFDEEFFFF30B482B00023019333
:1009980090F83C30012B00F0C080012380F83C30F7
:1009A8000B68092B22D90568EA689BB203EB43035D
:1009B8001E3B072404FA03F322EA0303EB600B68E7
:1009C800574A93420BD00568EA688C689BB203EBE0
:1009D80043031E3B04FA03F31343EB601BE0026876
:1009E800D3688C6843EA0463D36014E005682A6915
:1009F8009BB203EB4303072404FA03F322EA03033D
:100A08002B6105682A698C680B8803EB430304FA99
:100A180003F313432B614B68062B24D805686A6BD4
:100A280003EB8303053B1F2404FA03F322EA0303C1
:100A38006B6305686A6B4B6803EB8303053B0C88A3
:100A480004FA03F313436B630268364B9A423AD0B5
:100A58000268344B9A423FD0002380F83C30184655
:100A680002B030BC70470C2B16D805682A6B03EB14
:100A78008303233B1F2404FA03F322EA03032B63B3
:100A880005682A6B4B6803EB8303233B0C8804FA45
:100A980003F313432B63D7E70568EA6A03EB830381
:100AA800413B1F2404FA03F322EA0303EB620568BF
:100AB800EA6A4B6803EB8303413B0C8804FA03F3AF
:100AC8001343EB62C0E70B68122BC1D1164A536877
:100AD80043F480035360BBE70B68114A112B18BF1E
:100AE8009342B9D1104A536843F4000353600A682B
:100AF8000B4B9A42B0D10D4B1B680D4AA2FB032346
:100B08009B0C03EB83035A00019202E0019B013B1B
:100B18000193019B002BF9D19EE70220A0E700BFBB
:100B2800120000100020014000230140380400207A
:100B380083DE1B43002800F0A18038B5044690F8F6
:100B48002030D3B12268136823F002031360FFF743
:100B58004FFE054623685A6812F0020F10D0FFF7BF
:100B680047FE401B0A28F5D9636A43F400336362E1
:100B7800052384F82030012038BD02F0C3FDE1E7E9
:100B88001A6842F001021A60FFF732FE0546236830
:100B98005A6812F0010F0DD1FFF72AFE401B0A28F0
:100BA800F5D9636A43F400336362052384F820307F
:100BB800012038BD227E012A3DD01A6822F0800229
:100BC8001A60637E012B3BD02268136823F0400330
:100BD8001360A37E012B39D02268136823F0200309
:100BE8001360E37E012B37D02268136843F01003AB
:100BF8001360237F012B35D02268136823F0080384
:100C08001360637F012B33D02268136823F0040339
:100C180013602168A368E268134322691343626979
:100C280013436268013A1343CB61002060620123D9
:100C380084F8203038BD1A6842F080021A60C0E794
:100C48002268136843F040031360C2E72268136800
:100C580043F020031360C4E72268136823F01003ED
:100C68001360C6E72268136843F008031360C8E7F7
:100C78002268136843F004031360CAE70120704731
:100C8800026890F82030013BDBB2012B05D9436A9A
:100C980043F4802343620120704770B4434B9A4267
:100CA80000D0434AD2F8003243F00103C2F80032C0
:100CB8003F4B9A4242D04B6903F01F03012000FAD0
:100CC80003F3D2F81C42D8430440C2F81C42CC6952
:100CD800ACB9D2F80C420440C2F80C424C69CE6858
:100CE8008D8845EA0645483442F834504C698E6888
:100CF8000D8845EA0645483402EBC4046560CC69B2
:100D0800012C29D08C69002C3DD1D2F80442044032
:100D1800C2F804420C69002C3BD1D2F8144220409E
:100D2800C2F81402096A012939D0D2F8003223F036
:100D38000103C2F80032002070BC7047D2F80032BC
:100D480023F47C53C2F80032D2F80032486A43EAEE
:100D58000023C2F80032AEE7D2F80C421C43C2F8B6
:100D68000C424C690E688D8845EA0645483442F8BD
:100D780034504C698E688D8945EA0645483402EB43
:100D8800C4046560BEE7D2F804421C43C2F80442BA
:100D9800C0E7D2F814021843C2F81402C2E7D2F826
:100DA8001C120B43C2F81C32BFE700BF00340040DE
:100DB8000064004038B590F82030DBB2012B05D034
:100DC800436A43F400234362012038BD04460223EA
:100DD80080F820300268136823F001031360FFF7DE
:100DE80007FD054623685B6813F0010F0DD0FFF778
:100DF800FFFC401B0A28F5D9636A43F40033636299
:100E0800052384F82030012038BD0020606238BDF9
:100E180030B490F82040013CE4B2012C06D9436A72
:100E280043F480234362012030BC704700296FD10E
:100E38000468E46814F0030F64D0056801F11B042A
:100E480024012C5904F004049460002C6BD105682B
:100E580001F11B0424012C59640D1460056801F18B
:100E68001B0424012D59C5F34005D56005682544A8
:100E78006D6805F00F051561056825446D68C5F3B3
:100E88000725956105682C446468240C546104683E
:100E98000A011444D4F8B8411C7004681444D4F806
:100EA800B841C4F307245C7004681444D4F8B8410A
:100EB800C4F307449C7004681444D4F8B841240E61
:100EC800DC7004681444D4F8BC411C7104681444F0
:100ED800D4F8BC41C4F307245C7104681444D4F802
:100EE800BC41C4F307449C7104682244D2F8BC2175
:100EF800120EDA71F9B90268D36843F02003D3609F
:100F0800002091E7436A43F40013436201208BE712
:100F18000468246914F0030F8FD1436A43F4001363
:100F28004362012080E7056801F11B0424012C5964
:100F3800E408546092E70268136943F020031361E0
:100F4800002071E790F82030013BDBB2012B01D97A
:100F58000020704721B10368186900F0030070474A
:100F68000368D86800F00300704790F82030013B10
:100F7800DBB2012B05D9436A43F480234362012085
:100F880070470268536919435161002070477047E0
:100F98007047704770477047704770477047704791
:100FA8007047704770472DE9F84F054603685C693C
:100FB8005F689E68D3F80C90D3F81080D3F818A017
:100FC80014F0010F5AD016F0010F17D001229A60C1
:100FD80016F0020F08D116F0040F30D116F0080FE2
:100FE80007D04FF4805B0BE0FFF7D1FF4FF0000B09
:100FF80006E0FFF7CFFF4FF0000B01E04FF0000BCA
:1010080016F4807F0BD02B684FF480729A6016F428
:10101800007F17D116F4806F18D04BF4005B16F4DC
:10102800803F2DD02B684FF480329A6016F4003F31
:1010380016D116F4802F17D04BF4004B20E04FF454
:10104800006BDDE72846FFF7A3FFE8E716F4006F1B
:1010580002D04BF4804BE2E72846FFF79CFFDEE71F
:101068002846FFF796FF0BE016F4002F02D04BF44A
:10107800803B05E02846FFF78FFF01E04FF0000BAB
:1010880014F0080F07D019F0100F04D04BF4007BB0
:101098002B681022DA6014F0040F02D019F0080F40
:1010A80060D114F0020F04D02B68DB6813F0030F33
:1010B8005FD114F0400F07D018F0100F04D04BF494
:1010C800806B2B6810221A6114F0200F02D018F0E0
:1010D800080F52D114F0100F04D02B681B6913F0BD
:1010E800030F51D114F4003F02D017F0100F4FD165
:1010F80014F4803F02D017F0080F50D114F4004FB9
:1011080067D017F0040F61D014F4807F04D01AF070
:10111800010F01D04BF0010B14F4007F04D01AF03A
:10112800020F01D04BF0020B14F4806F04D01AF0B8
:10113800040F01D04BF0040B14F4006F46D01AF0E2
:10114800700A43D0BAF1300F48D02FD9BAF1500FF6
:1011580047D0BAF1600F47D0BAF1400F31D14BF008
:10116800400B2EE02B680822DA602846FFF715FFAF
:1011780097E7284602F0D6F99BE72B6808221A6100
:101188002846FFF70CFFA5E72846FFF707FFA9E762
:101198002B6810225A602846FFF702FFA8E72B6841
:1011A80008225A602846FFF7FCFEA7E7BAF1100F9D
:1011B80005D0BAF1200F04D14BF0100B01E04BF031
:1011C800080B2A68936923F0700393612B68042243
:1011D8005A60BBF1000F0AD1BDE8F88F4BF0200B25
:1011E800EFE74BF0800BECE74BF4807BE9E76B6AA9
:1011F8004BEA03036B622846FFF7D4FEECE70000D6
:101208000649CB6823F4E0631B041B0C000200F4BE
:10121800E0600343024A1A43CA60704700ED00E0E9
:101228000000FA0530B4144BDB68C3F30223C3F1A2
:101238000704042C28BF04241D1D062D13D9033BC5
:10124800012505FA04F4013C2140994005FA03F30D
:10125800013B13401943002807DB0901C9B2074BBA
:10126800195430BC70470023EAE700F00F00090169
:10127800C9B2034B1954F4E700ED00E000E400E0C4
:1012880014ED00E0002808DB420900F01F000123EC
:1012980003FA00F0014B43F82200704700E100E038
:1012A8000138B0F1807F0AD2064B5860F021064A17
:1012B80082F823100020986007221A6070470120E6
:1012C800704700BF10E000E000ED00E00268D3B214
:1012D800103B0949A1FB03131B090849C95CC165F7
:1012E800032B04D8064B13408365806D7047044B6D
:1012F800134004338365F8E7ABAAAAAA243A000886
:1013080000FCFFFF836A826992B9012B0AD01BB1E6
:10131800022B01D000207047C36A13F0807F2CD1C4
:1013280000207047C36AB3F1C07F28D000207047FF
:10133800B2F5005F05D0022B29D9032B15D0002068
:101348007047032B03D8DFE803F01C041C0A0020B5
:101358007047C36A13F0807F15D100207047C36AB5
:10136800B3F1C07F11D000207047C36A13F0807FAB
:1013780001D00120704700207047012070470120EC
:1013880070470120704701207047012070470120F5
:101398007047000070B50446FFF72AFA002C5DD0AC
:1013A8000546002384F83430022384F83530226857
:1013B800136823F00103136023681A6812F0010F01
:1013C8000AD0FFF715FA401B0528F5D920236365D5
:1013D800032084F8350070BD1A68214911406268FD
:1013E800A0680243E068024320690243606902433F
:1013F800A0690243E0690243206A02430A43616A22
:10140800042916D01A602668756925F00705636AED
:101418001D43042B12D075612046FFF757FFE26D7C
:101428003F239340836000206065012384F83530B2
:1014380070BDE16A206B01430A43E3E7A36A1D43D9
:10144800E36A002BE7D02046FFF75CFF0028E2D0D4
:1014580040236365012084F8350070BD012070BD0C
:101468003F8010E0F0B583B0044600230193724B2F
:101478001D68724BA3FB0535AD0A876D3E68C26DCA
:10148800082393401E4210D003681A6812F0040F14
:101498000BD01A6822F004021A60C26D0823934028
:1014A800BB60436D43F001034365E26D0123934044
:1014B8001E4209D02268526912F0800F04D0BB6026
:1014C800636D43F002036365E26D042393401E429B
:1014D80009D02268126812F0020F04D0BB60636D55
:1014E80043F004036365E26D102393401E4224D049
:1014F8002268126812F0080F1FD0BB6023681A68B0
:1015080012F4802F0DD01B6813F4002F04D1236C24
:101518009BB12046984710E0A36C73B120469847CA
:101528000BE01A6812F4807F03D11A6822F00802CF
:101538001A60236C0BB120469847E26D2023934034
:101548001E4255D02268126812F0100F50D0BB60AE
:1015580094F83530DBB2052B0ED023681A6812F4E4
:10156800802F33D01B6813F4002F2AD1636C002B13
:101578003ED0204698473BE02268136823F01603C4
:1015880013602268536923F080035361236CA3B16D
:101598002268136823F008031360E26D3F23934029
:1015A800BB60002384F83430012384F83530236D80
:1015B800002B3FD0204698473CE0A36C002BE7D196
:1015C800EBE7E36BA3B12046984711E01A6812F4E1
:1015D800807F09D11A6822F010021A60002384F86B
:1015E8003430012384F83530E36B0BB1204698473B
:1015F800636DFBB1636D13F0010F17D0052384F8F9
:1016080035302268136823F001031360019B01330E
:1016180001939D4204D323681B6813F0010FF5D191
:10162800002384F83430012384F83530E36C0BB19F
:101638002046984703B0F0BD38040020B5814E1B02
:10164800F0B583B0002437E0092600E0002606FA4A
:101658000EF6324302336C4E46F823206B4B1A6861
:10166800EB4302EA03064F6817F4803F01D045EACE
:101678000206664A1660526803EA02064F6817F4C3
:10168800003F01D045EA0206604A5660926803EAC4
:1016980002064F6817F4801F01D045EA02065B4A2C
:1016A8009660D26813404E6816F4001F01D045EAD0
:1016B8000203564AD36001340F2C00F2A3800123A1
:1016C800A3400A6803EA0205AB42F4D14A68122A29
:1016D80018BF022A12D14FEAD40E0EF1080E50F8A4
:1016E8002E2004F00706B6000F27B74022EA0702AB
:1016F8000F6907FA06F6324340F82E2006684FEACB
:10170800440E032202FA0EF2D24316404F6807F045
:10171800030707FA0EF73E4306604E68771E112E40
:1017280018BF012F01D9122E0FD186681640CF6835
:1017380007FA0EF73E438660466826EA03034E68BA
:10174800C6F30016A64033434360C3681A408B684B
:1017580003FA0EF31A43C2604B6813F0805FAAD0F5
:101768002B4B5A6C42F480425A645B6C03F48043FE
:101778000193019BA3089E1C234A52F8262004F0DB
:1017880003064FEA860E0F2606FA0EF622EA06022E
:10179800204FB8423FF45AAF1F4EB04222D006F550
:1017A8008066B04220D006F58066B0421ED006F5AD
:1017B8008066B0421CD006F58066B0421AD006F5A5
:1017C8008066B04218D006F58066B04216D006F59D
:1017D8008066B04214D006F58066B0423FF434AF5C
:1017E8000A2634E7012632E7022630E703262EE7E9
:1017F80004262CE705262AE7062628E7072626E7F3
:10180800082624E703B0F0BD00380140003C014041
:1018180000380240000002400004024012B90904E6
:10182800816170478161704710B582B01B4B1A6C9B
:1018380042F080521A641B6C03F080530193019BA1
:10184800174A136843F480331360FEF7D1FF044648
:10185800134B5B6813F4803F08D1FEF7C9FF001BE8
:10186800B0F57A7FF4D9032002B010BD0C4A136892
:1018780043F400331360FEF7BBFF0446084B5B6874
:1018880013F4003F07D1FEF7B3FF001BB0F57A7FD2
:10189800F4D90320E8E70020E6E700BF003802405B
:1018A80000700040002800F0DC8170B582B004466A
:1018B800036813F0010F3AD0A24B9B6803F00C03A6
:1018C800042B2BD09F4B9B6803F00C03082B20D0D4
:1018D8006368B3F5803F50D0002B54D1994B1A68F8
:1018E80022F480321A601A6822F480221A6063682F
:1018F800002B5FD0FEF77CFF0546924B1B6813F464
:10190800003F14D1FEF774FF401B6428F5D903206B
:10191800ACE18C4B5B6813F4800FD9D0894B1B6802
:1019280013F4003F03D06368002B00F09C81236808
:1019380013F0020F64D0834B9B6813F00C0F4DD04B
:10194800804B9B6803F00C03082B42D0E368002B04
:1019580079D07C4A136843F001031360FEF748FF0F
:101968000546784B1B6813F0020F63D1FEF740FF62
:10197800401B0228F5D9032078E1724A136843F422
:1019880080331360B3E7B3F5A02F09D06D4B1A6805
:1019980022F480321A601A6822F480221A60A6E7BC
:1019A800684B1A6842F480221A601A6842F480323E
:1019B8001A609CE7FEF71CFF0546624B1B6813F490
:1019C800003FB4D0FEF714FF401B6428F5D903206C
:1019D8004CE15C4B5B6813F4800FB7D1594B1B6823
:1019E80013F0020F04D0E368012B01D001203DE180
:1019F800544A136823F0F803216943EAC1031360CA
:101A0800236813F0080F46D0636983B34D4A536FB8
:101A180043F001035367FEF7EBFE0546494B5B6F46
:101A280013F0020F37D1FEF7E3FE401B0228F5D969
:101A380003201BE1434A136823F0F803216943EAB2
:101A4800C1031360DCE73F4A136823F00103136006
:101A5800FEF7CEFE05463B4B1B6813F0020FCFD0B6
:101A6800FEF7C6FE401B0228F5D90320FEE0354AE2
:101A7800536F23F001035367FEF7BAFE0546314B57
:101A88005B6F13F0020F06D0FEF7B2FE401B022870
:101A9800F5D90320EAE0236813F0040F7ED0294B20
:101AA8001B6C13F0805F31D1264B1A6C42F08052C8
:101AB8001A641B6C03F080530193019B0125224B90
:101AC8001B6813F4807F23D0A368012B34D0002B2C
:101AD8003CD11C4B1A6F22F001021A671A6F22F0D0
:101AE80004021A67A368002B46D0FEF781FE06465B
:101AF800144B1B6F13F0020F4FD1FEF779FE801BBA
:101B080041F288339842F3D90320AFE00025D6E7A5
:101B18000D4A136843F480731360FEF769FE0646A6
:101B2800094B1B6813F4807FCED1FEF761FE801B42
:101B38006428F5D9032099E0024A136F43F00103A2
:101B48001367CFE70038024000700040052B09D02A
:101B5800484B1A6F22F001021A671A6F22F004022A
:101B68001A67BFE7434B1A6F42F004021A671A6FED
:101B780042F001021A67B5E7FEF73AFE06463D4B0A
:101B88001B6F13F0020F08D0FEF732FE801B41F2E4
:101B980088339842F3D9032068E0F5B9A369002B8C
:101BA80063D0344A926802F00C02082A60D0022BF3
:101BB80019D0304A136823F080731360FEF718FEBB
:101BC80004462C4B1B6813F0007F48D0FEF710FE2C
:101BD800001B0228F5D9032048E0264A136C23F09D
:101BE80080531364DAE7234A136823F08073136081
:101BF800FEF7FEFD05461F4B1B6813F0007F06D05D
:101C0800FEF7F6FD401B0228F5D903202EE0E36914
:101C1800226A1343626A43EA8213A26A5208013AAB
:101C280043EA0243E26A43EA0263226B43EA02732D
:101C3800104A5360136843F080731360FEF7D8FDB1
:101C480004460C4B1B6813F0007F06D1FEF7D0FD4D
:101C5800001B0228F5D9032008E0002006E0002038
:101C680004E001207047012000E0002002B070BDB0
:101C78000120FBE700380240F8B5254B9B6803F0CC
:101C88000C03042B41D0082B01D02248F8BD204B6F
:101C98005A6802F03F025B6813F4800F12D01C4BA5
:101CA8005968C1F3881100231B48A1FB0001FEF706
:101CB800D9FB174B5B68C3F3014301335B00B0FBEF
:101CC800F3F0F8BD124B5B68C3F388131E46002778
:101CD8005C010025E41A65EB0705A90141EA946156
:101CE800A001001B61EB0501CB0043EA5073C4005F
:101CF800A01943EB07018B0243EA90538402204664
:101D080019460023FEF7AEFBD3E70348F8BD00BF32
:101D1800003802400024F40040787D01002800F0DB
:101D2800A28070B50446524B1B6803F00F038B4228
:101D38000CD24F4A136823F00F030B431360136848
:101D480003F00F03994201D0012070BD236813F0FE
:101D5800020F17D013F0040F04D0464A936843F4D7
:101D6800E0539360236813F0080F04D0414A936846
:101D780043F4604393603F4A936823F0F003A068FC
:101D8800034393600D46236813F0010F31D0636855
:101D9800012B20D0022B25D0364A126812F0020FF0
:101DA80063D034498A6822F0030213438B60FEF73C
:101DB8001FFD06462F4B9B6803F00C036268B3EBCC
:101DC800820F16D0FEF714FD801B41F2883398422B
:101DD800F0D9032070BD274A126812F4003FE0D101
:101DE800012070BD234A126812F0007FD9D101206A
:101DF80070BD1F4B1B6803F00F039D420CD21C4A99
:101E0800136823F00F032B431360136803F00F03C9
:101E18009D4201D0012070BD236813F0040F06D045
:101E2800144A936823F4E053E1680B4393602368F2
:101E380013F0080F07D00F4A936823F46043216911
:101E480043EAC1039360FFF717FF0A4B9B68C3F38C
:101E58000313094AD35CD840084B18600020FEF7EA
:101E680089FC002070BD01207047012070BD00BFB3
:101E7800003C0240003802402C3A00083804002098
:101E8800014B1868704700BF3804002008B5FFF7F9
:101E9800F7FF044B9B68C3F38223034AD35CD84003
:101EA80008BD00BF003802403C3A000808B5FFF7FB
:101EB800E7FF044B9B68C3F34233034AD35CD84023
:101EC80008BD00BF003802403C3A0008F0B583B0B6
:101ED8000446036813F0010F0CD0B54B9A6822F43E
:101EE80000029A609A68416B0A439A60436BC3B1D7
:101EF800002700E00027236813F4002F15D0AC4A10
:101F0800D2F88C3023F44013E16B0B43C2F88C30C9
:101F1800E36BB3F5801F06D0002B00F04581002548
:101F280004E00127E7E70127F6E70025236813F413
:101F3800801F0FD09E4AD2F88C3023F44003216CC6
:101F48000B43C2F88C30236CB3F5800F00F02E8160
:101F580003B90125236813F0807F00D0012713F00F
:101F6800200F40F02781236813F0100F0CD0904BFE
:101F7800D3F88C2022F08072C3F88C20D3F88C2000
:101F8800A16B0A43C3F88C20236813F4804F08D050
:101F9800874AD2F8903023F44033616E0B43C2F87D
:101FA8009030236813F4004F08D0814AD2F890305B
:101FB80023F44023A16E0B43C2F89030236813F436
:101FC800803F08D07A4AD2F8903023F44013E16E6B
:101FD8000B43C2F89030236813F4003F08D0744ACA
:101FE800D2F8903023F44003216F0B43C2F89030AD
:101FF800236813F0400F08D06D4AD2F8903023F0D0
:102008000303616C0B43C2F89030236813F0800F10
:1020180008D0674AD2F8903023F00C03A16C0B4328
:10202800C2F89030236813F4807F08D0604AD2F851
:10203800903023F03003E16C0B43C2F890302368F2
:1020480013F4007F08D05A4AD2F8903023F0C00326
:10205800216D0B43C2F89030236813F4806F08D0C9
:10206800534AD2F8903023F44073616D0B43C2F8A1
:102078009030236813F4006F08D04D4AD2F890309E
:1020880023F44063A16D0B43C2F89030236813F426
:10209800805F08D0464AD2F8903023F44053E16D6F
:1020A8000B43C2F89030236813F4005F08D0404A0D
:1020B800D2F8903023F44043216E0B43C2F890309D
:1020C800236813F4800F08D0394AD2F8903023F0EF
:1020D8008063A16F0B43C2F89030236813F4001F8C
:1020E8000DD0334AD2F8903023F00063E16F0B43F0
:1020F800C2F89030E36FB3F1006F00F0C18023683D
:1021080013F0080F00D0012513F4802F08D0284AB7
:10211800D2F8903023F04073616F0B43C2F89030CF
:10212800236813F4000F09D0214AD2F8903023F025
:102138008053D4F880100B43C2F89030236813F012
:10214800806F09D01A4AD2F8903023F00053D4F89F
:1021580084100B43C2F89030236813F0006F09D045
:10216800134AD2F88C3023F00073D4F888100B434C
:10217800C2F88C30236813F0805F09D00C4AD2F87B
:102188008C3023F08063D4F88C100B43C2F88C3069
:10219800002F77D12368B3F1007F73D0002D40F072
:1021A8000581002003B0F0BD0125BFE60127CFE679
:1021B80000380240B84B1A6C42F080521A641B6C0B
:1021C80003F080530193019BB44A136843F480736E
:1021D8001360FEF70DFB0646B04B1B6813F4807FB7
:1021E80006D1FEF705FB801B6428F5D90320D9E743
:1021F800A94B1B6F13F4407315D0226B02F4407285
:10220800934210D0A44B1A6F22F44072196F41F414
:1022180080311967196F21F4803119671A671B6FAC
:1022280013F0010F12D1236B03F44072B2F5407F13
:102238001DD0994A936823F4F813936096490B6F5D
:10224800226BC2F30B0213430B678CE6FEF7D0FA3E
:102258000646914B1B6F13F0020FE4D1FEF7C8FA44
:10226800801B41F288339842F3D903209AE78A48C1
:10227800826822F4F8128A4919400A438260DDE72D
:1022880001253CE7844A136823F080631360FEF756
:10229800AFFA0646804B1B6813F0006F06D0FEF7B6
:1022A800A7FA801B6428F5D903207BE7236813F07D
:1022B800010F13D0636B8BB9774AD2F88430D2F808
:1022C8008410606803F4403343EA801301F07061BE
:1022D8000B43A16843EA0173C2F88430236813F4FE
:1022E800002F03D0E26BB2F5801F43D013F4801F98
:1022F80003D0236CB3F5800F3CD0236813F0807FA4
:1023080011D0654AD2F88400D2F88410666823692F
:102318001B0443EA861300F07060034301F0E041B8
:102328000B43C2F88430236813F0007F0DD0626835
:1023380023691B0443EA8213E26843EA0263A26842
:1023480043EA0273544AC2F88430534A136843F08C
:1023580080631360FEF74CFA06464F4B1B6813F078
:10236800006F7FF41BAFFEF743FA801B6428F4D993
:10237800032017E7484AD2F88430D2F884106068FE
:1023880003F4403343EA8013E06843EA006301F052
:10239800E0410B43C2F88430D2F88C3023F01F039D
:1023A800616A01390B43C2F88C30A6E73A4A1368D0
:1023B80023F080531360FEF71BFA0546364B1B6863
:1023C80013F0005F06D0FEF713FA401B6428F5D916
:1023D8000320E7E6236813F4002F01D0E26B22B153
:1023E80013F4801F1DD0236CDBB92B4AD2F8883038
:1023F800D2F88810606903F4403343EA8013A06977
:1024080043EA006301F0E0410B43C2F88830D2F898
:102418008C3023F4F853A16A013943EA0123C2F846
:102428008C30236813F4001F03D0E36FB3F1006FFF
:1024380038D0236813F0080F19D0174AD2F888103B
:10244800D2F88830606903F4403343EA801301F01E
:1024580070610B43E16943EA0173C2F88830D2F82E
:102468008C3023F44033E16A0B43C2F88C300A4ABB
:10247800136843F080531360FEF7BAF90446064B1D
:102488001B6813F0005F20D1FEF7B2F9001B642827
:10249800F5D9032086E600BF0038024000700040EE
:1024A800FFFCFF0F0A4AD2F88800D2F88810656945
:1024B800236A1B0443EA851300F07060034301F0AC
:1024C800E0410B43C2F88830B3E700206AE600BF5A
:1024D80000380240002858D010B504460023836213
:1024E80090F85D30002B45D0022384F85D302268D7
:1024F800136823F040031360E368B3F5E06F3ED937
:102508000021B3F5706F18BFB3F5E06F01D000225A
:10251800A262226B22B9B3F5E06F33D90223236399
:1025280022686368A0680343206903436069034322
:10253800A06900F400700343E0690343206A034381
:10254800A06A034313602268638B03F00403606A84
:102558000343606B0343E06803430B435360226803
:10256800D36923F40063D36100202066012384F833
:102578005D3010BD80F85C3001F0FAF8B4E74FF434
:102588008051BEE701232363CAE70120704700009A
:1025980070B4036A23F001030362036A4268856921
:1025A800124C2C400D68254323F002038C6823430A
:1025B8000F4C104EB04218BFA0420CBF012400249B
:1025C80005D123F00803CE68334323F004032CB16C
:1025D80022F440724C6922438C692243426085612F
:1025E8004A684263036270BC704700BF8CFFFEFFFD
:1025F800000001400004014070B4036A23F48073B2
:102608000362036A4268C569144C2C400D6825436F
:1026180023F400738C6843EA0423114C114EB04232
:1026280018BFA0420CBF0124002406D123F4006384
:10263800CE6843EA062323F480633CB122F4405277
:102648004C6942EA04128C6942EA04124260C5618C
:102658004A68C263036270BC704700BF8CFFFEFF0C
:10266800000001400004014070B4036A23F4805361
:102678000362036A4468C5690D4A2A400D6842EA44
:10268800052223F400538D6843EA0533094D0A4EA9
:10269800A84218BFB04204D124F480444D6944EAEA
:1026A80085144460C2614A680264036270BC704762
:1026B800FF8CFFFE000401400000014070B4036A73
:1026C80023F480330362036A4468456D0D4A2A4047
:1026D8000D682A4323F400338D6843EA05430A4D05
:1026E8000A4EA84218BFB04204D124F480344D6980
:1026F80044EA0524446042654A688265036270BC06
:10270800704700BF8FFFFEFF00040140000001403A
:1027180070B4036A23F480130362036A4468456D46
:102728000D4A2A400D6842EA052223F400138D68F9
:1027380043EA0553094D0A4EA84218BFB04204D1D6
:1027480024F480244D6944EA8524446042654A683B
:10275800C265036270BC7047FF8FFFFE0004014032
:102768000000014010B4036A046A24F00104046202
:10277800846924F0F00444EA021223F00A030B43AC
:10278800826103625DF8044B704710B4036A23F05A
:10279800100303628469036A24F4704444EA023231
:1027A80023F0A00343EA0113826103625DF8044B3E
:1027B8007047836823F07003194341F00701816073
:1027C8007047704770B403683A4DA84214BF00259B
:1027D8000125B0F1804F14BF2A4645F00102AAB97D
:1027E800354CA04214BF00240124344EB0420DD011
:1027F80064B904F1804404F58234A04214BF002473
:10280800012406F50066B04200D01CB123F0700325
:102818004C682343002A33D1274A904214BF002230
:102828000122264CA0422BD052BB02F1804202F575
:102838008232904214BF0022012204F50064A042B3
:102848001ED0EAB91E4A904214BF0022012204F5A4
:102858009A34A04214D09AB91A4A904214BF00225E
:10286800012204F50064A0420AD04AB9164A9042EF
:1028780014BF00220122A4F59634A04200D01AB158
:1028880023F44073CC68234323F080034A6913433D
:1028980003608A68C2620A6882620C4B984214BF5D
:1028A8002B4645F001030BB10B6903630123436118
:1028B80070BC704700000140000800400004004060
:1028C800004401400018004000200040000401407E
:1028D800A8B110B5044690F83D305BB1022384F8E6
:1028E8003D30211D2068FFF76DFF012384F83D303E
:1028F800002010BD80F83C3000F084FFEEE7012096
:102908007047A8B110B5044690F83D305BB102237A
:1029180084F83D30211D2068FFF754FF012384F817
:102928003D30002010BD80F83C30FFF74AFFEEE74D
:102938000120704770B4036A23F010030362036A2E
:1029480042688569144C2C400D6844EA052523F03B
:1029580020038C6843EA0413104C114EB04218BF90
:10296800A0420CBF0124002406D123F08003CE68C6
:1029780043EA061323F040033CB122F440624C6959
:1029880042EA84028C6942EA8402426085614A68AC
:102998008263036270BC7047FF8CFFFE0000014039
:1029A8000004014038B590F83C30012B00F09280CB
:1029B8000D460446012380F83C30022380F83D3060
:1029C800142A1ED8DFE802F00B1D1D1D241D1D1D35
:1029D800381D1D1D4B1D1D1D5F1D1D1D720000682E
:1029E800FFF7D6FD2268936943F0080393612268D4
:1029F800936923F0040393612268936929690B435F
:102A08009361012384F83D30002084F83C0038BDF0
:102A18000068FFF78FFF2268936943F400639361AE
:102A28002268936923F48063936122689369296912
:102A380043EA01239361E4E70068FFF7DDFD2268BC
:102A4800D36943F00803D3612268D36923F00403F0
:102A5800D3612268D36929690B43D361D1E7006840
:102A6800FFF702FE2268D36943F40063D36122684A
:102A7800D36923F48063D3612268D369296943EA5F
:102A88000123D361BDE70068FFF718FE2268536D84
:102A980043F0080353652268536D23F0040353651C
:102AA8002268536D29690B435365AAE70068FFF74D
:102AB8002FFE2268536D43F4006353652268536DFB
:102AC80023F4806353652268536D296943EA01231F
:102AD800536596E7022038BD10B4846824F47F4417
:102AE80042EA032319430C4384605DF8044B7047A2
:102AF80090F83C30012B64D010B50446012380F8CF
:102B08003C30022380F83D30026890682E4B034029
:102B180093600B68402B4AD013D9602B3DD01ED947
:102B2800702B28D0B3F5005F30D1CB684A6889682C
:102B38002068FFF7D1FF2268936843F480439360CD
:102B480024E0102B06D004D9202B03D0302B01D041
:102B58001CE0DBB919462068FFF72BFE16E0502B66
:102B680014D1CA6849682068FFF7FCFD5021206825
:102B7800FFF71FFE0AE0CB684A6889682068FFF7FC
:102B8800ABFF2268936843F077039360012384F8CE
:102B98003D30002084F83C0010BDCA6849682068B0
:102BA800FFF7F3FD60212068FFF703FEEEE7CA6830
:102BB80049682068FFF7D6FD40212068FFF7F9FD36
:102BC800E4E70220704700BF8800FEFF10B401F060
:102BD8001F01012303FA01F4036A23EA04030362D1
:102BE800036A8A40134303625DF8044B7047000090
:102BF80010B5044601220068FFF7E8FF23680C4A75
:102C08000C49934218BF8B4203D15A6C42F40042DC
:102C18005A6422689168084B0B40062B18BFB3F51D
:102C2800803F03D0136843F001031360002010BDF8
:102C380000040140000001400700010090F83C300A
:102C4800012B27D070B4012380F83C30022380F890
:102C58003D3004686368A2680F4D104EAC4218BF3F
:102C6800B44203D123F470034D682B4323F070035F
:102C78000D682B4322F0800289680A436360036869
:102C88009A60012380F83D30002380F83C301846D4
:102C980070BC7047022070470004014000000140EA
:102CA80010B5044683680269134342691343C26935
:102CB8001343016808689C4A024013430B6022686A
:102CC800536823F44053E1680B435360A369226AB5
:102CD800134321688A6822F4306213438B602368A7
:102CE800924A93422BD0924A93423BD0914A9342C4
:102CF80050D0914A934263D0904A934275D0904AFB
:102D0800934200F08A808F4A934200F09E808E4A58
:102D1800934200F0B2801023E269B2F5004F00F050
:102D2800D480082B00F26F81DFE813F032014701ED
:102D380051016D015A016D016D016D016401834BF3
:102D4800D3F8903003F00303032B09D8DFE803F02E
:102D58000204AD060123DFE70423DDE70823DBE7F0
:102D68001023D9E7794BD3F8903003F00C030C2BE0
:102D78000ED8DFE803F0070D0D0D090D0D0D9C0DA4
:102D88000D0D0B000023C7E70423C5E70823C3E79D
:102D98001023C1E76D4BD3F8903003F03003102BAC
:102DA8000AD006D9202B00F08480302B06D10823C6
:102DB800B2E71BB90023AFE70423ADE71023ABE765
:102DC800624BD3F8903003F0C003402B09D005D9EB
:102DD800802B70D0C02B06D108239DE71BB9002398
:102DE8009AE7042398E7102396E7584BD3F89030D6
:102DF80003F44073B3F5807F0BD007D9B3F5007F98
:102E08005BD0B3F5407F06D1082385E71BB90023C3
:102E180082E7042380E710237EE74C4BD3F89030F9
:102E280003F44063B3F5806F0BD007D9B3F5006F97
:102E380045D0B3F5406F06D108236DE71BB90123D0
:102E48006AE7042368E7102366E7404BD3F890301D
:102E580003F44053B3F5805F0BD007D9B3F5005F97
:102E68002FD0B3F5405F06D1082355E71BB90023DF
:102E780052E7042350E710234EE7344BD3F8903041
:102E880003F44043B3F5804F0BD007D9B3F5004F97
:102E980019D0B3F5404F06D108233DE71BB90023ED
:102EA8003AE7042338E7102336E7022334E70223FE
:102EB80032E7022330E702232EE702232CE702231E
:102EC8002AE7022328E7022326E7082B5DD8DFE854
:102ED80003F0051F3F5C485C5C5C5300FEF7D6FFBF
:102EE8006268530803EB4003B3FBF2F39BB2002084
:102EF800A3F110014FF6EF72914200F287809AB267
:102F080022F00F02C3F3420313432268D36050E058
:102F1800FEF7CCFF6268530803EB4003B3FBF2F300
:102F28009BB20020E4E700BFF369FFEF0010014007
:102F38000044004000480040004C00400050004061
:102F48000014014000780040007C00400038024036
:102F58006268304B03EB5203B3FBF2F39BB20020E1
:102F6800C6E7FEF789FE6268530803EB4003B3FB2C
:102F7800F2F39BB20020BBE76268530803F5803385
:102F8800B3FBF2F39BB20020B2E701200023AFE7C6
:102F9800FEF77CFF626800EB5203B3FBF2F39BB2CF
:102FA8000020A3F110014FF6EF72914230D8226849
:102FB800D36000232366636610BDFEF777FF62685F
:102FC80000EB5203B3FBF2F39BB20020E9E762681F
:102FD800114B03EB5203B3FBF2F39BB20020E0E783
:102FE800FEF74AFE626800EB5203B3FBF2F39BB2B2
:102FF8000020D6E76268530803F50043B3FBF2F3F9
:103008009BB20020CDE701200023CAE70120D0E7CA
:103018000120CEE70048E8010024F400436A13F0D9
:10302800010F06D00268536823F40033816A0B430A
:103038005360436A13F0020F06D00268536823F402
:103048008033C16A0B435360436A13F0040F06D000
:103058000268536823F48023016B0B435360436A6F
:1030680013F0080F06D00268536823F40043416B3D
:103078000B435360436A13F0100F06D0026893683D
:1030880023F48053816B0B439360436A13F0200F42
:1030980006D00268936823F40053C16B0B43936016
:1030A800436A13F0400F0AD00268536823F4801370
:1030B800016C0B435360036CB3F5801F0BD0436A5C
:1030C80013F0800F06D00268536823F40023816C44
:1030D8000B43536070470268536823F4C003416C84
:1030E8000B435360EBE72DE9F04105460F461646C2
:1030F8009846069C2B68DB6937EA03030CBF01235B
:103108000023B3421DD1B4F1FF3FF3D0FDF770FBAC
:10311800A0EB0800844201D3002CEBD12A68136885
:1031280023F4D07313602A68936823F00103936033
:1031380020236B67AB67002385F870300320BDE858
:10314800F0810020BDE8F08110B582B0044600236C
:10315800C367FDF74DFB2268126812F0080F07D10C
:1031680020236367A367002084F8700002B010BDB5
:103178006FF07E430093034600224FF4001120466F
:10318800FFF7B1FF0028EBD00320EFE768B310B5D5
:103198000446436F03B3242363672268136823F04C
:1031A800010313602046FFF77BFD01281FD0636AE7
:1031B800BBB92268536823F490435360226893682C
:1031C80023F02A0393602268136843F00103136015
:1031D8002046FFF7B9FF10BD80F8703000F052FBB1
:1031E800D9E72046FFF71AFFE3E70120704710BD33
:1031F80030B58BB00024059406940794089409947C
:103208001B4B1A6B42F004021A631A6B02F0040299
:103218000192019A1A6B42F002021A631A6B02F0C9
:1032280002020292029A1A6B42F008021A631A6B9F
:1032380002F008020392039A1A6B42F001021A6321
:103248001B6B03F001030493049B0A4D22461021D3
:103258002846FEF7E3FA1023059301230693079403
:10326800089405A92846FEF7EBF90BB030BD00BF5E
:1032780000380240000C024008B50C480C4B0360B3
:103288000323436000238360C3604FF4302202614C
:103298004FF4800242610376437601228276C27639
:1032A80003774377FDF746FC08BD00BF780600208A
:1032B8000064004008B50948094B03604FF4E13346
:1032C800436000238360C36003610C224261836111
:1032D800C36103624362FFF759FF08BD0005002080
:1032E8000048004070B584B000250095019502950E
:1032F8000395104C104B23604FF480336360A56036
:1033080001262661A66184F82050E5620B4BA36272
:10331800E560E66184F8305066612046FDF708FBF9
:103328000A2300930196029569462046FDF72CFB77
:1033380004B070BD80050020002001400100000F8E
:1033480008B50E480E4B03604FF4827343600023A8
:1033580083604FF44072C260036143614FF40072AE
:103368008261C3610362436283620722C2620363AC
:1033780008234363FFF7AEF808BD00BF5C040020D4
:103388000038004000B583B00A4B1A6B42F4800243
:103398001A631B6B03F480030193019B00221146FF
:1033A8003820FDF73FFF3820FDF76CFF03B05DF8CC
:1033B80004FB00BF0038024008B500221146162061
:1033C800FDF730FF1620FDF75DFF0022114615209E
:1033D800FDF728FF1520FDF755FF002211461420A0
:1033E800FDF720FF1420FDF74DFF08BD30B58FB065
:1033F80000240A940B940C940D940794089409944F
:103408000094019402940394049405940694194D2D
:10341800194B2B606C236B60AC604FF6FE73EB604E
:103428002C61AC612846FFF753FA4FF480530A9396
:103438000AA92846FFF75CFB2846FFF762FA0794BB
:10344800099407A92846FFF7F9FB60230093019424
:1034580002940494224669462846FFF7A3FA0422F8
:1034680069462846FFF79EFA284600F0E1F90FB0B2
:1034780030BD00BFC00400200008004030B5B9B01E
:10348800342200212BA8FCF74DFF00242694279412
:10349800289429942A949022214602A8FCF742FFF6
:1034A8001E4B1A6C42F080521A641B6C03F0805356
:1034B8000093009B1A4B1A6842F440421A601B683A
:1034C80003F440430193019B02252B9501232E937E
:1034D80010232F933195329408233393D8233493B0
:1034E800359536952BA8FEF7DDF9FEF79DF90F23E4
:1034F8002693279528944FF4A05329934FF480538B
:103508002A93072126A8FEF709FC4FF4807302933B
:10351800159402A8FEF7DAFC39B030BD0038024035
:10352800007000400F4B1B6A834200D0704730B5D3
:1035380089B000211846FDF705FD08B909B030BD6E
:10354800094D2B4601AA0021A868FDF761FC019BE3
:1035580045F80C3C059B45F8183C012345F8103C00
:10356800ECE700BF280600204006002010B50446FE
:103578000023C36383624362C36203634363836359
:1035880003640123436400F12401006AFDF778FB1A
:1035980084F84C004021206AFDF7E7FC84F84D00D0
:1035A8004121206AFDF7E1FC84F84D00206AFDF70F
:1035B80001FC84F84E00E36C33F07F4301D0012016
:1035C80010BD002010BD000008B5FDF7F9F8FFF7A1
:1035D80055FFFFF70DFEFFF74FFEFFF76BFEFFF7F6
:1035E80081FEFFF7ADFEFFF7CDFEFFF7FFFEFFF709
:1035F800E3FE0B4C00212046FFF7FAFA042120468F
:10360800FFF7F6FA0748084B0362FFF7AFFF054BD1
:103618009B68012BFBD10022024B9A60F7E700BFA1
:10362800C00400202806002078060020704700000B
:1036380082B00A4B1A6C42F080521A641A6C02F07B
:1036480080520092009A5A6C42F480425A645B6C31
:1036580003F480430193019B02B070470038024095
:1036680010B588B00023039304930593069307933A
:10367800026803F1804303F590339A4201D008B001
:1036880010BD044603F58C335A6C42F480725A64B8
:103698005A6C02F480720192019A1A6B42F0040289
:1036A8001A631B6B03F004030293029B0323039327
:1036B800049303A91048FDF7C3FF1048104B03609B
:1036C800002343608360C3604FF4806202614FF45B
:1036D800006242614FF4005282614FF48072C2610D
:1036E80003624362FDF756FE18B9044BA3639C635B
:1036F800C5E7FFF79BFFF8E700080240C805002070
:103708001064024000B589B0002303930493059325
:10371800069307930268144B9A4202D009B05DF8E9
:1037280004FB03F5EA331A6C42F000721A641A6C4F
:1037380002F000720192019A1A6B42F001021A63B8
:103748001B6B03F001030293029B4FF4C0530393D6
:1037580002230493032306930923079303A9034829
:10376800FDF76EFFDAE700BF00640040000002408A
:1037780070B588B0002303930493059306930793C9
:1037880002681D4B9A4201D008B070BD03F50033A2
:103798001A6C42F480421A641A6C02F48042009255
:1037A800009A1A6B42F002021A631A6B02F00202C4
:1037B8000192019A1A6B42F008021A631B6B03F01C
:1037C80008030293029B4FF4404303930226049696
:1037D800032506950524079403A90848FDF730FF3B
:1037E800082303930496002305930695079403A9D9
:1037F8000348FDF725FFC7E70038004000040240F2
:10380800000C02400268094B9A4200D0704782B00F
:1038180003F50C331A6C42F004021A641B6C03F0B3
:1038280004030193019B02B0F0E700BF00080040C9
:1038380000B587B000230193029303930493059383
:1038480002680E4B9A4202D007B05DF804FB03F5FC
:103858000C331A6B42F008021A631B6B03F008035F
:103868000093009B4FF44053019302230293059366
:1038780001A90348FDF7E4FEE6E700BF00080040A1
:10388800000C024000B589B000230393049305930C
:10389800069307930268144B9A4202D009B05DF868
:1038A80004FB03F5F8331A6C42F480221A641A6C8C
:1038B80002F480220192019A1A6B42F002021A6302
:1038C8001B6B03F002030293029B4FF440630393C4
:1038D80002230493032306930723079303A90348AA
:1038E800FDF7AEFEDAE700BF0048004000040240E2
:1038F8007047FEE7FEE7FEE7FEE770477047704750
:1039080008B5FCF769FF08BD08B50248FDF74BFB91
:1039180008BD00BF7806002008B50248FDF743FB44
:1039280008BD00BF7806002008B50248FDF73BFB3C
:1039380008BD00BF7806002008B50248FDF792FDD3
:1039480008BD00BFC805002010B40F4AD2F888305F
:1039580043F47003C2F888300C4B196841F0010138
:103968001960002098601C680949214019600949BC
:103978005960196821F480211960D8604FF00063FC
:1039880093605DF8044B704700ED00E0003802409A
:10399800FFFFF6FE10300024DFF834D0002103E0EA
:1039A8000C4B5B58435004310B480C4B42189A425D
:1039B800F6D30B4A02E0002342F8043B094B9A4233
:1039C800F9D3FFF7C1FFFCF785FCFFF7FDFD704752
:1039D800000008205C3A0008000000203C04002099
:1039E8003C040020A0060020FEE70000024B13B1B3
:1039F8000248FCF74FBC704700000000A90200080D
:103A0800F8B500BFF8BC08BC9E467047F8B500BFC3
:083A1800F8BC08BC9E46704793
:103A20000800002000061016000610160000000016
:103A3000000000000102030406070809000000005E
:083A4000010203044300000031
:083A480054CAFF7F01000000D9
:083A5000F539000865020008C9
:043A58003D02000823
:103A5C00080000200000000000000000F40200201C
:103A6C005C030020C40300200000000000000000E4
:103A7C00000000000000000000000000000000003A
:103A8C00000000000000000000000000443A0008A4
:103A9C00000000000000000000000000000000001A
:103AAC00000000000000000000000000000000000A
:103ABC0000000000000000000000000000000000FA
:103ACC0000000000000000000000000000000000EA
:103ADC0000000000000000000000000000000000DA
:103AEC0000000000000000000000000000000000CA
:103AFC0000000000000000000000000000000000BA
:103B0C0001000000000000000E33CDAB34126DE656
:103B1C00ECDE05000B0000000000000000000000BF
:103B2C000000000000000000000000000000000089
:103B3C000000000000000000000000000000000079
:103B4C000000000000000000000000000000000069
:103B5C000000000000000000000000000000000059
:0C3E8C0001000000100000000024F40001
:04000005080039A115
:00000001FF
