:020000040800F2
:1000000000000820B56D00082D6D00082F6D000858
:10001000316D0008336D0008356D000800000000E8
:10002000000000000000000000000000376D000824
:10003000396D0008000000003B6D00083D6D0008B0
:10004000056E0008056E0008056E0008056E0008C4
:10005000056E0008056E0008056E0008056E0008B4
:10006000056E0008056E0008056E0008056E0008A4
:10007000056E0008056E0008056E0008056E000894
:10008000056E0008056E0008056E0008056E000884
:10009000056E0008056E0008056E0008056E000874
:1000A000056E0008056E0008056E0008056E000864
:1000B000056E0008056E0008056E0008056E000854
:1000C000056E0008056E0008056E0008056E000844
:1000D000056E0008056E0008056E0008056E000834
:1000E000056E0008056E0008056E0008056E000824
:1000F000056E0008056E0008056E0008056E000814
:10010000056E0008056E0008456D0008056E0008C4
:10011000056E0008056E0008056E0008056E0008F3
:10012000556D0008056E0008056E0008056E000894
:10013000056E0008056E0008056E0008056E0008D3
:10014000056E0008056E0008056E0008056E0008C3
:10015000056E0008056E0008056E0008056E0008B3
:10016000056E0008056E0008056E0008056E0008A3
:10017000056E0008056E0008056E0008000000000E
:10018000056E0008056E0008056E0008056E000883
:10019000056E0008056E0008056E0008056E000873
:1001A0000000000000000000056E0008056E000859
:1001B000056E0008056E0008056E0008056E000853
:1001C000056E0008056E000800000000056E0008BE
:1001D000056E0008056E0008056E0008056E000833
:1001E000056E0008056E0008056E0008056E000823
:0801F00000000000056E00088C
:1002000010B5054C237833B9044B13B10448AFF350
:1002100000800123237010BDC009002000000000F1
:1002200084C9000808B5034B1BB103490348AFF369
:10023000008008BD00000000C409002084C9000837
:1002400090F800F06DE9024520F007016FF0000C16
:1002500010F0070491F820F040F049804FF00004BE
:100260006FF00700D1E9002391F840F000F1080099
:1002700082FA4CF2A4FA8CF283FA4CF3A2FA8CF3D1
:100280004BBBD1E9022382FA4CF200F10800A4FA38
:100290008CF283FA4CF3A2FA8CF3E3B9D1E904238C
:1002A00082FA4CF200F10800A4FA8CF283FA4CF3C3
:1002B000A2FA8CF37BB9D1E9062301F1200182FA7D
:1002C0004CF200F10800A4FA8CF283FA4CF3A2FA83
:1002D0008CF3002BC6D0002A04BF04301A4612BA91
:1002E000B2FA82F2FDE8024500EBD2007047D1E994
:1002F000002304F00305C4F100004FEAC50514F023
:10030000040F91F840F00CFA05F562EA05021CBFF3
:1003100063EA050362464FF00004A9E7000000000D
:1003200001F0FF01102A2BDB10F0070F08D010F8A6
:10033000013B013A8B422DD010F0070F42B3F6D1AA
:10034000F0B441EA012141EA014122F007047FF0C3
:1003500000070023F0E80256083C85EA010586EA1A
:10036000010685FA47F5A3FA87F586FA47F6A5FA56
:1003700087F68EB9EED1F0BC01F0FF0102F0070262
:1003800032B110F8013B013A83EA010313B1F8D10D
:100390000020704701387047002D06BF35460338EE
:1003A000073815F0010F07D1013015F4807F02BF27
:1003B000013015F4C03F0130F0BC0138704700BF78
:1003C000844641EA000313F003036DD1403A41D360
:1003D00051F8043B40F8043B51F8043B40F8043B1F
:1003E00051F8043B40F8043B51F8043B40F8043B0F
:1003F00051F8043B40F8043B51F8043B40F8043BFF
:1004000051F8043B40F8043B51F8043B40F8043BEE
:1004100051F8043B40F8043B51F8043B40F8043BDE
:1004200051F8043B40F8043B51F8043B40F8043BCE
:1004300051F8043B40F8043B51F8043B40F8043BBE
:1004400051F8043B40F8043B51F8043B40F8043BAE
:10045000403ABDD2303211D351F8043B40F8043B4E
:1004600051F8043B40F8043B51F8043B40F8043B8E
:1004700051F8043B40F8043B103AEDD20C3205D35E
:1004800051F8043B40F8043B043AF9D2043208D056
:10049000D2071CBF11F8013B00F8013B01D30B88C8
:1004A00003806046704700BF082A13D38B078DD0A6
:1004B00010F003038AD0C3F10403D21ADB071CBF78
:1004C00011F8013B00F8013B80D331F8023B20F8E2
:1004D000023B7BE7043AD9D3013A11F8013B00F81B
:1004E000013BF9D20B7803704B7843708B788370A3
:1004F0006046704753B94AB9002908BF00281CBF9D
:100500004FF0FF314FF0FF3000F06EB9ADF1080C45
:100510006DE904CE00F006F8DDF804E0DDE9022321
:1005200004B070472DE9F047089D04468C46002B27
:1005300040F083808A42174647D9B2FA82F242B12C
:10054000C2F1200024FA00F09140974040EA010CEB
:1005500094404FEA1748230CBCFBF8F61FFA87FEBD
:1005600008FB16C143EA014306FB0EF1994209D983
:10057000FB1806F1FF3080F01981994240F2168194
:10058000023E3B445B1AA4B2B3FBF8F008FB103305
:1005900044EA034400FB0EFEA64509D93C1900F1CC
:1005A000FF3380F00581A64540F2028102383C44C9
:1005B00040EA0640A4EB0E0400261DB1D4400023FF
:1005C000C5E900433146BDE8F08702B9FFDEB2FA63
:1005D00082F2002A50D1CB1B4FEA174E1FFA87F840
:1005E0000126B3FBFEFC210C0EFB1C3341EA034148
:1005F00008FB0CF38B4207D979180CF1FF3002D2BB
:100600008B4200F2E9808446C91AA3B2B1FBFEF026
:100610000EFB101143EA014408FB00F8A04507D97E
:100620003C1900F1FF3302D2A04500F2D9801846F0
:10063000A4EB080440EA0C40BFE78B4209D9002D27
:1006400000F0B1800026C5E9000130463146BDE822
:10065000F087B3FA83F6002E4AD18B4202D382424E
:1006600000F2B880841A61EB030101208C46002D52
:10067000A8D0C5E9004CA5E7C2F1200320FA03F693
:10068000974001FA02F04FEA174ED9403043030C6D
:10069000B1FBFEF61FFA87F80EFB161143EA014381
:1006A00006FB08F1994204FA02F409D9FB1806F195
:1006B000FF3C80F08D80994240F28A80023E3B44AC
:1006C0005B1A81B2B3FBFEF00EFB103341EA03412B
:1006D00000FB08F38B4207D9791800F1FF3C73D275
:1006E0008B4271D902383944CB1A40EA064678E782
:1006F000C6F1200C03FA06F422FA0CF31C4320FA8C
:100700000CF701FA06F34FEA144E21FA0CF11F43DD
:100710003B0CB1FBFEF91FFA84F80EFB191143EAFA
:10072000014109FB08FA8A4502FA06F200FA06F3CB
:1007300008D9611809F1FF3048D28A4546D9A9F194
:1007400002092144A1EB0A01BFB2B1FBFEF00EFB8E
:10075000101147EA014700FB08F8B84507D9E71927
:1007600000F1FF312ED2B8452CD90238274440EA97
:100770000940A7EB0807A0FB02894F45C64649463A
:100780001AD317D05DB1B3EB0E0267EB010707FA7E
:100790000CFCF2404CEA0202F740C5E900270026B3
:1007A0003146BDE8F0872E4628460BE70646E9E6C7
:1007B0001846FDE64345E5D2B8EB020E69EB0401AD
:1007C0000138DFE70846D2E760468DE78146B9E7A2
:1007D000664675E730464AE7ACF1020C394413E748
:1007E00002383C4424E700BF704700BF10B5044600
:1007F0000E4B18784FF47A73B3FBF0F30C4A106881
:10080000B0FBF3F000F0F2FC68B90F2C01D9012025
:100810000AE0002221464FF0FF3000F0A7FC054B14
:100820001C60002000E0012010BD00BF000000207F
:10083000100000200400002008B5032000F084FC14
:100840000020FFF7D3FF05F063FF002008BD000084
:10085000034A1168034B1B780B441360704700BFB9
:10086000540A002000000020014B1868704700BFA8
:10087000540A002038B50446FFF7F6FF0546B4F1E8
:10088000FF3F02D0044B1B781C44FFF7EDFF401BD9
:10089000A042FAD338BD00BF000000204A4B5A687E
:1008A00022F440325A605A6841680A435A6002682A
:1008B000536823F48073536002685368016943EA04
:1008C000012353600268536823F040735360026849
:1008D000536881680B4353600268936823F4006394
:1008E000936002689368C1680B439360826A374BD8
:1008F0009A4257D00268936823F07063936002684D
:100900009368816A0B4393600268936823F04053B5
:10091000936002689368C16A0B43936002689368AE
:1009200023F00203936002689368816943EA4103FC
:10093000936090F82030002B3FD00268536843F456
:10094000006353600268536823F460435360016896
:100950004B68426A013A43EA42334B600268D36A09
:1009600023F47003D3620168CB6AC269013A43EA97
:100970000253CB620268936823F4007393600268A9
:10098000936890F8301043EA4123936002689368BB
:1009900023F48063936002689368416943EA81238A
:1009A000936070470268936823F0706393600268F5
:1009B000936823F040539360B0E70268536823F4D0
:1009C00000635360CAE700BF002301400100000F2D
:1009D00028B310B50446036C43B1236C13F0100F19
:1009E0000BD00120002384F83C3010BD05F0A8FE98
:1009F0000023636484F83C30EFE7226C094B13401A
:100A000043F0020323642046FFF748FF00206064A0
:100A1000236C23F0030343F001032364E2E7012086
:100A2000704700BFFDEEFFFF82B00023019390F8F6
:100A30003C30012B78D0012380F83C3003689A6861
:100A400012F0010F13D19A6842F001029A603C4BF8
:100A50001B683C4AA2FB03239B0C03EB430301935B
:100A600002E0019B013B0193019B002BF9D103683C
:100A70009A6812F0010F59D0016C334A0A4042F4CF
:100A8000807202645A6812F4806F05D0026C22F4FE
:100A9000405242F480520264026C12F4805F1ED015
:100AA000426C22F006024264002280F83C206FF083
:100AB00022021A6002685168244B0B435360244B96
:100AC0005B6813F01F0F0DD103689A6812F0405F46
:100AD0002FD19A6842F080429A60002027E00022DD
:100AE0004264E1E703681B4A93420AD0184B5B68F3
:100AF00013F0100F1FD10368174A93420AD0002049
:100B000015E09A6812F0405FF0D19A6842F0804296
:100B10009A60EBE79A6812F0405F0ED19A6842F053
:100B200080429A60002002E0022000E0002002B033
:100B300070470020FBE70020F9E70020F7E700BF3F
:100B40001000002083DE1B43FEF8FFFF200000049E
:100B500000230140002001400022014030B482B057
:100B60000023019390F83C30012B00F0D180012349
:100B700080F83C300B68B3F1004F18BF092B22D925
:100B80000568EA689BB203EB43031E3B072404FAA3
:100B900003F322EA0303EB600B685E4A93420BD037
:100BA0000568EA688C689BB203EB43031E3B04FABA
:100BB00003F31343EB601BE00268D3688C6843EADD
:100BC0000463D36014E005682A699BB203EB430316
:100BD000072404FA03F322EA03032B6105682A6958
:100BE0008C680B8803EB430304FA03F313432B6174
:100BF0004B68062B28D805686A6B03EB8303053B1B
:100C00001F2404FA03F322EA03036B6305686A6B8B
:100C10004B6803EB8303053B0C8804FA03F313438F
:100C20006B6302683C4B9A423ED002683A4B9A4250
:100C300044D00268384B9A4249D0002380F83C30B7
:100C4000184602B030BC70470C2B16D805682A6BCA
:100C500003EB8303233B1F2404FA03F322EA030379
:100C60002B6305682A6B4B6803EB8303233B0C88DB
:100C700004FA03F313432B63D3E70568EA6A03EB33
:100C80008303413B1F2404FA03F322EA0303EB62CC
:100C90000568EA6A4B6803EB8303413B0C8804FA5E
:100CA00003F31343EB62BCE70B68B3F1004FBCD115
:100CB0001A4A536823F440035360B6E70B68122BBB
:100CC000B7D1164A536843F480035360B1E70B6809
:100CD000104A112B18BF9342AFD1104A536843F406
:100CE000000353600A680B4B9A42A6D10C4B1B6859
:100CF0000C4AA2FB03239B0C03EB83035B000193D1
:100D000002E0019B013B0193019B002BF9D194E789
:100D1000022096E71200001000200140002301404D
:100D20001000002083DE1B43002800F0A18038B5AE
:100D3000044690F82030D3B12268136823F00203F0
:100D40001360FFF791FD054623685A6812F0020F01
:100D500010D0FFF789FD401B0A28F5D9636A43F4D8
:100D600000336362052384F82030012038BD05F08C
:100D70004BFDE1E71A6842F001021A60FFF774FDCB
:100D8000054623685A6812F0010F0DD1FFF76CFD7C
:100D9000401B0A28F5D9636A43F4003363620523D4
:100DA00084F820300120E1E7227E012A3DD01A6834
:100DB00022F080021A60637E012B3BD02268136808
:100DC00023F040031360A37E012B39D022681368FF
:100DD00023F020031360E37E012B37D022681368D1
:100DE00043F010031360237F012B35D02268136872
:100DF00023F008031360637F012B33D0226813684C
:100E000023F004031360A368E268134322691343C9
:100E1000626913436268013A21681343CB61002081
:100E20006062012384F82030A0E71A6842F0800253
:100E30001A60C0E72268136843F040031360C2E7FA
:100E40002268136843F020031360C4E72268136824
:100E500023F010031360C6E72268136843F0080309
:100E60001360C8E72268136843F004031360CAE7FD
:100E700001207047036890F82020013AD2B2012A7D
:100E800005D9436A43F4802343620120704770B45C
:100E9000434A934200D0434BD3F8002242F0010270
:100EA000C3F800223F4A934243D04A6902F01F022E
:100EB000012000FA02F2D3F81C02D44320EA020017
:100EC000C3F81C02C869A8B9D3F80C022040C3F8C3
:100ED0000C02CE688D88486945EA0645483043F8DB
:100EE00030508E680D88486945EA0645483003EB66
:100EF000C0004560C869012829D0886900283DD113
:100F0000D3F804022040C3F80402086900283BD14A
:100F1000D3F814020440C3F81442096A012939D0F5
:100F2000D3F8002222F00102C3F80022002070BC96
:100F30007047D3F8002222F47C52C3F80022D3F881
:100F40000022486A42EA0022C3F80022ADE7D3F843
:100F50000C021043C3F80C020E688D88486945EAFC
:100F60000645483043F830508E688D89486945EA17
:100F70000645483003EBC0004560BEE7D3F80402E5
:100F80001043C3F80402C0E7D3F814021043C3F8B7
:100F90001402C2E7D3F81C120A43C3F81C22BFE7AD
:100FA000003400400064004070B5044690F82050C2
:100FB000EDB2012D06D0436A43F4002343620125BC
:100FC000284670BD022380F820300268136823F0A1
:100FD00001031360FFF748FC064623685B6813F0C3
:100FE000010F0CD0FFF740FC831B0A2BF5D9636A75
:100FF00043F400336362052384F82030E0E70025E2
:101000006562DDE770B490F820400568AD68013C8A
:10101000E4B2012C65D815F0E05F5CD0C5F3016443
:10102000022C05D9436A43F40003436201205DE0CA
:101030000125A5401D608B68002B39D10E68CB6857
:10104000056843EA465604F118031B01EE50036895
:101050000D6904F1180603EB06135D600B7D012B8F
:1010600031D0D17993791B0443EA0163517943EA82
:101070000123157901682B4301EB0411C1F88C3170
:10108000D17893781B0443EA0163517843EA012342
:10109000117802680B4302EB0412C2F8883102682F
:1010A00018342401135943F00103135100201DE0AB
:1010B0004D6843EAC503CD6806682B4304F1180563
:1010C0002D017351C3E7036803EB0613596841F41C
:1010D00080715960C5E7436A43F4001343620120FD
:1010E00004E0436A43F480234362012070BC7047EC
:1010F00090F82030013BDBB2012B01D90020704772
:101100000368986810F0806000D001209A6812F09F
:10111000006F00D001309B6813F0805FEFD001308A
:10112000704790F82030013BDBB2012B05D9436AB0
:1011300043F48023436201207047026853691943D6
:1011400051610020704700000649CB6823F4E0633A
:101150001B041B0C000200F4E0600343024A1A4324
:10116000CA60704700ED00E00000FA0530B4154B8E
:10117000DB68C3F30223C3F10704042C28BF042453
:101180001D1D062D14D9033B4FF0FF3505FA04F45D
:1011900021EA0401994005FA03F322EA0303194303
:1011A000002807DB0901C9B2074B195430BC70474E
:1011B0000023E9E700F00F000901C9B2034B1954FD
:1011C000F4E700BF00ED00E000E400E014ED00E013
:1011D000002807DB00F01F02400901239340024A68
:1011E00042F82030704700BF00E100E00138B0F164
:1011F000807F0AD2064B5860064AF02182F82310FD
:101200000020986007221A6070470120704700BFD5
:1012100010E000E000ED00E010B40168CAB2103A3E
:101220000A4BA3FB02431B09094CE35CC3655F2A1D
:1012300007D9084B0B4004338365806D5DF8044B80
:101240007047044B0B408365F7E700BFABAAAAAA1F
:10125000A0C9000800FCFFFF836A826992B9012BD4
:101260000AD0022B02D00BB100207047C36A13F0E2
:10127000807F28D100207047C36AB3F1C07F24D09B
:1012800000207047B2F5005F09D0022B25D9032B4F
:1012900025D1C36A13F0807F23D100207047032B30
:1012A00003D8DFE803F01404140A00207047C36A6F
:1012B00013F0807F0DD100207047C36AB3F1C07F67
:1012C00009D000207047012070470120704701209D
:1012D00070470120704701207047012070470020AF
:1012E000704701207047000070B50446FFF7BCFA54
:1012F000002C5BD00546002384F83430022384F8A8
:1013000035302268136823F00103136023681A68DC
:1013100012F0010F0AD0FFF7A7FA431B052BF5D9EE
:1013200020236365032084F8350070BD1A682048C7
:1013300010406168A2680A43E1680A4321690A43D0
:1013400061690A43A1690A43E1690A43216A0A43C0
:101350000243616A04291ED01A602668756925F067
:101360000705636A1D43042B07D1A36A1D43E36A83
:101370001BB12046FFF770FF90B975612046FFF75B
:101380004BFFE26D3F2393408360002060650123A3
:1013900084F83530C9E7E16A206B01430A43DBE793
:1013A00040236365012084F83500BEE70120BCE7D7
:1013B0003F8010E0F0B583B0044600230193724BE8
:1013C0001D68724BA3FB0535AD0A876D3E68C26D83
:1013D00008239340334210D003681A6812F0040FB8
:1013E0000BD01A6822F004021A60C26D08239340E1
:1013F000BB60436D43F001034365E26D01239340FD
:10140000334209D02268526912F0800F04D0BB60C9
:10141000636D43F002036365E26D0423934033423E
:1014200009D02268126812F0020F04D0BB60636D0D
:1014300043F004036365E26D10239340334224D0EC
:101440002268126812F0080F1FD0BB6023681A6868
:1014500012F4802F0DD01B6813F4002F04D1236CDD
:101460009BB12046984710E0A36C73B12046984783
:101470000BE01A6812F4807F03D11A6822F0080288
:101480001A60236C0BB120469847E26D20239340ED
:10149000334255D02268126812F0100F50D0BB6052
:1014A00094F83530DBB2052B0ED023681A6812F49D
:1014B000802F33D01B6813F4002F2AD1636C002BCC
:1014C0003ED0204698473BE02268136823F016037D
:1014D00013602268536923F080035361236CA3B126
:1014E0002268136823F008031360E26D3F239340E2
:1014F000BB60002384F83430012384F83530236D39
:10150000002B3FD0204698473CE0A36C002BE7D14E
:10151000EBE7E36BA3B12046984711E01A6812F499
:10152000807F09D11A6822F010021A60002384F823
:101530003430012384F83530E36B0BB120469847F3
:10154000636DFBB1636D13F0010F17D0052384F8B1
:1015500035302268136823F001031360019B0133C7
:101560000193AB4204D823681B6813F0010FF5D137
:10157000002384F83430012384F83530E36C0BB158
:101580002046984703B0F0BD10000020B5814E1BE7
:1015900000230F2B00F2E380F0B583B039E009227D
:1015A00000E00022B2403A4302346D4E46F8242057
:1015B0006C4A1468EA4324EA05064F6817F4803F32
:1015C00001D045EA0406674C2660646802EA040616
:1015D0004F6817F4003F01D045EA0406614C66608D
:1015E000A46802EA04064F6817F4801F01D045EA98
:1015F00004065C4CA660E46822404E6816F4001FA6
:1016000001D045EA0402574CE26001330F2B00F28F
:10161000A48001229A400C6804EA020532EA04041C
:10162000F3D14C68661E112C18BF012E01D9122C63
:1016300012D186685F000324BC4026EA0406CC6809
:10164000BC4034438460466826EA02064C68C4F312
:1016500000129A4032434260C7685E000324B440DF
:10166000E24327EA04078C68B4403C43C4604C68FA
:10167000122C18BF022C13D1DF08083750F827E0CE
:1016800003F007044FEA840C0F2404FA0CF42EEA4A
:10169000040E0C6904FA0CF444EA0E0440F82740E6
:1016A000046814404A6802F00302B2402243026018
:1016B0004A6812F0805FA8D02B4A546C44F48044EE
:1016C0005464526C02F480420192019A9C08A61C58
:1016D000234A52F8267003F0030296000F22B2400C
:1016E00027EA0207214A90423FF45BAF02F580628D
:1016F000904222D002F58062904220D002F58062B2
:1017000090421ED002F5806290421CD002F58062A9
:1017100090421AD002F58062904218D002F58062A1
:10172000904216D002F58062904214D002F5806299
:1017300090423FF434AF0A2234E7012232E702221A
:1017400030E703222EE704222CE705222AE70622AF
:1017500028E7072226E7082224E703B0F0BD7047F8
:1017600000380140003C01400038024000000240C7
:101770000369194201D001207047002070470AB167
:101780008161704709048161704743690B4202D04F
:1017900009048161704781617047000010B582B013
:1017A0001B4B1A6C42F080521A641B6C03F080537E
:1017B0000193019B174A136843F480331360FFF7CA
:1017C00053F80446134B5B6813F4803F08D1FFF7CE
:1017D0004BF8001BB0F57A7FF4D9032002B010BD9E
:1017E0000C4A136843F400331360FFF73DF80446D6
:1017F000084B5B6813F4003F07D1FFF735F8001B77
:10180000B0F57A7FF4D90320E8E70020E6E700BFCF
:101810000038024000700040002800F0068270B5D9
:1018200082B00446036813F0010F29D0A74B9B68D0
:1018300003F00C03042B1AD0A44B9B6803F00C0399
:10184000082B0FD06368B3F5803F40D0002B54D1F4
:101850009E4B1A6822F480321A601A6822F48022A1
:101860001A6039E0994B5B6813F4800FEAD0974B0C
:101870001B6813F4003F03D06368002B00F0D7818E
:10188000236813F0020F74D0904B9B6813F00C0F79
:101890005ED08E4B9B6803F00C03082B53D0E3689B
:1018A000002B00F08980894A136843F0010313601C
:1018B000FEF7DAFF0546854B1B6813F0020F72D165
:1018C000FEF7D2FF401B0228F5D90320B4E17F4A7E
:1018D000136843F48033136063682BB3FEF7C4FFCF
:1018E00005467A4B1B6813F4003FC9D1FEF7BCFFD5
:1018F000401B6428F5D903209EE1B3F5A02F09D041
:10190000724B1A6822F480321A601A6822F480221C
:101910001A60E1E76D4B1A6842F480221A601A6877
:1019200042F480321A60D7E7FEF79EFF0546674B08
:101930001B6813F4003FA3D0FEF796FF401B6428FA
:10194000F5D9032078E1614B5B6813F4800FA6D1D1
:101950005E4B1B6813F0020F03D0E368012B40F0CD
:1019600068815A4A136823F0F803216943EAC103E6
:101970001360236813F0080F46D0636983B3534A9A
:10198000536F43F001035367FEF76EFF05464F4B5D
:101990005B6F13F0020F37D1FEF766FF401B022882
:1019A000F5D9032048E1494A136823F0F803216977
:1019B00043EAC1031360DCE7444A136823F00103E0
:1019C0001360FEF751FF0546404B1B6813F0020FF2
:1019D000CFD0FEF749FF401B0228F5D903202BE1A9
:1019E0003A4A536F23F001035367FEF73DFF054664
:1019F000364B5B6F13F0020F06D0FEF735FF401B2E
:101A00000228F5D9032017E1236813F0040F7DD0D5
:101A10002E4B1B6C13F0805F0BD12C4B1A6C42F0D9
:101A200080521A641B6C03F080530193019B0125C3
:101A300000E00025264B1B6813F4807F0ED0A368BE
:101A4000012B1FD0002B35D1204B1A6F22F0010241
:101A50001A671A6F22F004021A6718E01C4A13680A
:101A600043F480731360FEF7FFFE0646184B1B68B5
:101A700013F4807FE3D1FEF7F7FE801B6428F5D9CD
:101A80000320D9E0114A136F43F001031367A368E1
:101A900053B3FEF7E9FE06460C4B1B6F13F0020F23
:101AA00033D1FEF7E1FE801B41F288339842F3D92F
:101AB0000320C1E0052B0DD0044B1A6F22F0010268
:101AC0001A671A6F22F004021A67E0E70038024032
:101AD00000700040604B1A6F42F004021A671A6FE0
:101AE00042F001021A67D2E7FEF7BEFE06465A4BE5
:101AF0001B6F13F0020F08D0FEF7B6FE801B41F2F9
:101B000088339842F3D9032096E0FDB9A369002BEE
:101B100000F09180504A926802F00C02082A59D0D5
:101B2000022B19D04C4A136823F080731360FEF720
:101B30009BFE0446484B1B6813F0007F48D0FEF71D
:101B400093FE001B0228F5D9032075E0424A136C6E
:101B500023F080531364D9E73F4A136823F080735E
:101B60001360FEF781FE05463B4B1B6813F0007FB8
:101B700006D0FEF779FE401B0228F5D903205BE072
:101B8000E369226A1343626A43EA8213A26A520833
:101B9000013A43EA0243E26A43EA0263226B43EA00
:101BA00002732D4A5360136843F080731360FEF78D
:101BB0005BFE0446284B1B6813F0007F06D1FEF73E
:101BC00053FE001B0228F5D9032035E0002033E046
:101BD000002031E0204A5268012B2FD002F480030C
:101BE000E1698B422CD102F03F03216A8B4229D15B
:101BF000616A47F6C0731340B3EB811F24D102F42E
:101C00004031A36A5B08013BB1EB034F1ED102F0E8
:101C10007063E16AB3EB016F1AD102F0E042236B0B
:101C2000B2EB037F16D1002006E0012070470120AF
:101C300002E0012000E0002002B070BD0120FBE7BF
:101C40000120F9E70120F7E70120F5E70120F3E79C
:101C50000120F1E70120EFE700380240F8B5244BFE
:101C60009B6803F00C03042B3DD0082B3DD1204B87
:101C70005A6802F03F025B6813F4800F12D01C4BCD
:101C80005968C1F3881100231A48A1FB0001FEF72F
:101C900031FC174B5B68C3F3014301335B00B0FBBE
:101CA000F3F023E0124B5B68C3F388135C0100255B
:101CB000E41A65F10005AE0146EA9466A701381BF7
:101CC00066EB0501CC0044EA5074C500E81844F105
:101CD00000018B0243EA90538402204619460023F8
:101CE000FEF708FCD5E7034800E00348F8BD00BF55
:101CF0000038024080BA8C010024F400002800F073
:101D0000A08070B50D460446524B1B6803F00F03CC
:101D10008B420BD24F4A136823F00F030B4313601F
:101D2000136803F00F038B4240F08D80236813F09B
:101D3000020F17D013F0040F04D0474A936843F4FE
:101D4000E0539360236813F0080F04D0424A93686D
:101D500043F460439360404A936823F0F003A16822
:101D60000B439360236813F0010F31D06368012B9C
:101D700020D0022B25D0384A126812F0020F64D00E
:101D800035498A6822F0030213438B60FEF76CFD2D
:101D90000646314B9B6803F00C036268B3EB820F7D
:101DA00016D0FEF761FD801B41F288339842F0D9CE
:101DB000032045E0284A126812F4003FE0D10120D8
:101DC0003EE0254A126812F0007FD9D1012037E0A9
:101DD000204B1B6803F00F03AB420AD91D4A13685E
:101DE00023F00F032B431360136803F00F03AB4280
:101DF0002DD1236813F0040F06D0174A936823F4FB
:101E0000E053E1680B439360236813F0080F07D099
:101E1000114A936823F46043216943EAC103936044
:101E2000FFF71CFF0C4B9B68C3F303130B4AD35CF7
:101E3000D8400B4B18600B4B1868FEF7D7FC0020FE
:101E400070BD012070470120FAE70120F8E701206A
:101E5000F6E700BF003C02400038024060CD0008B9
:101E60001000002004000020014B1868704700BFDC
:101E70001000002008B5FFF7F7FF044B9B68C3F381
:101E80008223034AD35CD84008BD00BF003802401B
:101E900070CD000808B5FFF7E7FF044B9B68C3F35C
:101EA0004233034AD35CD84008BD00BF003802402B
:101EB00070CD0008F0B583B00446066816F0010640
:101EC0000DD0B34B9A6822F400029A609A68416B75
:101ED0000A439A60436B002B00F05181002625686D
:101EE00015F4002511D0AA4AD2F88C3023F44013FF
:101EF000E16B0B43C2F88C30E36BB3F5801F00F04D
:101F00004081002B00F03F810025236813F4801FDF
:101F10000FD09F4AD2F88C3023F44003216C0B433E
:101F2000C2F88C30236CB3F5800F00F02E8103B91A
:101F30000125236813F0807F00D0012613F0200FC5
:101F400040F02881236813F0100F0CD0904BD3F889
:101F50008C2022F08072C3F88C20D3F88C20A16BE7
:101F60000A43C3F88C20236813F4804F08D0884AB2
:101F7000D2F8903023F44033616E0B43C2F89030B6
:101F8000236813F4004F08D0814AD2F8903023F42C
:101F90004023A16E0B43C2F89030236813F4803FB6
:101FA00008D07B4AD2F8903023F44013E16E0B4303
:101FB000C2F89030236813F4003F08D0744AD2F876
:101FC000903023F44003216F0B43C2F89030236814
:101FD00013F0400F08D06E4AD2F8903023F003037C
:101FE000616C0B43C2F89030236813F0800F08D067
:101FF000674AD2F8903023F00C03A16C0B43C2F86F
:102000009030236813F4807F08D0614AD2F8903072
:1020100023F03003E16C0B43C2F89030236813F4D3
:10202000007F08D05A4AD2F8903023F0C003216DC7
:102030000B43C2F89030236813F4806F08D0544AE1
:10204000D2F8903023F44073616D0B43C2F89030A6
:10205000236813F4006F08D04D4AD2F8903023F46F
:102060004063A16D0B43C2F89030236813F4805F86
:1020700008D0474AD2F8903023F44053E16D0B4327
:10208000C2F89030236813F4005F08D0404AD2F8B9
:10209000903023F44043216E0B43C2F89030236804
:1020A00013F4800F08D03A4AD2F8903023F08063BE
:1020B000A16F0B43C2F89030236813F4001F0DD0BA
:1020C000334AD2F8903023F00063E16F0B43C2F83B
:1020D0009030E36FB3F1006F00F0C280236813F417
:1020E000802F08D02A4AD2F8903023F04073616FD5
:1020F0000B43C2F89030236813F4000F09D0244A30
:10210000D2F8903023F08053D4F880100B43C2F8FB
:102110009030236813F0806F09D01D4AD2F89030B8
:1021200023F00053D4F884100B43C2F89030236896
:1021300013F0006F09D0164AD2F88C3023F00073E8
:10214000D4F888100B43C2F88C30236813F0805FFA
:1021500009D00F4AD2F88C3023F08063D4F88C1069
:102160000B43C2F88C30002E7CD12368B3F1007F82
:1021700078D0012D00F00981002003B0F0BD0126C8
:10218000ADE60126BDE60125BFE60126CFE600BF8C
:1021900000380240B34B1A6C42F080521A641B6C38
:1021A00003F080530193019BAF4A136843F480739B
:1021B0001360FEF759FB0746AB4B1B6813F4807F97
:1021C00006D1FEF751FBC01B6428F5D90320D4E7E4
:1021D000A44B1B6F13F4407315D0226B02F44072B2
:1021E0009A4210D09F4B1A6F22F44072196F41F43B
:1021F00080311967196F21F4803119671A671B6FD5
:1022000013F0010F12D1236B03F44072B2F5407F3B
:102210001DD0944A936823F4F813936091490B6F8F
:10222000226BC2F30B0213430B678BE6FEF71CFB1A
:1022300007468C4B1B6F13F0020FE4D1FEF714FB23
:10224000C01B41F288339842F3D9032095E78548B3
:10225000826822F4F812854919400A438260DDE75A
:1022600001253BE77F4A136823F080631360FEF784
:10227000FBFA06467B4B1B6813F0006F06D0FEF797
:10228000F3FA801B6428F5D9032076E7236813F05E
:10229000010F13D0636B8BB9724AD2F88430D2F835
:1022A0008410606803F4403343EA801301F07061E6
:1022B0000B43A16843EA0173C2F88430236813F426
:1022C000002F03D0E26BB2F5801F06D013F4801FFD
:1022D0001ED0236CB3F5800F1AD1624AD2F8843035
:1022E000D2F88410606803F4403343EA8013E06856
:1022F00043EA006301F0E0410B43C2F88430D2F8B6
:102300008C3023F01F03616A01390B43C2F88C3013
:10231000236813F0807F11D0524AD2F88400D2F89B
:102320008410666823691B0443EA861300F070601A
:10233000034301F0E0410B43C2F88430236813F0FB
:10234000007F0DD0626823691B0443EA8213E268B0
:1023500043EA0263A26843EA0273424AC2F8843045
:10236000404A136843F080631360FEF77DFA064627
:102370003C4B1B6813F0006F7FF4FBAEFEF774FA62
:10238000801B6428F4D90320F7E6364A136823F04B
:1023900080531360FEF768FA0546324B1B6813F052
:1023A000005F06D0FEF760FA401B6428F5D90320D1
:1023B000E3E6236813F4002F01D0E26B22B113F49B
:1023C000801F1DD0236CDBB9264AD2F88830D2F8A2
:1023D0008810606903F4403343EA8013A06943EA3C
:1023E000006301F0E0410B43C2F88830D2F88C3032
:1023F00023F4F853A16A013943EA0123C2F88C306F
:10240000236813F4001F03D0E36FB3F1006F13D000
:10241000144A136843F080531360FEF725FA04460C
:10242000104B1B6813F0005F19D1FEF71DFA001B5B
:102430006428F5D90320A0E60A4AD2F88800D2F829
:1024400088106569236A1B0443EA851300F07060F5
:10245000034301F0E0410B43C2F88830D8E7002085
:102460008BE600BF0038024000700040FFFCFF0F09
:1024700070B582B0044600230193006802F04CFC62
:10248000054610B1284602B070BD206802F057FC26
:1024900038B90123A364A36C012B0BD02E46284628
:1024A00014E00023A364206802F036FC0028F2D078
:1024B0000546E7E70021206802F058FC0028EDD02F
:1024C0004FF08055DEE7019B01330193019A4FF6EF
:1024D000FE739A4213D896B90021206802F046FC98
:1024E000E0B91249206802F059FC0646C0B9002143
:1024F000206802F058FAC30FE5D01E46E3E7019AC0
:102500004FF6FE739A420ED810F0804302D001239A
:102510006364B7E7002262641D46B3E70546B1E78E
:102520004FF08055AEE74FF08075ABE7000010C16B
:1025300070B581B104460E46016D0904006802F0D1
:1025400089FC054608B1284670BD0021206802F0CC
:102550002AFA3060F7E74FF00065F4E72DE9F04F15
:1025600087B004460D4616469946DDF840A0FEF7B2
:102570007BF93DB3804694F83470FFB2012F40F0F0
:1025800014810023A36306EB0903E26D93421FD875
:10259000032384F8343023680022DA62636C012B51
:1025A00000D076024FF40071206802F00BFBA0B15E
:1025B000236882499963A36B0343A363012384F8CF
:1025C0003430F7E0A36B43F00063A3630127F1E02D
:1025D000A36B43F00073A363ECE04FF0FF33009371
:1025E0004FEA49230193902302930223039300238C
:1025F0000493012305936946206802F0D1FAB9F1EA
:10260000010F09D9022323633146206802F00AFB37
:1026100048B9DDF804B02DE001232363314620687A
:1026200002F0E8FAF4E72368644A9A63A36B18435C
:10263000A063012384F8343000232363BAE02068C8
:1026400002F088F92870C0F307236B70C0F30743CA
:10265000AB70000EE8700435ABF1040B0136072EA9
:10266000EDD9FEF701F9A0EB080050450FD2BAF101
:10267000000F0CD02068466B16F4957615D1436B8D
:1026800013F4004FEDD0BBF1000FEAD0E7E7236869
:102690004A4A9A63A36B43F00043A363012384F87F
:1026A000343000232363032784E0436B13F4807FDB
:1026B00005D0B9F1010F02D9636C032B38D123681F
:1026C0005A6B12F0080F44D15A6B12F0020F4CD122
:1026D0005A6B12F0200F54D12068436B13F4001F83
:1026E0005BD0BBF1000F58D002F034F92870C0F372
:1026F00007236B70C0F30743AB70000EE87004351E
:10270000ABF1040BFEF7B0F8A0EB0800504502D285
:10271000BAF1000FE0D12368284A9A63A36B43F013
:102720000043A363012384F834300023236341E092
:1027300002F0C0FA03460028C1D022681F49916305
:10274000A26B1343A363012384F834300023236373
:1027500030E01A4A9A63A36B43F00803A363012392
:1027600084F834300023236324E0144A9A63A36B73
:1027700043F00203A363012384F83430002323636E
:1027800018E00E4A9A63A36B43F02003A36301236E
:1027900084F83430002323630CE040F23A5383631F
:1027A000012384F83430002704E0A36B43F0005386
:1027B000A3630127384607B0BDE8F08FFF0540004E
:1027C0002DE9F04F89B004460D4616469946FEF7AE
:1027D0004BF83DB3804694F83470FFB2012F40F0BF
:1027E000EE800023A36306EB0903E26D93421FD83A
:1027F000032384F8343023680022DA62636C012BEF
:1028000000D076024FF40071206802F0DBF9A0B12D
:1028100023686F499963A36B0343A363012384F87F
:102820003430D1E0A36B43F00063A3630127CBE016
:10283000A36B43F00073A363C6E04FF0FF33029332
:102840004FEA4923039390230493002305930693AF
:102850000123079302A9206802F0A2F9B9F1010F40
:102860000CD9202323633146206802F00BFA8246FC
:10287000BAF1000F0AD1DDF80CB031E01023236368
:102880003146206802F0E6F98246F1E72368504AB3
:102890009A63A06B40EA0A00A063012384F83430F5
:1028A0000023236390E02B786A7843EA0223AA7816
:1028B00043EA0243EA7843EA026301930435ABF149
:1028C000040B01A9206802F048F80136072EEAD966
:1028D000FDF7CAFFA0EB0800129B98420DD263B12E
:1028E0002068466B16F48D7615D1436B13F4804F38
:1028F000EED0BBF1000FEBD0E8E72368344A9A63CF
:10290000A06B40EA0A00A063012384F8343000235E
:102910002363032758E0436B13F4807F05D0B9F19C
:10292000010F02D9636C032B18D123685A6B12F084
:10293000080F24D15A6B12F0020F2CD15A6B12F0EF
:10294000100F34D0224A9A63A36B43F01003A363A1
:10295000012384F834300023236335E002F0AAF920
:1029600003460028E1D0226819499163A26B134302
:10297000A363012384F834300023236324E0144A42
:102980009A63A36B43F00803A363012384F83430F4
:102990000023236318E00E4A9A63A36B43F00203FB
:1029A000A363012384F83430002323630CE040F256
:1029B0003A529A63012384F83430002704E0A36B71
:1029C00043F00053A3630127384609B0BDE8F08FF8
:1029D000FF05400010B4436E9B0F0B70436EC3F3B2
:1029E00083634B7090F8673003F003038B7090F8AB
:1029F0006630CB7090F865300B7190F864304B7195
:102A0000836E1B0DCB80B0F86A3003F00F030B729E
:102A1000836EC3F3C0334B72836EC3F380338B7208
:102A2000836EC3F34033CB72836EC3F300330B73F7
:102A300000234B73436C002B40F08880826E40F67D
:102A4000FC7303EA8203C26E43EA92730B61C36EA6
:102A5000C3F3C2630B7590F86F3003F007034B7537
:102A6000C36EC3F342538B75C36EC3F38243CB75FE
:102A7000C36EC3F3C2330B760B69013343650A7E21
:102A800002F00702023203FA02F242650B7A03F007
:102A90000F040123A34083655B0A03FB02F3C365B4
:102AA0004FF400730366C36EC3F380334B76C36E7B
:102AB000C3F3C6138B76C36E03F07F03CB76036F2D
:102AC000DB0F0B77036FC3F341734B77036FC3F3D4
:102AD00082638B77036FC3F38353CB77036FC3F3A7
:102AE000405381F82030002381F82130B0F8722063
:102AF00002F0010281F82220026FC2F3C03281F895
:102B00002320026FC2F3803281F82420026FC2F3C7
:102B1000403281F82520026FC2F3003281F826206E
:102B2000026FC2F3812281F82720026FC2F30122D3
:102B300081F82820026FC2F3460281F82920012281
:102B400081F82A2018465DF8044B7047012B11D1FB
:102B5000836E1B0403F47C13B0F86E2013430B61E7
:102B60000B6901339B024365C3654FF400738365B2
:102B7000036698E70368054A9A63836B43F08053C2
:102B80008363012380F834301846DCE7FF054000FA
:102B900070B590B004460123ADF81230006801F022
:102BA000E9FE00286CD0636C032B45D1636C032BCA
:102BB0005DD1636C032B1DD0BDF812102165090493
:102BC000206802F01AF9054600285BD10021206830
:102BD00001F0E9FE60660421206801F0E4FEA066D1
:102BE0000821206801F0DFFEE0660C21206801F07A
:102BF000DAFE20670421206801F0D5FE000DE064B4
:102C000005A92046FFF7E6FE00283ED1226D1204FA
:102C10000023206802F068F8054698BB234653F865
:102C2000106B93E807008DE80700043494E80E0069
:102C3000304601F073FE25E0206802F0C9F8054631
:102C400000BB0021206801F0AEFE6067042120680F
:102C500001F0A9FEA0670821206801F0A4FEE0674A
:102C60000C21206801F09FFEC4F880009EE70DF162
:102C70001201206802F0D6F80546002899D001E03C
:102C80004FF08065284610B070BD4FF08055F9E7D1
:102C900030B58BB004460023049305930693079345
:102CA0000893762309930AAB13E907008DE8070020
:102CB00004AB0ECB206801F031FE18B10125284687
:102CC0000BB030BD05462268536823F4807353600F
:102CD000206801F047FE2268536843F48073536014
:102CE0002046FFF7C5FB30B1012584F83450A36BB3
:102CF0000343A363E3E72046FFF74AFF0028DED043
:102D0000012584F83450A36B0343A363D7E7A8B12C
:102D100010B5044690F8343063B1032384F834309E
:102D20002046FFF7B5FF58B9A0632063012384F85C
:102D3000343010BD037703F001FEEEE70120704749
:102D40000120F6E7436C0B60836C4B60C36C8B60B7
:102D5000036DCB60436D0B61836D4B61C36D8B6104
:102D6000036ECB610020704710B582B0044600238B
:102D7000019301A9FFF7DCFB10B1A36B0343A3632D
:102D80000198C0F3432002B010BD2DE9F041064682
:102D9000884617461D463468A46838EA04030CBF09
:102DA00001240024BC4237D0B5F1FF3FF3D0FDF73A
:102DB0005BFD069BC01AA84201D2002DEBD1326800
:102DC000536823F0E00353607368B3F5827F0BD040
:102DD000B36AB3F5005F14D0012386F85D30002399
:102DE00086F85C30032018E0B368B3F5806F18BF35
:102DF000B3F5004FECD13268136823F04003136041
:102E0000E6E73268136823F40053136032681368EE
:102E100043F400531360DFE70020BDE8F0812DE9A3
:102E2000F84381460F461646984602E0B8F1FF3F48
:102E30000CD1D9F80050AC683C40B44243D0B7F54F
:102E4000C06F08BF002EF1D12B7BEFE7FDF70CFD23
:102E5000089BC01A404502D2B8F1000FE9D1D9F859
:102E60000020536823F0E0035360D9F80430B3F531
:102E7000827F0CD0D9F82830B3F5005F16D001233B
:102E800089F85D30002389F85C3003201CE0D9F814
:102E90000830B3F5806F18BFB3F5004FEAD1D9F809
:102EA0000020136823F040031360E3E7D9F8002003
:102EB000136823F400531360D9F80020136843F417
:102EC00000531360DBE70020BDE8F88370B582B0E3
:102ED00004460D46164600920B4600224FF4C051A0
:102EE000FFF79DFFB0B900962B46002280212046B7
:102EF000FFF74BFFA8B900962B4600224FF4C061A4
:102F00002046FFF78CFF50B1236E43F02003236669
:102F1000032004E0236E43F020032366032002B065
:102F200070BD236E43F0200323660320F7E770B5DE
:102F300082B004460D4616464368B3F5827F0DD035
:102F400000962B46002280212046FFF71EFF90B9F5
:102F50006368B3F5827F14D002B070BD8368B3F5A7
:102F6000806F18BFB3F5004FEAD10268136823F0F1
:102F700040031360E4E7236E43F02003236603203D
:102F8000EAE7A368B3F5806F18BFB3F5004FE3D14C
:102F900000962B4600224FF4C0612046FFF73FFF0A
:102FA0000028D9D0236E43F0200323660320D3E703
:102FB000002858D010B504460023836290F85D3095
:102FC000002B45D0022384F85D302268136823F07B
:102FD00040031360E368B3F5E06F3ED90022B3F518
:102FE000706F18BFB3F5E06F01D00021A162216BB3
:102FF00021B9B3F5E06F33D9022323636368A16875
:103000000B4321690B4361690B43A16901F4007112
:103010000B43E1690B43216A0B43A06A2168034318
:103020000B60638B03F00403616A0B43616B0B431A
:10303000E1680B43216813434B602268D36923F492
:103040000063D36100202066012384F85D3010BD49
:1030500080F85C3003F0BEFCB4E74FF48052BEE76A
:1030600001232363CAE7012070472DE9F04383B0B1
:103070001D4690F85C30012B00F0EE800446894636
:103080009046012380F85C30FDF7EEFB074694F88C
:103090005D60F6B2012E40F0CC80B8FA88F35B098F
:1030A000B9F1000F08BF0123002B40F0C3800323B8
:1030B00084F85D3000232366C4F83890A4F83C807F
:1030C000A4F83E802364A4F84430A4F84630236575
:1030D000E364A368B3F5004F1ED023681A6812F0AA
:1030E000400F03D11A6842F040021A60E368B3F55A
:1030F000E06F38D9636813B1B8F1010F1ED1A26B2C
:1031000023681288DA60A36B0233A363E38F9BB258
:10311000013B9BB2E38711E02268136843F48043CC
:103120001360DAE7FDF7A0FBC01BA84203D3B5F19B
:10313000FF3F40F08980002D00F08880E38F9BB234
:10314000002B61D023689A6812F0020FEAD0A26BBC
:103150001288DA60A36B0233A363E28F92B2013A62
:1031600092B2E287EAE7636813B1B8F1010F33D195
:10317000E38F9BB2012B0CD9A26B23681288DA6013
:10318000A36B0233A363E38F9BB2023B9BB2E38743
:1031900022E0A26B236812781A73A36B0133A36336
:1031A000E38F9BB2013B9BB2E38715E0A36B1B78D7
:1031B0001373A36B0133A363E38F9BB2013B9BB2F9
:1031C000E38709E0FDF750FBC01BA84202D3B5F12D
:1031D000FF3F3DD1002D3DD0E38F9BB2A3B12268CC
:1031E000936813F0020FEDD0E38F9BB2012BDDD972
:1031F000A36B1B88D360A36B0233A363E38F9BB2E3
:10320000023B9BB2E387E7E73A4629462046FFF7B1
:103210005DFE08B120232366A36833B901932368B8
:10322000DA6801929B680193019B236E13B9002613
:1032300000E00226012384F85D30002384F85C302E
:10324000304603B0BDE8F0830326F3E70326F1E739
:103250000326EFE70326EDE70226F1E72DE9F84321
:103260001F46089D90F85C30012B00F064810446F5
:1032700088469146012380F85C30FDF7F5FA064652
:1032800094F85D30DBB26268012B0AD0B2F5827F20
:1032900040F03A81A268002A40F03F81042B40F0C0
:1032A0003E81B9FA89F35B09B8F1000F08BF012329
:1032B000002B40F03681002F00F0358194F85D300E
:1032C000DBB2042B02D0052384F85D300023236693
:1032D000C4F84090A4F84670A4F84470C4F838804C
:1032E000E787A787E3642365E368B3F5E06F01D858
:1032F000012F23D92268536823F480535360236835
:103300001A6812F0400F03D11A6842F040021A60A6
:10331000E368B3F5E06F58D963680BB1012F0BD1A7
:10332000A26B23681288DA60A36B0233A363E38F76
:103330009BB2013B9BB2E387012725E022685368DB
:1033400043F480535360DAE723689A6812F0010F60
:1033500011D0B4F8462092B26AB1DA68236C1A80B0
:10336000236C02332364B4F846309BB2013B9BB21A
:10337000A4F846300127FDF777FA831BAB4203D34D
:10338000B5F1FF3F40F0D180E38F9BB22BB9B4F889
:1033900046309BB2002B00F0AD8023689A6812F093
:1033A000020FD1D0E28F92B2002ACDD0002FCBD025
:1033B000A26B1288DA60A36B0233A363E38F9BB224
:1033C000013B9BB2E3870027BEE763680BB1012F87
:1033D0000FD1E38F9BB2012B0DD9A26B236812880A
:1033E000DA60A36B0233A363E38F9BB2023B9BB211
:1033F000E387012749E0A26B236812781A73A36B55
:103400000133A363E38F9BB2013B9BB2E387F0E7F9
:10341000E28F92B2012A0CD9A26B1288DA60A36BF8
:103420000233A363E38F9BB2023B9BB2E387002787
:103430003DE0A26B12781A73A36B0133A363E38F91
:103440009BB2013B9BB2E387002730E022685368C0
:1034500043F48053536001270DE0226C1B7B1370F3
:10346000236C01332364B4F846309BB2013B9BB21A
:10347000A4F846300127FDF7F7F9801BA84202D3D4
:10348000B5F1FF3F53D1002D53D0E38F9BB223B949
:10349000B4F846309BB2002B2CD023689A6812F007
:1034A000020F04D0E28F92B20AB1002FB0D123688C
:1034B0009A6812F0010FDED0B4F8462092B2002ACA
:1034C000D9D0B4F8462092B2012AC6D9DA68236C62
:1034D0001A80236C02332364B4F846309BB2023B5B
:1034E0009BB2A4F84630B4F846309BB2012BADD95C
:1034F0000127C0E7324629462046FFF7E7FC20B106
:1035000020232366012000E00220012384F85D309F
:10351000002384F85C30BDE8F8830220F5E7022040
:10352000F3E70120F1E70120EFE70320EDE70320B7
:10353000EBE70320E9E70220EDE72DE9F04383B054
:103540000446894690461D464368B3F5827F45D0C0
:1035500094F85C30012B00F0BC80012384F85C30CF
:10356000FDF782F9074694F85D60F6B2012E40F04F
:103570009D80B8FA88F35B09B9F1000F08BF0123F9
:10358000002B40F09480042384F85D3000232366F0
:10359000C4F84090A4F84480A4F84680A363A387AD
:1035A000E387E3642365E368B3F5E06F23D922681A
:1035B000536823F480535360A368B3F5004F20D0C1
:1035C00023681A6812F0400F03D11A6842F04002D3
:1035D0001A60E368B3F5E06F23D944E08368002BF9
:1035E000B6D1042380F85D30009513460A46FFF7F4
:1035F00035FE064661E02268536843F48053536009
:10360000DAE72268136823F480431360D8E7FDF7F4
:103610002BF9C01BA84202D3B5F1FF3F51D1002DB9
:1036200051D0B4F846309BB2002B33D023689A684F
:1036300012F0010FEBD0226C1B7B1370236C013353
:103640002364B4F846309BB2013B9BB2A4F84630E9
:10365000E7E7FDF709F9C01BA84202D3B5F1FF3F28
:1036600033D1002D33D0B4F846309BB293B12368E8
:103670009A6812F0010FECD0DA68236C1A80236C80
:1036800002332364B4F8462092B2013A92B2A4F80D
:103690004620E8E73A4629462046FFF748FC08B1AD
:1036A00020232366236E13B9002600E0022601239F
:1036B00084F85D30002384F85C30304603B0BDE808
:1036C000F0830326F3E70326F1E70326EFE703265B
:1036D000EDE70226F1E7000070B4036A23F001036E
:1036E0000362036A42688569124C2C400D682543C9
:1036F00023F002048B6823430F4C104EB04218BFD6
:10370000A0420CBF0124002405D123F00803CE6899
:10371000334323F004032CB122F440724C69144368
:103720008A692243426085614A684263036270BCD1
:10373000704700BF8CFFFEFF000001400004014005
:1037400070B4036A23F480730362036A4268C56934
:10375000144C2C400E68264323F400738C6843EA13
:103760000423114C114DA84218BFA0420CBF0124E4
:10377000002406D123F40063CD6843EA052323F433
:1037800080633CB122F440524C6942EA04128C69D5
:1037900042EA04124260C6614A68C263036270BCB6
:1037A000704700BF8CFFFEFF000001400004014095
:1037B00070B4036A23F480530362036A4468C569E2
:1037C0000D4A2A400D6842EA052223F400538D6811
:1037D00043EA0533094E0A4DA84218BFB04204D14E
:1037E00024F480444D6944EA85144460C2614A6807
:1037F0000264036270BC7047FF8CFFFE0000014052
:103800000004014070B4036A23F480330362036A46
:103810004468426D0D4D15400A682A4323F4003375
:103820008D6843EA05430A4E0A4DA84218BFB042CC
:1038300004D124F480344D6944EA0524446042658F
:103840004A688265036270BC704700BF8FFFFEFF4D
:10385000000001400004014070B4036A23F48013A7
:103860000362036A4468456D0D4A2A400D6842EAC6
:10387000052223F400138D6843EA0553094E0A4DCF
:10388000A84218BFB04204D124F480244D6944EA10
:103890008524446042654A68C265036270BC704713
:1038A000FF8FFFFE000001400004014030B4036AB6
:1038B000056A25F001050562846924F0F00444EAF4
:1038C000021423F00A030B438461036230BC704787
:1038D00030B4056A25F0100505628469036A24F492
:1038E000704444EA023423F0A00343EA01138461E4
:1038F000036230BC7047836823F070030B4343F0CE
:103900000703836070470000022380F83D3002689F
:103910009168084B0B40062B18BFB3F5803F03D0CE
:10392000136843F001031360012380F83D30002049
:10393000704700BF070001000268D36843F001032D
:10394000D36002689168064B0B40062B18BFB3F595
:10395000803F03D0136843F00103136000207047D9
:1039600007000100704770477047704710B5044664
:1039700003681A6912F0020F11D0DA6812F0020F10
:103980000DD06FF002021A610123037703689B696F
:1039900013F0030F79D0FFF7E6FF002323772368A6
:1039A0001A6912F0040F12D0DA6812F0040F0ED068
:1039B0006FF004021A610223237723689B6913F4D2
:1039C000407F68D02046FFF7CEFF0023237723688F
:1039D0001A6912F0080F12D0DA6812F0080F0ED030
:1039E0006FF008021A61042323772368DB6913F060
:1039F000030F57D02046FFF7B6FF00232377236835
:103A00001A6912F0100F12D0DA6812F0100F0ED0EF
:103A10006FF010021A61082323772368DB6913F41F
:103A2000407F46D02046FFF79EFF00232377236880
:103A30001A6912F0010F03D0DA6812F0010F3FD1BA
:103A400023681A6912F0800F03D0DA6812F0800F31
:103A50003DD123681A6912F4807F03D0DA6812F02E
:103A6000800F3BD123681A6912F0400F03D0DA6847
:103A700012F0400F39D123681A6912F0200F03D0D9
:103A8000DA6812F0200F37D110BDFFF76BFF204628
:103A9000FFF76AFF81E72046FFF764FF2046FFF744
:103AA00063FF92E72046FFF75DFF2046FFF75CFFCC
:103AB000A3E72046FFF756FF2046FFF755FFB4E780
:103AC0006FF001021A61204602F022F9B8E76FF0A8
:103AD00080021A61204600F022FBBAE76FF4807280
:103AE0001A61204600F01CFBBCE76FF040021A612F
:103AF0002046FFF73AFFBEE76FF020021A6120462A
:103B000000F00CFBC0E7000070B403683A4CA04220
:103B100014BF00240124B0F1804F14BF224644F0AA
:103B20000102AAB9354DA84214BF00250125344E23
:103B3000B0420DD065B905F1804505F58235A84242
:103B400014BF0025012506F50066B04200D01DB166
:103B500023F070034D682B43002A33D1274A90424B
:103B600014BF00220122264DA8422BD052BB02F1E5
:103B7000804202F58232904214BF0022012205F5F4
:103B80000065A8421ED0EAB91E4A904214BF002226
:103B9000012205F59A35A84214D09AB91A4A9042E2
:103BA00014BF0022012205F50065A8420AD04AB9D7
:103BB000164A904214BF00220122A5F59635A8426C
:103BC00000D01AB123F44073CA68134323F0800372
:103BD0004A69134303608A68C2620A6882620C4BB6
:103BE000984214BF234644F001030BB10B690363F1
:103BF0000123436170BC7047000001400008004091
:103C00000004004000440140001800400020004033
:103C100000040140B0B110B5044690F83D3063B1E6
:103C2000022384F83D30214651F8040BFFF76CFF66
:103C3000012384F83D30002010BD80F83C3002F0B4
:103C400059FFEDE701207047B0B110B5044690F878
:103C50003D3063B1022384F83D30214651F8040B16
:103C6000FFF752FF012384F83D30002010BD80F89B
:103C70003C3002F0FBFEEDE70120704770B4036AB0
:103C800023F010030362036A42688569144C2C40D8
:103C90000D6844EA052523F020038C6843EA0413E9
:103CA000104C114EB04218BFA0420CBF012400249A
:103CB00006D123F08003CE6843EA061323F04003C5
:103CC0003CB122F440624C6942EA84028C6942EAC7
:103CD0008402426085614A688263036270BC7047F7
:103CE000FF8CFFFE000001400004014038B590F851
:103CF0003C30012B00F0928004460D46012380F8F1
:103D00003C30022380F83D30142A1ED8DFE802F050
:103D10000B1D1D1D241D1D1D381D1D1D4B1D1D1D95
:103D20005F1D1D1D72000068FFF7D6FC22689369B5
:103D300043F0080393612268936923F004039361BD
:103D40002268936929690B439361012384F83D300C
:103D5000002084F83C0038BD0068FFF78FFF226820
:103D6000936943F4006393612268936923F4806349
:103D7000936122689369296943EA01239361E4E727
:103D80000068FFF7DDFC2268D36943F00803D361C4
:103D90002268D36923F00403D3612268D3692969B7
:103DA0000B43D361D1E70068FFF702FD2268D369B6
:103DB00043F40063D3612268D36923F48063D36141
:103DC0002268D369296943EA0123D361BDE700680A
:103DD000FFF718FD2268536D43F00803536522680E
:103DE000536D23F0040353652268536D29690B4317
:103DF0005365AAE70068FFF72FFD2268536D43F46F
:103E0000006353652268536D23F480635365226811
:103E1000536D296943EA0123536596E702209AE727
:103E200010B4846824F47F4442EA03220A43224304
:103E300082605DF8044B704790F83C30012B64D0F1
:103E400010B50446012380F83C30022380F83D3051
:103E5000026890682E4B034093600B68602B40D043
:103E600022D8402B47D00BD9502B0ED1CA684968B5
:103E70002068FFF71BFD50212068FFF73CFD04E0A0
:103E8000202B0CD008D9302B09D0012384F83D30E9
:103E9000002084F83C0010BD0BB1102BF5D1194661
:103EA0002068FFF728FDF0E7702B0ED0B3F5005F18
:103EB000EBD1CB684A6889682068FFF7B1FF2268B8
:103EC000936843F480439360DFE7CB684A6889686E
:103ED0002068FFF7A5FF2268936843F0770393609B
:103EE000D3E7CA6849682068FFF7F2FC60212068C0
:103EF000FFF701FDC9E7CA6849682068FFF7D6FCEB
:103F000040212068FFF7F7FCBFE70220704700BFA1
:103F10008800FEFF10B401F01F01012303FA01F431
:103F2000036A23EA04030362036A02FA01F10B4302
:103F300003625DF8044B704710B504460122006827
:103F4000FFF7E8FF23680C490C4A934218BF8B42E5
:103F500003D15A6C42F400425A6422689168084BBB
:103F60000B40062B18BFB3F5803F03D0136843F016
:103F700001031360002010BD000001400004014057
:103F80000700010010B5044600220068FFF7C2FFD9
:103F900023681449144A934218BF8B420DD1196A01
:103FA00041F21112114208D1196A40F24442114201
:103FB00003D15A6C22F400425A642368196A41F210
:103FC0001112114208D1196A40F24442114203D140
:103FD0001A6822F001021A60012384F83D300020A3
:103FE00010BD00BF000001400004014090F83C30CB
:103FF000012B45D070B4012380F83C30022380F8B7
:104000003D3003685A689D681E4E1F4CA34218BF7E
:10401000B34203D122F470024C68224322F07002B2
:104020000C6822435A600368164AB3F1804F18BFE8
:10403000934217D0A2F57C42934213D002F58062DE
:1040400093420FD002F5806293420BD002F5784282
:10405000934207D002F57052934203D0A2F59432F6
:10406000934204D125F080058A6815439D600123A1
:1040700080F83D30002380F83C30184670BC704713
:1040800002207047000001400004014090F83C30DD
:10409000012B3CD030B4012380F83C30CB6823F4B2
:1040A00040738A68134323F480634A68134323F4FC
:1040B00000630A68134323F480530A69134323F40B
:1040C00000534A69134323F480438A6A134323F459
:1040D00070238A6943EA024302680E4D0E4CA242E5
:1040E00018BFAA420CD123F470034C6A43EA04536C
:1040F00023F08073CC69234323F00073096A0B43D8
:104100005364002380F83C30184630BC70470220CE
:10411000704700BF00000140000401407047704735
:104120007047000038B5044683680269134342694A
:104130001343C2691343016808689F4A024013434E
:104140000B602268536823F44053E1680B435360CB
:10415000A269236A1A4321688B6823F430631343EE
:104160008B602368954A934219D0954A934229D08F
:10417000944A93423ED0944A934262D0934A9342E7
:1041800071D0934A934200F08380924A934200F0A8
:104190009480914A934200F0A58010253AE08F4B1D
:1041A000D3F8903003F00303032B09D8DFE803F0C2
:1041B0000204AE0601252DE004252BE0082529E0A8
:1041C000102527E0854BD3F8903003F00C030C2B1F
:1041D0000ED8DFE803F0070D0D0D090D0D0D9D0D37
:1041E0000D0D0B00002515E0042513E0082511E056
:1041F00010250FE0794BD3F8903003F03003202BDB
:1042000000F0888019D8002B00F08680102B40F039
:1042100085800425E369B3F5004F00F0AB80082DDD
:1042200000F24081DFE815F00701180122013E018C
:104230002B013E013E013E013501302B70D1082596
:10424000E8E7664BD3F8903003F0C003802B69D0C9
:1042500005D8002B68D0402B68D10425DAE7C02BA5
:1042600066D10825D6E75D4BD3F8903003F4407350
:10427000B3F5007F5ED006D8002B5DD0B3F5807F0C
:104280005CD10425C6E7B3F5407F59D10825C1E7C5
:10429000524BD3F8903003F44063B3F5006F51D024
:1042A00006D8002B50D0B3F5806F4FD10425B1E76D
:1042B000B3F5406F4CD10825ACE7484BD3F89030AC
:1042C00003F44053B3F5005F44D006D8002B43D02D
:1042D000B3F5805F42D104259CE7B3F5405F3FD141
:1042E000082597E73D4BD3F8903003F44043B3F5EE
:1042F000004F37D005D8BBB3B3F5804F36D1042576
:1043000088E7B3F5404F33D1082583E7022581E7DD
:1043100002257FE702257DE700257BE7102579E769
:10432000102577E7022575E7002573E7102571E76B
:1043300010256FE702256DE700256BE7102569E77B
:10434000102567E7022565E7012563E7102561E78A
:1043500010255FE702255DE700255BE7102559E79B
:10436000102557E7022555E7002553E7102551E7AB
:1043700010254FE7082D5BD8DFE805F005323D5AE0
:10438000465A5A5A5100FDF775FD6268530803EB0F
:104390004003B3FBF2F39BB2A3F110014FF6EF72AF
:1043A000914200F282809AB222F00F02C3F34203DC
:1043B00013432268D3607BE0F369FFEF00100140F4
:1043C0000044004000480040004C004000500040C5
:1043D0000014014000780040007C0040003802409A
:1043E000FDF758FD6268530803EB4003B3FBF2F39B
:1043F0009BB20025D0E76268304B03EB5203B3FB5E
:10440000F2F39BB20025C7E7FDF728FC626853086A
:1044100003EB4003B3FBF2F39BB20025BCE76268F9
:10442000530803F58033B3FBF2F39BB20025B3E7E7
:1044300001250023B0E7FDF71DFD626800EB520384
:10444000B3FBF2F39BB2A3F110014FF6EF7291426E
:104450002DD82268D3602BE0FDF71CFD626800EBCD
:104460005203B3FBF2F39BB20025ECE76268144BF6
:1044700003EB5203B3FBF2F39BB20025E3E7FDF736
:10448000EDFB626800EB5203B3FBF2F39BB2002535
:10449000D9E76268530803F50043B3FBF2F39BB21C
:1044A0000025D0E701250023CDE7012500E0012507
:1044B000002323666366284638BD00BF0048E80134
:1044C0000024F400436A13F0010F06D00268536819
:1044D00023F40033816A0B435360436A13F0020FE5
:1044E00006D00268536823F48033C16A0B435360DB
:1044F000436A13F0040F06D00268536823F4802344
:10450000016B0B435360436A13F0080F06D0026837
:10451000536823F40043416B0B435360436A13F029
:10452000100F06D00268936823F48053816B0B430D
:104530009360436A13F0200F06D00268936823F457
:104540000053C16B0B439360436A13F0400F0AD0D2
:104550000268536823F48013016C0B435360036CAF
:10456000B3F5801F0BD0436A13F0800F06D00268AA
:10457000536823F40023816C0B4353607047026837
:10458000536823F4C003416C0B435360EBE72DE900
:10459000F84305460F4616469946DDF820802C68FC
:1045A000E46937EA04030CBF01240024B4423CD17F
:1045B000B8F1FF3FF3D0FCF757F9A0EB09004045F5
:1045C00021D8B8F1000F1ED02B681A6812F0040F22
:1045D000E5D0DA6912F4006FE1D04FF400621A629C
:1045E0002A68136823F4D07313602A68936823F051
:1045F0000103936020236B67AB67EB67002385F8AB
:104600007030032012E02A68136823F4D07313601B
:104610002A68936823F00103936020236B67AB67DC
:10462000002385F87030032000E00020BDE8F88307
:104630002DE9F04182B01E46436F202B59D104462C
:104640000D469046B2FA82F35B09002908BF0123A8
:10465000002B52D190F87030012B50D0012380F8FC
:1046600070300023C36721234367FCF7FDF807463A
:10467000A4F85080A4F85280A368B3F5805F05D0F9
:104680004FF00008002384F8703014E0236913B160
:104690004FF00008F6E7A8460025F3E738F8023B9C
:1046A0002268C3F308039362B4F8522092B2013A2D
:1046B00092B2A4F85220B4F852309BB273B1009673
:1046C0003B46002280212046FFF761FFC8B9002D3C
:1046D000E4D015F8012B23689A62E5E700963B4683
:1046E000002240212046FFF752FF60B92023636774
:1046F00000E0022002B0BDE8F0810120FAE70220CC
:10470000F8E70320F6E70320F4E730B583B004466A
:104710000023C367FCF7A8F8054623681B6813F05D
:10472000080F0CD123681B6813F0040F15D1202348
:104730006367A367002084F8700003B030BD6FF09A
:104740007E430093034600224FF400112046FFF7FA
:104750001EFF0028E6D00320EFE76FF07E430093B2
:104760002B4600224FF480012046FFF710FF00285F
:10477000DDD00320E1E768B310B50446436F03B30F
:10478000242363672268136823F001031360204623
:10479000FFF7C8FC012813D0636ABBB922685368CD
:1047A00023F4904353602268936823F02A039360B4
:1047B0002268136843F0010313602046FFF7A5FF4A
:1047C00010BD80F8703002F079FAD9E72046FFF783
:1047D00079FEE3E7012070470B4B1B680B4AA2FBF5
:1047E00003235A0A41F2883303FB02F31A46013BC2
:1047F0003AB1426B12F0800FF8D0C52383630020DA
:1048000070474FF00040704710000020D34D6210F9
:104810000146144B1B68144AA2FB03235A0A41F2B7
:10482000883303FB02F31A46013BBAB14A6B12F01C
:10483000450FF8D012F4006FF5D14B6B13F0040F55
:1048400006D1486B10F0010005D1C5238B6370477A
:104850000420886370470120886370474FF0004050
:10486000704700BF10000020D34D62100146104B6E
:104870001B68104AA2FB03235A0A41F2883303FB48
:1048800002F31A46013B82B14A6B12F0450FF8D091
:1048900012F4006FF5D1486B10F0040002D1C5236B
:1048A0008B6370470420886370474FF00040704767
:1048B00010000020D34D62100146164B1B68164AAB
:1048C000A2FB03235A0A41F2883303FB02F31A4680
:1048D000013BE2B14A6B12F0450FF8D012F4006FC1
:1048E000F5D14B6B13F0040F0BD14B6B13F001039D
:1048F0000AD1486B10F040000BD040228A63184662
:1049000070470420886370470120886370474FF028
:104910000040704710000020D34D621084B010B4E6
:1049200002AC84E80E000B46039A1343049A134327
:10493000059A1343069A1343079A13434168044A9E
:104940000A401343436000205DF8044B04B07047F5
:104950000081FFFFD0F8800070470B68C0F88030FE
:104960000020704708B5032303600220FBF782FF95
:10497000002008BD006800F0030070470B688360EA
:104980004B688A681343CA6813430A691343C168B2
:10499000024A0A401343C3600020704700F0FFFF43
:1049A0000069C0B2704714304058704738B50446AB
:1049B0000D46504B1B685049A1FB03135B0A02FBD9
:1049C00003F21346013A002B5DD0636B13F0450FE1
:1049D000F7D013F4006FF4D1636B13F0040F06D11A
:1049E000636B13F0010F05D00120A0634DE004209C
:1049F000A0634AE0C523A3632046FFF7D1FFA84286
:104A000001D0012041E000212046FFF7CCFF034602
:104A10003A481840C8B3002B38DB13F0804F38D128
:104A200013F0005F37D113F0805F36D113F0006FC1
:104A300036D113F0806F36D113F0807F36D113F466
:104A4000000F36D113F4800F36D113F4001F36D186
:104A500013F4801F36D113F4802F36D113F4003FA6
:104A600036D113F4803F36D113F4004F36D113F40E
:104A7000804F36D113F4005F36D113F0080F36D0D3
:104A80004FF4000001E04FF0004038BD4FF00070DF
:104A9000FBE74020F9E78020F7E74FF48070F4E768
:104AA0004FF40070F1E74FF48060EEE74FF40060E0
:104AB000EBE74FF48050E8E74FF40050E5E74FF4A0
:104AC0008040E2E74FF40040DFE74FF40030DCE7DE
:104AD0004FF48020D9E74FF40020D6E74FF4801040
:104AE000D3E74FF40010D0E74FF48000CDE74FF448
:104AF0008030CAE710000020D34D621008E0FFFDAF
:104B0000F8B505460E461746234B1B682348A0FB05
:104B10000323580A41F2883303FB00F31C46013B90
:104B20008CB36C6B14F0450FF8D014F4006FF5D112
:104B30006B6B13F0040F06D16B6B13F0010F05D0F4
:104B40000120A86321E00420A8631EE02846FFF7A7
:104B500027FFB04201D0012017E0C523AB6300213D
:104B60002846FFF720FF034610F4604008D013F4F6
:104B7000804F0BD113F4004F0BD04FF4805004E062
:104B80001B0C3B8001E04FF00040F8BD4FF400509B
:104B9000FBE74FF48030F8E710000020D34D62109F
:104BA0000B6843624B6883628B68CA6813430A6967
:104BB00013434A691343C26A22F0F7021343C362E4
:104BC0000020704730B587B004460191102502954A
:104BD00040230393002304934FF48063059301A9BA
:104BE000FFF7CCFE41F2883229462046FFF7DEFE71
:104BF00007B030BD30B587B004460191112502954C
:104C000040230393002304934FF48063059301A989
:104C1000FFF7B4FE41F2883229462046FFF7C6FE70
:104C200007B030BD30B587B004460191122502951A
:104C300040230393002304934FF48063059301A959
:104C4000FFF79CFE41F2883229462046FFF7AEFE70
:104C500007B030BD30B587B00446019118250295E4
:104C600040230393002304934FF48063059301A929
:104C7000FFF784FE41F2883229462046FFF796FE70
:104C800007B030BD30B587B00446019119250295B3
:104C900040230393002304934FF48063059301A9F9
:104CA000FFF76CFE41F2883229462046FFF77EFE70
:104CB00007B030BD30B587B00446002301930C2502
:104CC00002954022039204934FF48063059301A957
:104CD000FFF754FE034A29462046FFF767FE07B058
:104CE00030BD00BF00E1F50530B587B00446019244
:104CF0000725029540230393002304934FF4806318
:104D0000059301A9FFF73AFE41F288322946204671
:104D1000FFF74CFE07B030BD10B586B00446002347
:104D200001930293039304934FF48063059301A9C5
:104D3000FFF724FE2046FFF74FFD06B010BD10B56B
:104D400086B004464FF4D5730193082302934023A1
:104D50000393002304934FF48063059301A9FFF7A5
:104D60000DFE2046FFF7A8FD06B010BD30B587B098
:104D700004460191372502954023039300230493B1
:104D80004FF48063059301A9FFF7F8FD41F28832E3
:104D900029462046FFF70AFE07B030BD10B586B0A1
:104DA00004460A4B0B4301932923029340230393A8
:104DB000002304934FF48063059301A9FFF7DEFD00
:104DC0002046FFF753FD06B010BD00BF0000108065
:104DD00010B586B004460023019302220292C0223D
:104DE000039204934FF48063059301A9FFF7C6FD76
:104DF0002046FFF70DFD06B010BD10B586B0044685
:104E0000019109230293C0230393002304934FF4D9
:104E10008063059301A9FFF7B1FD2046FFF7F8FC79
:104E200006B010BD70B586B004460D460023019350
:104E3000032602964022039204934FF48063059365
:104E400001A9FFF79BFD2A4631462046FFF758FE91
:104E500006B070BD30B587B0044601910D250295AE
:104E600040230393002304934FF48063059301A927
:104E7000FFF784FD41F2883229462046FFF796FD70
:104E800007B030BD104B5B7AE3B970B4044603F051
:104E9000FF000D4B5D7AEDB200265E555D7A03EBA7
:104EA00085056C605C7A1C4422725A7A541CE4B208
:104EB0005C7230320A703A234B702F238B70CE70A5
:104EC00070BC704701207047DC09002008B5002243
:104ED000FFF7D8FF08BD000000B583B0009313466C
:104EE0000A4601460348FDF739FB00B1012003B033
:104EF0005DF804FBFC2A002000B583B00093134644
:104F00000A4601460348FDF75BFC00B1012003B0EF
:104F10005DF804FBFC2A002008B50348FDF724FFD8
:104F2000043818BF012008BDFC2A002008B501463E
:104F30000148FDF707FF08BDFC2A002000B583B03B
:104F400001238DF8073000F0DDF810B900238DF84B
:104F500007309DF8070003B05DF804FB08B5FFF7C4
:104F6000EDFF012801D0022008BD0248FDF7CFFE69
:104F7000FAE700BFFC2A002038B504460025C565C5
:104F800085644564C56405654565856505660123D9
:104F9000436600F14401006CFBF76CFF84F86C0081
:104FA00094F9F41C206CFCF7BCF884F86D0094F9BB
:104FB000F51C206CFCF7B5F884F86D0084F870508F
:104FC00084F8715084F8725084F87350206CFBF7A9
:104FD000EBFF84F86E00B4F86C3013B918B10120FF
:104FE00000E0012038BD0020FCE7000008B50248C1
:104FF000FFF7C2FF08BD00BF5017002000B589B001
:105000000023079304E0C218117B82F824100133B7
:10501000072BF8DDC36A83630268C2630193002330
:105020000393049305928DF8183007AB00F10C023E
:1050300001A9006CFBF7E6FF18B1002009B05DF88C
:1050400004FB0120FAE7000070B490F87260731C52
:10505000134C84FB03246411642202FB143490F883
:1050600073309C4219D0C26A06F16B0300EB031344
:105070005A6005689D6000239D4209DDC218117BBE
:1050800000EB06121A4482F8BC160133DBB2F3E7D8
:1050900080F87240012070BC70470020FBE700BF21
:1050A0001F85EB5110B50446006CFCF721F828B9B8
:1050B000226C094B9A4208D0012010BD2046FFF710
:1050C0009DFF0028F9D00120F7E72046FFF7BCFF3D
:1050D0000028F2D00120F0E7E42D0020014B1868F1
:1050E000704700BFE809002008B503490348FFF7EF
:1050F000EDFE034B187008BD4C2400204CCD000879
:105100004824002008B520210348FCF731FB08B9EA
:10511000012008BD0020FCE7000C0240431EDBB26A
:10512000052B00D9002040F45870704702710160CF
:1051300043619DF80030037670470378407803EBB5
:10514000002080B2704710B504460022017E4069FD
:10515000FCF715FB226892F85D30DBB2012B04D01E
:1051600092F85D30DBB2062BF4D110BD08B50268B1
:1051700092F85D30DBB2012B04D092F85D30DBB2E7
:10518000062BF4D10122017E4069FCF7F8FA08BD34
:1051900010B582B004460A4B93E803000090ADF8C6
:1051A00004102046FFF7CFFF0A2306226946206835
:1051B000FDF75BFF2046FFF7D9FF02B010BD00BF2F
:1051C000A8C9000830B400241022A0420BDD0B5DFA
:1051D00083EAD213DBB2064D35F9133083EA02229B
:1051E00092B20134F1E7500080B230BC704700BF8A
:1051F00048CA0008F0B58BB004460020FFF78EFFC8
:105200002379DB0063F07F0343EA10238DF8243019
:105210008DF8250009A90220FFF7D4FFC0F307236A
:105220008DF826308DF827002046FFF7B1FF204685
:10523000FFF789FF6423042209A92068FDF715FF01
:10524000C0B1BB4B1D78B5B1BA4EBB4D0FCD306070
:105250007160B260F36007CD30617161B261304658
:10526000FAF7EEFF0A2382B23146B448FFF7E0F9BD
:10527000002500E001250520FBF7FCFA2046FFF79A
:1052800075FF0A20FBF7F6FAA94B1B78002B7BD1A0
:105290002379DB0063F07F038DF8243004268DF83A
:1052A000256009A90220FFF78DFFC0F307238DF8C1
:1052B00026308DF827002046FFF76AFF2046FFF7CB
:1052C00042FF6423324609A92068FDF7CEFE00287C
:1052D00073D0974B1D78002D40F0BB802046FFF720
:1052E00045FF07A90620FFF76DFF9DF822209DF8D6
:1052F000233003EB02239BB2984200F0CD808C4B0D
:105300001D78002D40F0CA802379DB0063F07F0315
:105310008DF8243006238DF8253009A90220FFF7E7
:1053200051FFC0F307238DF826308DF82700204663
:10533000FFF72EFF2046FFF706FF6423042209A98A
:105340002068FDF792FE002800F0BA80784B1D78A7
:10535000002D40F014812046FFF708FF07A9062022
:10536000FFF730FF9DF822209DF8233003EB022346
:105370009BB2984200F027816D4B1D78002D40F0C4
:10538000248128460BB0F0BD9DF826309DF82720DB
:10539000684E019200939DF825309DF824206849BD
:1053A000304601F0A5FD3046FAF74AFF0A2382B2E3
:1053B00031466248FFF73CF96AE76423082207A9EF
:1053C0002068FEF7BAF85A4B1B784BBB584B1B783A
:1053D000002B83D09DF81E309DF81F209DF82010D3
:1053E0009DF821009DF822709DF823C0514ECDF804
:1053F00014C0049703900291019200939DF81D3010
:105400009DF81C204F49304601F072FD3046FAF7F6
:1054100017FF0A2382B231464848FFF709F95DE7D2
:105420009DF826309DF82720424E019200939DF86A
:1054300025309DF824204249304601F059FD304680
:10544000FAF7FEFE0A2382B231463C48FFF7F0F835
:10545000BCE7384E384D0FCD30607160B260F360FC
:1054600007CD30617161B2613046FAF7E9FE0A2377
:1054700082B231463148FFF7DBF800252EE777008E
:1054800007AB03EB4600FFF758FE2744F8800136D0
:10549000F6B2022EF3D937E70026FAE7254D2A4E59
:1054A0000FCE28606960AA60EB602846FAF7C8FE54
:1054B0000A2382B229462148FFF7BAF8002523E7DC
:1054C0006423082207A92068FEF737F82046FFF773
:1054D0004DFE174B1B78002B38D1154B1B78002B3A
:1054E0003FF439AF9DF81E309DF81F209DF8201025
:1054F0009DF821009DF822709DF823C00D4ECDF837
:1055000014C0049703900291019200939DF81D30FE
:105510009DF81C200B49304601F0EAFC3046FAF7B2
:105520008FFE0A2382B231460448FFF781F812E762
:105530004BCD0008B028002000CA0008242D002010
:105540002CCA0008D4C900081CCA00089DF82630DF
:105550009DF82720264E019200939DF825309DF856
:1055600024202449304601F0C3FC3046FAF768FE97
:105570000A2382B231462048FFF75AF8ADE71C4EA5
:105580001E4D0FCD30607160B260F36007CD3061A9
:105590007161B2613046FAF753FE0A2382B2314696
:1055A0001548FFF745F80025D5E6F71C07AB03EBD8
:1055B0004600FFF7C2FD04EB4707F8800136F6B25C
:1055C000022EF2D9DDE60026FAE7094C0C4D0FCD8C
:1055D00020606160A260E3602046FAF731FE0A2392
:1055E00082B221460448FFF723F80025C9E600BF30
:1055F000B02800202CCA0008242D002000CA000872
:105600001CCA00080023052B01DC0133FBE70F2037
:1056100070470000054B064A1A6000225A609A60E3
:10562000DA601A615A619A61704700BFFC2A002053
:10563000001C01402DE9F0418AB000240594069435
:105640000794089409942C4B1A6B42F080021A6359
:105650001A6B02F080020092009A1A6B42F0040268
:105660001A631A6B02F004020192019A1A6B42F05B
:1056700001021A631A6B02F001020292029A1A6B7B
:1056800042F002021A631A6B02F002020392039ABA
:105690001A6B42F008021A631B6B03F008030493B1
:1056A000049BDFF85C80224620214046FCF767F827
:1056B000124D224614212846FCF761F82026059653
:1056C000012706970794089405A94046FBF760FF59
:1056D000142305930697079408940DEB03012846BD
:1056E000FBF756FF05960694079405A92846FBF795
:1056F0004FFF0AB0BDE8F08100380240000C0240C4
:105700000008024000B583B00A4B1A6B42F48002D5
:105710001A631B6B03F480030193019B0022114663
:105720003820FBF723FD3820FBF752FD03B05DF86E
:1057300004FB00BF0038024070B584B0002500951E
:10574000019502950395104C104B23604FF4803364
:105750006360A5602561A56184F82050E5620C4B6B
:10576000A362E5600126E66184F830506661204658
:10577000FBF72EF902230093019602956946204615
:10578000FBF7ECF904B070BDE42B002000200140D1
:105790000100000F08B50B480B4B03600323436067
:1057A00000238360C3604FF4602202614FF48012D3
:1057B0004261037643768376C37603774377FBF7BC
:1057C000B3FA08BDE42D00200064004008B50B4882
:1057D0000B4B03600323436000238360C3604FF4DB
:1057E000602202614FF48012426103764376837631
:1057F000C37603774377FBF797FA08BD802B002029
:105800000034004008B50E480E4B03604FF482731D
:105810004360002383604FF4E062C2600361436130
:105820004FF4007282613822C26103624362836274
:105830000722C262036308234363FDF7B9FB08BD77
:10584000382900200038004030B58BB00024079480
:105850000894099400940194029403940494059488
:105860000694184D4FF080432B606C60AC60EC6088
:105870002C61AC612846FEF7E7F90794099407A963
:105880002846FEF7B3FB602300930194029404942E
:10589000224669462846FEF729FA04226946284628
:1058A000FEF724FA082269462846FEF71FFA0C2262
:1058B00069462846FEF71AFA284601F03BF90BB074
:1058C00030BD00BFA42D002030B58BB0002407945C
:1058D0000894099400940194029403940494059408
:1058E0000694124D124B2B606C60AC60EC602C6126
:1058F000AC612846FEF7A8F90794099407A9284641
:10590000FEF774FB602300930194029404942246F2
:1059100069462846FEF7EAF9042269462846FEF75A
:10592000E5F9284601F006F90BB030BDB82A002091
:105930000004004030B58BB000240794089409940B
:105940000094019402940394049405940694174DD2
:10595000174B2B606C60AC60EC602C61AC6128462E
:10596000FEF772F90794099407A92846FEF73EFB53
:1059700060230093019402940494224669462846C9
:10598000FEF7B4F9042269462846FEF7AFF908226B
:1059900069462846FEF7AAF90C2269462846FEF712
:1059A000A5F9284601F0C6F80BB030BDDC2900206F
:1059B0000008004030B597B0002413941494159457
:1059C0000C940D940E940F941094119412942C2214
:1059D000214601A801F03CFA1B4D1C4B2B606C606A
:1059E000AC60EC602C616C61AC612846FEF72CF970
:1059F00013941494159413A92846FEF7F7FA60231C
:105A00000C930D940E940F941094119412942246BA
:105A10000CA92846FEF76AF90194029403940494B1
:105A200005944FF400530693079408944FF00073C5
:105A300009930A940B9401A92846FEF727FB2846F0
:105A400001F078F817B030BD9C2900200004014017
:105A500008B50948094B03604FF4E1334360002364
:105A60008360C36003610C2242618361C36103628E
:105A70004362FEF780FE08BD242D0020004C00404C
:105A800030B589B0002404940594069407940194D9
:105A9000029403940E4D0F4B2B606C236B60AC6033
:105AA00040F2E733EB602C61AC612846FEF7B2F8B8
:105AB0004FF48053049304A92846FEF7BDF90194DE
:105AC000039401A92846FEF791FA09B030BD00BF42
:105AD000782A0020000C004030B5B9B034220021F3
